:040000006F009000FD
:1000040000000000000000006F0080086F0040390D
:1000140000000000000000000000000000000000DC
:1000240000000000000000000000000000000000CC
:100034006F004006000000006F00E00500000000B3
:100044006F0080056F0060056F0040056F0020059C
:100054006F0000056F00E0046F00C00400000000A2
:100064006F0060046F0040046F0040056F00201BA8
:100074006F00E0036F00C003000000006F00600326
:100084006F0040036F0020036F0000036F00E00265
:1000940001A001A001A001A001A001A001A001A054
:1000A40001A001A001A001A001A001A001A001A044
:1000B40001A001A001A001A001A001A037370040C8
:1000C400834747009146BD8B6389D7009946639661
:1000D400D7148347570073002030411122C6834749
:1000E40087001385818503C721812A9793F7F70F2A
:1000F4002300F70083C681851307A00A2A84639D21
:10010400E60E3E8597D0FFDFE780400C9387218180
:1001140083C707004147850793F7F70F6368F70024
:100124002389F18032444101730020302389018006
:1001340083C7B18003C7C18081463546B305D40067
:1001440083C505008506AE9793F7F70F3E9713779F
:10015400F70FE395C6FEA385F1802386E18083C66D
:1001640041816392F60883C75181639EE7069385B4
:10017400C18625461385C18497D0FFDFE780C0522E
:100184009387018103C7070083C71700A54513851B
:10019400C1842384E180A384F18097D0FFDFE780CA
:1001A400804BD1451385818597D0FFDFE780C03D23
:1001B400514681451385818597D0FFDFE780E0EEC6
:1001C400254681451385C18697D0FFDFE780E0EDA2
:1001D40023A6018423A80184238A0184A3850180A2
:1001E4002386018081B71707000003472762B737CA
:1001F40000402384E70075B75146814597D0FFDF5F
:10020400E780A0EA254681451385C18697D0FFDFA4
:10021400E780A0E92389018031B7730020303737A4
:100224000040834747409946BD8B6387D7003147D9
:100234006388E70073002030834757407300203001
:1002440041111385818197D0FFDFE7804043137507
:10025400F50FA307A1008345F1001385818197D091
:10026400FFDFE780403F410173002030B7170040B3
:10027400930670052380D704130780FA2380E704CC
:1002840003C6B7041376F60DA385C70423800704B9
:10029400137605022DC603C6A700118A0DE223803A
:1002A400D7042380E70403C7A70013674700238507
:1002B400E7009307004B01000100FD17EDFFB7179E
:1002C4000040930670052380D704130780FA238027
:1002D400E7047D892394A7000100010001000100C7
:1002E400238007042380D7042380E70493061005A2
:1002F40037270040A303D780238007048280137626
:1003040005046DDE03C6A700418A0DE22380D704ED
:100314002380E70403C7A700136707012385E700C9
:100324009307007D01000100FD17EDFFB7170040A2
:10033400930670052380D704130780FA7D892380F0
:10034400E704136505042394A700010001000100DC
:100354000100238007042380D7042380E704930645
:1003640030053727004079B7411181460146814560
:10037400114506C6B12AB71700401307700523803C
:10038400E704130780FA2380E70403C767041367AD
:1003940017002383E70423800704B24041018280CD
:1003A40081460146814511452522B7170040930631
:1003B40070052380D704130780FA2380E7047D5651
:1003C4002396C7022380D7042380E70403C7670466
:1003D400136717002383E7042380070401A0BD47A4
:1003E4003305F50201007D1575FD8280411122C49B
:1003F40026C206C6AA84014463179400B24022446C
:1004040092444101828005041305803E4204C13FA9
:100414004180DDB72303048015472303E4800100F2
:100424002302A480828083076480E3CE07FE230333
:100434000480828083076480E3CE07FE0345448002
:10044400828083076480E3CE07FE2302A480828037
:10045400411126C44AC24EC006C61377F50BAD47F8
:10046400AA892E8995446306F70019456537653FC7
:100474008D444E854537FD59FD1463983401B240CF
:10048400A24412498249410182801355090113751E
:10049400F50F453F2209CDB7011126CC06CEB7048E
:1004A400080051371545BD37713769372AC6A53F4E
:1004B40032459377150089EB136515001375F50F15
:1004C400F240E24405618280FD14E9FC0145CDBFA0
:1004D400397126DC4ADA4ED852D656D45AD25ED076
:1004E40006DE62CE66CCB7E700E07D5783AA07003C
:1004F40022C603AA470023A0E71823A2E718B717C8
:100504000040130770052380E704130780FA238053
:10051400E70483C74704930B75FFB684E20793FB94
:10052400FB0F8546AA892E8B328937240040E18748
:10053400015763FA76016308D50089461307000260
:100544006313D5000157D98F93F7F70FB71C0040F9
:100554002382FC0411472303E4801305F00F5D3D5F
:10056400094CD13563697C11B70707003E9B378777
:1005740007007955637EEB02B3079B00636AF702B9
:10058400A9476399F90689E48144713D26850DA044
:10059400DA850945753D05090345F9FFFD14050B89
:1005A4004D3581C49377FB0FFDF7FD3569FD7D550E
:1005B400B7170040130770052380E704130780FA78
:1005C4002380E70403C74704418B2382E704F250E6
:1005D400B7E700E023A0571123A24711E2543244A5
:1005E4005259C259325AA25A125B825B724CE24C83
:1005F40021618280A5476395F90685691309F00F87
:10060400B3069900B3742B01B6941349F9FFB3747C
:100614009900856B33796901416B9387F9FFB3F7CF
:10062400270199E363FC340193D94900C147E3E608
:1006340037FF99BF0569C1697D19D9B71305800DC5
:1006440063886901130500026384790113051008A6
:10065400CA85FD3B913521DD4E99B3843441D9B728
:10066400DA852D45F533CA94E30099F20509D933A7
:10067400A30FA9FED5BF9387F9FF93F7F70F636C18
:10068400FC0803C75C04B70708001377070219E3E3
:10069400B78707007955E37DFBF033079B00E3E957
:1006A400E7F089476390F9048980D549E38E04EC27
:1006B400DA850945713B11090327C9FF91472320B6
:1006C400E48003076480E34E07FE23033481FD17AF
:1006D400EDFBFD14110B81C49377FB0FE9FF6D3B18
:1006E40071F5F1B58547E387F9F4DA852D458D3346
:1006F4009389F4FFE38A04E8353B93F7390091EBDF
:10070400832604800327090093074900E39FE6E654
:100714003E89CE84F1BFB5476396F9001305900B6B
:10072400D5399DB5B1471305B00AE38BF9FE994756
:10073400639EF902DA852D45213B81448D4BA14905
:10074400D53963967401832704802320F900850436
:10075400E39834FF8327048013172B0163550700A4
:100764002312F90015B52322F90039BD9D47639979
:10077400F90281451305B004E139BD442320090081
:1007840023220900FD597D3193F77400CA9703C7EA
:100794000700FD14398D2380A700E39634FFEDB3E1
:1007A400A1476392F904CD398144630D0B008D4751
:1007B4009304C0036308FB009304000563048B01E6
:1007C400930440041375C507E30095DC194599317A
:1007D4009939054581312685AD3109459D316D39FC
:1007E400E31405DAE9B391476399F9001305600648
:1007F400153115391305900925B7E38709D8F15444
:0408040069B30000D4
:100808009741002093810100177100201301017F97
:100818001305400097350020938545FE17360020C4
:100828001306067E63FAC5008322050023A055003F
:1008380011059105E3EAC5FE170500001305457487
:10084800973500209385C57B1386818063FAC500A0
:100858008322050023A0550011059105E3EAC5FE92
:1008680013858180938581876377B50023200500F0
:100878001105E36DB5FE9302800873A0023097322C
:1008880000209382A2F793E21200739052309702ED
:1008980000009382820B73901234730020303D4322
:1008A8002A876373C3029377F700BDEFADE59376AC
:1008B80006FF3D8ABA960CC34CC30CC74CC7410708
:1008C800E36BD7FE11E28280B306C3408A06970223
:1008D800000096966780A6002307B700A306B70016
:1008E8002306B700A305B7002305B700A304B70084
:1008F8002304B700A303B7002303B700A302B7007C
:100908002302B700A301B7002301B700A300B70073
:100918002300B700828093F5F50F93968500D58D57
:1009280093960501D58D61B793962700970200002D
:1009380096968682E78086FA9680C1171D8F3E9626
:10094800E374C3F8A5B741111305800406C622C491
:1009580097300020E7804011371400408327840C2B
:100968008545414593E707082324F40C49248D4520
:1009780013050008AD2C412E8327840A85451305ED
:10098800001093E707202324F40A7D2A8D451305D8
:1009980000205D2A81210145452695450545552EAE
:1009A800B707000437E400E02320F4100145A1292B
:1009B80095450545B521B70700082320F41001A087
:1009C80083C7318189EF9307A00A631EF516930741
:1009D800A0FA238CF1848547A389F180828005479A
:1009E8006398E7009307F00F631FF5148947EDB785
:1009F80009476398E7009307100F6316F5148D47AE
:100A0800E1BF0D476397E700C547631EF51291479D
:100A1800E1B71147639BE700C5476306F5129547A1
:100A2800A389F1802386A18682801547639BE7000E
:100A3800C547630AF5109947A389F180A386A18663
:100A480082801947639BE700C547630EF50E9D47F3
:100A5800A389F1802387A18682801D47639BE700D5
:100A6800C5476302F50EA147A389F180A387A18634
:100A780082802147639BE700C5476306F50CA547BD
:100A8800A389F1802388A18682802547639BE7009C
:100A9800C547630AF50AA947A389F180A388A186F7
:100AA80082802947639BE700C547630EF508AD4779
:100AB800A389F1802389A18682802D47639BE70063
:100AC800C5476302F508B147A389F180A389A186C8
:100AD80082803147639BE700C5476306F506B54743
:100AE800A389F180238AA18682803547639BE7002A
:100AF800C547630AF504B947A389F180238AA18011
:100B080082803947639BE700C547630EF502BD47FE
:100B1800A389F180A38AA18082803D47639BE70077
:100B2800C5476302F502C147A389F1802388A180E4
:100B3800828041476399E700C5476306F500A389AA
:100B48000180A388A1808280914763EEB7021707CE
:100B58000000130767408A05BA959C41BA978287B7
:100B6800B717004003A7470B1345F5FF698F23AA62
:100B7800E70A03A7070B698F23A8E70A03A7070A51
:100B8800798D23A0A70A8280B717004083A6470B58
:100B98001347F5FFF98E23AAD70A83A6070B558DAD
:100BA80023A8A70A83A6070A758F23A0E70A8280CD
:100BB800B717004003A7470B498F23AAE70A03A7E3
:100BC800070B1345F5FF45BFB717004083A6470B32
:100BD8001347F5FF758F23AAE70A03A7070A598D5C
:100BE8004DB7B717004003A7470B498FEDB791479B
:100BF80063EEB70217070000130747378A05BA954F
:100C08009C41BA978287B717004003A7470D134541
:100C1800F5FF698F23AAE70C03A7070D698F23A89F
:100C2800E70C03A7070C798D23A0A70C8280B717C0
:100C3800004083A6470D1347F5FFF98E23AAD70C6A
:100C480083A6070D558D23A8A70C83A6070C758FBF
:100C580023A0E70C8280B717004003A7470D498FF0
:100C680023AAE70C03A7070D1345F5FF45BFB717E0
:100C7800004083A6470D1347F5FF758F23AAE70C9D
:100C880003A7070C598D4DB7B717004003A7470DA9
:100C9800498FEDB7B717004003D58700420541815A
:100CA8009377050491EB9377F5013755E801130520
:100CB80005803345F50282809377050C13070004FD
:100CC8006397E7009377F50137459C1CCDB72165FD
:100CD800130505D08280411122C406C62A845D3FCF
:100CE8002947B307E502B2408D83B3D78702224470
:100CF8009507B3D7E70237370040C207C1832316E9
:100D0800F70041018280716541111305052006C66F
:100D1800D937B7370040130770F82381E7000D472C
:100D2800A381E70013070004A380E7000547238792
:100D3800E700B240410182803737004083472700EF
:100D48001A0593F7F703C98F93F7F70F2301F700F5
:100D58008280B737004003C7170019C9D98DA3800F
:100D6800B70003C70700136787002380E700828066
:100D780093C5F5FFF98DA380B7008280B73700408F
:100D88002147B736004091E1828003C6B700E30CE3
:100D9800C7FE05050346F5FFFD15C2052384C600F9
:100DA800C181D5B7411122C406C62A84E535294731
:100DB800B307E502B2408D83B3D787022244950773
:100DC800B3D7E70237370040C207C1832316F7407D
:100DD80041018280716541111305052006C6D93786
:100DE800B7370040130770F82381E7400D47A38108
:100DF800E74013070004A380E74005472387E7403F
:100E0800B2404101828037370040834727401A05A6
:100E180093F7F703C98F93F7F70F2301F740828001
:100E2800B737004003C7174019C9D98DA380B74009
:100E380003C70740136787002380E740828093C574
:100E4800F5FFF98DA380B7408280B737004021476E
:100E5800B736004091E1828003C6B740E30CC7FE75
:100E680005050346F5FFFD15C2052384C640C1816B
:100E7800D5B78147B736004003C7A6401396070188
:100E880041821377F70F19E33285828003C68640C3
:100E98003307F50085072300C700F9BFB3C7A500CE
:100EA8008D8B3307C50081E78D4763EEC700AA879E
:100EB8006370E50A83C6050085078505A38FD7FEFD
:100EC800E3EAE7FE828093763500AA8791CA83C653
:100ED800050085078505A38FD7FE93F63700FDB774
:100EE8009376C7FF138606FE63F0C70683A3050043
:100EF80083A2450083AF850003AFC50083AE05011B
:100F080003AE450103A3850183A8C5019385450266
:100F180023A0770003A8C5FF23A2570023A4F70145
:100F280023A6E70123A8D70123AAC70123AC67009A
:100F380023AE17019387470223AE07FF75B7904189
:100F48009107910523AEC7FEE3EBD7FEE3E4E7F68E
:100F5800828000000CFCFFFF34FCFFFF5CFCFFFFFD
:100F680074FCFFFF8EFCFFFF9EFCFFFFC6FCFFFF2B
:0C0F7800EEFCFFFF06FDFFFF20FDFFFF69
:0C0F8400000000000B0000000000000056
:00000001FF
