:040000006F10803BC2
:1000040000000000000000006F0080086F00E02284
:1000140000000000000000000000000000000000DC
:1000240000000000000000000000000000000000CC
:100034006F004006000000006F00E00500000000B3
:100044006F0080056F0060056F0040056F0020059C
:100054006F0000056F00E0046F00C00400000000A2
:100064006F0060046F0040046F0020046F00000400
:100074006F00E0236F00C003000000006F00600306
:100084006F0040036F0020036F0000036F00E00265
:1000940001A001A001A001A001A001A001A001A054
:1000A40001A001A001A001A001A001A001A001A044
:1000B40001A001A001A001A001A001A0B717004068
:1000C400130770052380E704130780FA2380E704ED
:1000D4002396A70223800704371700408347270588
:1000E400898BEDDF835707053717004083472705C2
:1000F400898BEDFF3717004083472705898BEDDF98
:10010400035507058280B7170040930670052380C6
:10011400D704130780FA2380E70403C6B7041376D1
:10012400F60DA385C70423800704137605022DC6A4
:1001340003C6A700118A0DE22380D7042380E704B5
:1001440003C7A700136747002385E7009307004B05
:1001540001000100FD17EDFFB7170040930670057D
:100164002380D704130780FA2380E7047D8923942E
:10017400A70001000100010001002380070423807F
:10018400D7042380E7049306100537270040A30310
:10019400D780238007048280137605046DDE03C6AE
:1001A400A700418A0DE22380D7042380E70403C714
:1001B400A700136707012385E7009307007D01006B
:1001C4000100FD17EDFFB71700409306700523806B
:1001D400D704130780FA7D892380E7041365050497
:1001E4002394A700010001000100010023800704FB
:1001F4002380D7042380E704930630053727004083
:1002040079B74111814601468145114506C6B52A93
:10021400B7170040130770052380E704130780FA1B
:100224002380E70403C76704136717002383E704E5
:1002340023800704B2404101828081460146814502
:100244001145A122B7170040930670052380D704F7
:10025400130780FA2380E7047D562396C702238080
:10026400D7042380E70403C76704136717002383B5
:10027400E7042380070401A0BD473305F50201000C
:100284007D1575FD8280411122C426C206C6AA844A
:10029400014463179400B240224492444101828095
:1002A40005041305803E4204C13F4180DDB7B71702
:1002B4000040130700032388E702854723A4F18243
:1002C40073002030411106C6EF008076F5BF23038A
:1002D400048015472303E48001002302A480828064
:1002E40083076480E3CE07FE2303048082808307B0
:1002F4006480E3CE07FE03454480828083076480E4
:10030400E3CE07FE2302A4808280411126C44AC2A0
:100314004EC006C61377F50BAD47AA892E899544BE
:100324006306F70019456537653F8D444E854537AB
:10033400FD59FD1463983401B240A2441249824924
:1003440041018280135509011375F50F453F2209B8
:10035400CDB7011126CC06CEB70408005137154598
:10036400BD37713769372AC6A53F324593771500E3
:1003740089EB136515001375F50FF240E24405612E
:100384008280FD14E9FC0145CDBF397126DC4ADACF
:100394004ED852D656D45AD25ED006DE62CE66CC41
:1003A400B7E700E07D5783AA070022C603AA4700E7
:1003B40023A0E71823A2E718B71700401307700516
:1003C4002380E704130780FA2380E70483C74704E4
:1003D400930B75FFB684E20793FBFB0F8546AA894E
:1003E4002E8B328937240040E187015763FA760166
:1003F4006308D5008946130700026313D50001572B
:10040400D98F93F7F70FB71C00402382FC041147E0
:100414002303E4801305F00F5D3D094CD135636976
:100424007C11B70707003E9B378707007955637E29
:10043400EB02B3079B00636AF702A9476399F906C5
:1004440089E48144713D26850DA0DA850945753D11
:1004540005090345F9FFFD14050B4D3581C4937758
:10046400FB0FFDF7FD3569FD7D55B71700401307F8
:1004740070052380E704130780FA2380E70403C789
:100484004704418B2382E704F250B7E700E023A03E
:10049400571123A24711E25432445259C259325AD5
:1004A400A25A125B825B724CE24C21618280A547A6
:1004B4006395F90685691309F00FB3069900B374BF
:1004C4002B01B6941349F9FFB3749900856B337902
:1004D4006901416B9387F9FFB3F7270199E363FC43
:1004E400340193D94900C147E3E637FF99BF056951
:1004F400C1697D19D9B71305800D63886901130596
:1005040000026384790113051008CA85FD3B913507
:1005140021DD4E99B3843441D9B7DA852D45F533BD
:10052400CA94E30099F20509D933A30FA9FED5BFF4
:100534009387F9FF93F7F70F636CFC0803C75C0418
:10054400B70708001377070219E3B787070079553F
:10055400E37DFBF033079B00E3E9E7F08947639011
:10056400F9048980D549E38E04ECDA850945713BA9
:1005740011090327C9FF91472320E48003076480FE
:10058400E34E07FE23033481FD17EDFBFD14110B2D
:1005940081C49377FB0FE9FF6D3B71F5F1B5854796
:1005A400E387F9F4DA852D458D339389F4FFE38AE3
:1005B40004E8353B93F7390091EB83260480032745
:1005C400090093074900E39FE6E63E89CE84F1BF24
:1005D400B5476396F9001305900BD5399DB5B1471E
:1005E4001305B00AE38BF9FE9947639EF902DA8595
:1005F4002D45213B81448D4BA149D5396396740126
:10060400832704802320F9008504E39834FF83279B
:10061400048013172B01635507002312F90015B545
:100624002322F90039BD9D476399F90281451305D9
:10063400B004E139BD442320090023220900FD59F7
:100644007D3193F77400CA9703C70700FD14398DF1
:100654002380A700E39634FFEDB3A1476392F90426
:10066400CD398144630D0B008D479304C0036308A7
:10067400FB009304000563048B0193044004137589
:10068400C507E30095DC1945993199390545813150
:100694002685AD3109459D316D39E31405DAE9B399
:1006A40091476399F900130560061531153913054F
:1006B400900925B7E38709D8F15469B37D1662061A
:1006C400618693178601E18763D407000145828020
:1006D400931726003307F500AE9718439C4363E74E
:1006E400E7007D16E37FF7FC7D5582800545828017
:1006F400FD15E205E18513978501618793F7F50FF1
:1007040063480700FD15139725002A97584365D7BA
:10071400138517006205618582803308B5021C4287
:1007240083A80600B335B502C29733B50701AE9866
:10073400469585486367B5006394A50063E30701A4
:1007440081480C43C6950CC388C21CC28280814771
:100754001397870161876343B7008280139727004B
:100764002A97232007008507E5B781470147939619
:100774008701E18663C5B60013351700828093961E
:100784002700AA9694428507558FD5B793D755402D
:100794008A07AA979C4305453315B5007D8D828051
:1007A40017D3FFDFE702A34E2A84993705C59317B1
:1007B40025003E940327C4FF814711EB7D151605E0
:1007C4003E954205418517D3FFDF6700834E0583BD
:1007D4008507E5B70145C5BF814713978701618741
:1007E4006343C700828013972700B386E5009442D1
:1007F4002A97850714C3D5B77D166206618601471B
:1008040093178601E18763D50700133517008280AB
:1008140093172600B306F500AE9794429C437D16C9
:10082400B58F5D8FF1BF8A05AA9501476363B50053
:10083400828083A6C5FFF11593D71600D98F9CC17A
:100844001397F601E5B72A8301480147014563433D
:10085400D7008280B387050183A80700B307060188
:100864009C43C697AA976384F80033B5170105071C
:10087400B3080301620723A0F80061871108C1BF10
:100884002A8301478147014563C3D70082803388A7
:10089400E50083280800330EE600032E0E0033889B
:1008A400A8403308C8416384080133B508018507AB
:1008B400B308E300E20723A00801E1871107E9B7C1
:1008C40017D3FFDFE702A33C0111B286B2842E8660
:1008D400AA850A8575372A84A6850A85793533342D
:1008E4008000060413351500018D056117D3FFDF61
:1008F4006700233C17D3FFDFE702E3364111AA89DF
:10090400AE8A328BB68402C202C402C60144131CEE
:100914008401135C8C4163499C02939B1400FD1B6E
:100924000549138CF4FFF15C33048901620461848A
:10093400634D740592478E04CE9423AEF4FE4101B8
:1009440017D3FFDF6700A33513192400B30B2B0162
:10095400014A93172A00D69783A50B008843780091
:10096400340050005D3B050A93178A01E187F11BAF
:10097400E351FCFE92474E9905042320F900A24757
:100984003EC2B24702C63EC459B7131A8901135A6C
:100994008A41131D240093178A01E18763CF9700CE
:1009A40092470A044E941CC0A24705091379F90F13
:1009B4003EC2B24702C63EC485BFB3079A031315AD
:1009C4002A0056950841780034005000050AEA9739
:1009D400DA978C439933C1B709CDB7170040130791
:1009E40070052380E704130780FA2380E704239625
:1009F400A702828019C1814799E982803387F50073
:100A0400834607003307F50085072300D700E397E3
:100A1400C7FEE5B719C1FD5781E98280910503A797
:100A2400C5FF1105232EE5FE7D16E319F6FEF5B785
:100A3400797122D417340000130484FF1C4006D6B5
:100A440026D24AD04ECE91C782979737000023A171
:100A540007FE5C4089CB03D5C184BD3F5C408297CF
:100A640003D5E184953F1C4063990718973700002C
:100A740083C71703858B95C797370000A3820702A6
:100A8400173700000347F701914763FCE70069212A
:100A94009737000083C7F700F9178A07A2979C438A
:100AA40082979737000083C76704918B89C7973073
:100AB40001E0E78080251C4491C382979387818459
:100AC400984317360000034676F43E8997340000B5
:100AD4009384C4F39737000083C747F393961700B2
:100AE400BA9683D60600638006109737000083C742
:100AF400E7F163F2C70886073E9783550700231082
:100B0400070003D5C1842EC6239A0184F135938747
:100B140001869C4317350000034545EF1317250054
:100B2400BA979C43B2458297AA8903D5E1846D356F
:100B34009737000083C787ED1397170083270900B1
:100B440003D541851345F5FFBA9703D707003375DD
:100B54003501598D2390A70083C70400850793F7B7
:100B6400F70F173700002303F7EA1737000003478E
:100B7400F7E963E6E70097370000238907E81C409C
:100B8400ADEF9387818598433E8425CB973700004A
:100B940083C777F191CB9737000083C797F089E734
:100BA400973001E0E78040CC1C4082972A8431C50D
:100BB4009C48AA97173700002322F7E69387C1853C
:100BC4009C4385CF03D5C184013D2285971001E064
:100BD400E780E0392254B25092540259F24903D5C5
:100BE400E1844561D5BB850793F7F70F973600007D
:100BF400238EF6E0E3E0C7EECDBDB250225492540A
:100C04000259F249456182809167B7C600409387D3
:100C1400373023A6F6200F10000097370000938783
:100C2400E7DE884F9387418A9C4331671307373047
:100C3400F053B7071000FD17918F99833A0523A647
:100C4400E6205D8D82804111B7170040985F3AC657
:100C5400945F3247E39CE6FE3245410182804111B4
:100C640006C6D5379736000083C6C6D7858AB1C66F
:100C7400930730333307F502B337F5023983CA07D4
:100C8400D98F17370000130767D8584B0145630302
:100C9400F7023385E740636BF70037653D0889C683
:100CA40037856F0813050590198D3E951737000099
:100CB4002328F7D6B24041018280E5473307F50285
:100CC400B337F5022583DE0765BF411122C41384BF
:100CD400418918404AC006C61C5F26C2138901898F
:100CE4009983858BC1C31C5F97340000938404DB14
:100CF40093F7F7F91CDF9737000083C727DA93F7D8
:100D040007048DC3938741869C43829797370000DD
:100D140023AEA7D883C7040093F7F70B1737000057
:100D2400230EF7D6854717370000A30BF7D683C7E2
:100D3400440093F7070481EF9387418A9C43D84486
:100D4400B8D3930700FC17370000230BF7D483872D
:100D5400640063D90700832709009C431737000008
:100D64002301F7D418401C5F8583858BC9CBF557C5
:100D74001CDF01000100010001000100010001006D
:100D84000100010001000100010001000100010057
:100D94000100010001000100010001000100010047
:100DA4000100010001000100010001000100010037
:100DB4000100010001000100010001000100010027
:100DC4000100010001000100010001000100010017
:100DD4000100010001000100010001000100010007
:100DE40001000100010001000100010001000100F7
:100DF40001009387418A9C4313075004B8CB1840E1
:100E04001C5F9183858B89CFBD571CDF9387418AF3
:100E14009C4323A807048547173700002302F7C81B
:100E240083270900D8430583058B19C7D843759BCD
:100E3400D8C3D843799BD8C3B240224492440249D0
:100E440041018280397106DE16DC1ADA1ED82AD6F0
:100E54002ED432D236D03ACE3ECC42CA46C872C61E
:100E640076C47AC27EC09535F250E2525253C253D0
:100E74003255A255125682567247E2475248C2482A
:100E8400324EA24E124F824F21617300203093875D
:100E9400418A944317370000130747C0BC5289CFD7
:100EA40083472700858B89EB83473700858BFDD7E4
:100EB40097370000238607BE82809387018A9C436C
:100EC40099CB944BD04B9842518F98C294439C47F2
:100ED4009842D98F9CC29387418A9C4337C700406C
:100EE4001306C003A8CB930620039735000093850F
:100EF400E5BA83278720C18393F7F7036369F60074
:100F040083278720C18393F7F70363E6F60083C73B
:100F14004500858BF9DF82809387418A9443173794
:100F240000001307A7B7BC5289CB83470700858B02
:100F340091CB97370000238507B697370000A3812C
:100F440007B6828083471700858BF1DFDDB793876F
:100F5400018A9C4399CB944BD04B9842518F98C2B1
:100F640094439C479842D98F9CC29387418A944367
:100F740037C70040C145A8CA654683278720C18377
:100F840093F7F70363FBF50083278720C18393F767
:100F9400F7036364F600BC52EDF382801387418942
:100FA4001843AA87185F1583058B25EF03451500A1
:100FB40015051377C51F19C6B386E70083C6260037
:100FC4002300D60095C59736000083C686AD93F6F8
:100FD40006040945A1CAB386E70083C63600054660
:100FE40093F5F6066390C504E206E18663CC060237
:100FF4003385E7008347150003470500A20793F7ED
:101004000770D98F1397070141839376074099C6D8
:1010140013670780239EE18801458280239EF1881F
:10102400E5BF054582809386418A8C423685973692
:1010340000009386A6A6984593170701C1831378E9
:1010440017203E86630408041377072079C303C777
:10105400260013671700173800002302E8A41307BB
:101064000019B8D1130700F897350000238AE5A2C8
:10107400138741890C4337080010D855719B1367B7
:101084002700D8D598413367070198C113772610F4
:1010940005C31376061059CE03C70600136717005D
:1010A40017360000230CE69E17370000231C079E0A
:1010B40083C6460093C7F7FFC207E206E186C183F1
:1010C400184163D106029396170163DE0606305376
:1010D4008D4663E9C6008546173600002302D69C78
:1010E4003453FDFE973600009386868E8386460130
:1010F40063DD060093960701C18663DC0604705322
:10110400894663E4C6007453FDFE1447F58F1CC77B
:10111400828003C716001367170097350000A38F5A
:10112400E59617370000230D079617370000231B99
:101134000796A9BF03C736001367170017360000C8
:10114400A30FE69495B7854617360000230AD69474
:1011540051BF54471396060163510602B7061000A7
:10116400FD1674D3973600009386468A944E8506FE
:10117400173600002328D68A49BFA166D58F71B7D8
:10118400397106DE16DC1ADA1ED82AD62ED432D2EB
:1011940036D03ACE3ECC42CA46C872C676C47AC26B
:1011A4007EC05135F250E2525253C2533255A255C9
:1011B400125682567247E2475248C248324EA24EF5
:1011C400124F824F2161730020301737000013073C
:1011D400A78E8346B7019737000083C73791B69728
:1011E40093F7F70FFD4663EAF6044C4B973600007D
:1011F400A384F68C9737000083C7178C05473317F1
:10120400F70097360000A383F68E6D8F1DEF973697
:10121400000083C6F68DB3F6D7021305000281479A
:1012240033D6F500058A13F8F70F09CE6399E60063
:1012340097370000A3820789828081177DB705074D
:101244001377F70F8507E39DA7FC82809387018BB3
:101254009843B75702009387279F8326070913965D
:1012640056006358060083260709139666006344F4
:101274000600FD17FDF3828051C9AA870145C9C93B
:101284008D07C207C183F19BC207C18313074003C3
:10129400636BF7021387418C08431387C18B144394
:1012A4006396A6021727000013078772185B01458F
:1012B40025C34111C20706C60545DD8D0297B2401C
:1012C4000145410182801387018CF9B703576500FA
:1012D40005EF035745006369F702B306F74021465B
:1012E4006370D6021041938687001D8FAA966117FA
:1012F40090C22392E6002393060014C12312F50042
:101304002313B50021058280084159BF014582801D
:10131400828001CD9387418C03A807009387C18BFA
:101324008C430147C28763E3B70082809443636FB1
:10133400F50663EDA60613868700E368C5FE03D5AC
:101344006700216605066317C50003C6F187050615
:10135400A38FC18623930700638407031386018C3C
:101364001042630FF6000356670019EA83D747005B
:1013740014C383564700B697A1072312F700BA8710
:101384009843E304B7FA9386018C9442E30FD7F8A9
:1013940083566700D9FA83D647000356470018439B
:1013A400A106B2962392D70098C382803E87B6875F
:0413B4009DBF0000D9
:1013B800974100209381015417710020130101C443
:1013C80013054000972500209385454317360020D4
:1013D8001306067E63FAC5008322050023A0550084
:1013E80011059105E3EAC5FE17F50100130545034C
:1013F800973500209385057C1386818163FAC500A3
:101408008322050023A0550011059105E3EAC5FED6
:101418001385818197650020938545F86377B5002A
:10142800232005001105E36DB5FE9302800873A023
:101438000230972200209382623C93E2120073905C
:101448005230972200009382E2CF739012347300D7
:101458002030397101436EC619A0397141536AC8E9
:1014680066CA62CC5ECE19A0397101535AD056D2E1
:1014780052D44ED64AD826DA22DC06DE3301614041
:10148800828241114AC026C222C406C68282B24D57
:101498004101024D924C224CB24B4101024B924AFF
:1014A800224AB2494101024992442244B2404101D0
:1014B80082803D432A876373C3029377F700BDEFA9
:1014C800ADE5937606FF3D8ABA960CC34CC30CC7AC
:1014D8004CC74107E36BD7FE11E28280B306C340D5
:1014E8008A069702000096966780A6002307B70031
:1014F800A306B7002306B700A305B7002305B70066
:10150800A304B7002304B700A303B7002303B7005D
:10151800A302B7002302B700A301B7002301B70055
:10152800A300B7002300B700828093F5F50F9396C8
:101538008500D58D93960501D58D61B793962700C3
:101548009702000096968682E78086FA9680C117F1
:101558001D8F3E96E374C3F8A5B73367B500FD53F6
:101568000D8B79E7B7877F7F9387F7F71041944111
:10157800B372F6003363F600BE92B3E2620063977B
:10158800720C6318D6065041D441B372F600336327
:10159800F600BE92B3E262006398720A631BD60437
:1015A80010459445B372F6003363F600BE92B3E279
:1015B80062006391720A631ED6025045D445B37225
:1015C800F6003363F600BE92B3E26200639A7208D3
:1015D8006311D60210499449B372F6003363F600DA
:1015E800BE92B3E26200639372085105D105E30F1E
:1015F800D6F61317060193970601631CF7001357D5
:10160800060193D706013305F7409375F50F91E965
:1016180082804183C1833305F7409375F50F91E1CB
:1016280082801377F70F93F7F70F3305F74082801F
:101638000346050083C60500050585056313D60026
:1016480065FA3305D640828011059105E312D6FE6E
:10165800014582802105A105E31CD6FC0145828055
:101668003105B105E316D6FC014582804105C10567
:10167800E310D6FC01458280B717004003C7770501
:101688001377E70FA38BE704130700F8A38DE7048C
:101698003D47238CE70413075003A38CE70482809B
:1016A800B717004003D587005D715ED642054181BA
:1016B80086C6A2C4A6C2CAC04EDE52DC56DA5AD8C2
:1016C80062D466D26AD06ECE9377050C13070008F1
:1016D800814B6388E71813070004639CE714B72459
:1016E8000D8F7D8993840480B3D4A4029167938776
:1016F80007E8BE94A167938707D0B3D4F402EF80BC
:10170800D10597D70100938767759043D443EF803D
:101718008139EF80714D2A8B939C040103D9818113
:1017280093DC0C0163150900056913090980B717D3
:101738000040130770052380E704130780FA23800D
:10174800E704371A00400547939D0401096C856634
:101758002389E704D14A814E8145130D0A041308F1
:101768007005130680FA894893DD0D01130C0C717E
:101778002943FD1623000D012300CD0023162A035B
:1017880023000D0083472A05898BEDDF83570A055F
:1017980083472A05898BEDFF83472A05898BEDDF6F
:1017A80083570A05239C2181C207C183338597414A
:1017B8009319050193D90941638409163387B9023E
:1017C800635E070C850EC20E93DE0E0163E8D80D2A
:1017D80063D9050A3305B04093150501C185C204D4
:1017E800C18063D7350B0965130505713385A502DB
:1017F800B7170040130770052380E704130780FA22
:101808002380E70423967703238007043345950252
:1018180042054181B640264496440649F259625A27
:10182800D25A425BB25B225C925C025DF24D61610E
:101838008280B1E3B77489097D8993840480B3C435
:10184800A4029167938707E8BE94A167938707D09E
:10185800B3C4F402EF80617097D701009387876063
:101868006DB597D701009387275F856403AB0700A1
:101878009384843855B5130B0000954471BD3A899B
:10188800D5BDB387FC409399070193D9094181BF1E
:101898000965130505713385A9028DBF3385B741E5
:1018A80063E4FC003385FD40330585033344B50309
:1018B8006345830013150401A9BF4E8536C642C48B
:1018C80032C2EF801126DA85EF808176EF80511FD2
:1018D800931E050193DE0E41B307D941C207C183A8
:1018E800056E3E871246224889482943B24663E37B
:1018F800C701368742074183631A27011307190076
:10190800634430011307F9FF42074183FD1A93FA34
:10191800FA0FCA8BCE85E3940AF6239CE18059BF5F
:101928000145CDBDB717004003D587005D7186C658
:1019380042054181A2C4A6C2CAC04EDE52DC56DAB4
:101948005AD85ED662D466D26AD06ECE02C6937773
:10195800050C13070008638BE71413070004639F43
:10196800E710B7240D8F7D8993840480B3D4A40233
:101978009167938707E8BE94A167938707D0B3D48C
:10198800F402EF80815D97D701009387274D90433C
:10199800D443EF804111EF8031252A89939A0401BD
:1019A80003DBA18193DA0A0163150B00056B130BA6
:1019B8000B80B7170040130770052380E70413074F
:1019C80080FA2380E704939B040105478969056A27
:1019D8002389E704D14D014D814C93DB0B01938999
:1019E80009717D1A5A8597200020E780E0EC330CB6
:1019F8005541420C135C0C41239D618163010C1617
:101A0800B3079C0363D1070E050D420D135D0D014D
:101A1800894763EAA70D63DB0C0A33059041931CE1
:101A2800050193DC0C41C204C18063D88C0B0965A5
:101A3800130505713385AC02B7170040130770050D
:101A48002380E704130780FA2380E70432472396AC
:101A5800E702238007043345950242054181B640D9
:101A6800264496440649F259625AD25A425BB25BFE
:101A7800225C925C025DF24D61618280B1E3B774D1
:101A880089097D8993840480B3C4A40291679387EC
:101A980007E8BE94A167938707D0B3C4F402EF8028
:101AA800C14B97D701009387E73BD5B597D701007E
:101AB8009387873A856403A9070093848438F9BD1E
:101AC800130900009544D9BD3E8B29BF3385AA4030
:101AD800131C0501135C0C41B9B7096513050571A1
:101AE8003305AC028DBF63FEAA003305754133058B
:101AF8003503A9473344750363C8870013150401E8
:101B0800B1BF3385AB40E5B76285EF809101CA85E7
:101B1800EF800152EF80C17A131D0501135D0D415D
:101B28003307AB41420741838565BA876363B700D2
:101B3800D287C207C183639A670193071B00634476
:101B480080019307FBFFC207C183FD1D93FDFD0FB5
:101B58005AC6E28CE39A0DF6239DF18045B70145FC
:101B6800FDBD41112A83014E930E407E130F0019CB
:101B7800930F400663EB6E0A93080019130340069F
:101B8800B3781503854E0D4FA14F337365020D8948
:101B98001335150063E5BE0C1308F6FF79467298F5
:101BA8004208135808013307C70213D61700BE07A7
:101BB80032976146B3F6C60213068070B386C60232
:101BC8003697A166F58F42075D8FB717004083C629
:101BD800F70293F60608A307D1000346F10083C66F
:101BE800F70293F60608E394C6FE8346F10093F6DF
:101BF800F60FF1DE930670052380D704930680FA6A
:101C08002380D70423AA070383C6170393E606088D
:101C1800A388D702D8DB03C7170313670704A38871
:101C2800E70223800704410182807D133368E303C0
:101C38009308E016630E08003368F3039308D01680
:101C4800630808009378330093B818009388D8166F
:101C580033081E01131E0801135E0E0121BF639392
:101C6800E5030548638608000148630303002A88E2
:101C780071087298FD15131E0801C205135E0E0146
:101C8800C18109BF13F8150063F4BF007908D5B7FF
:101C980013381800E5BF914763EEB70217D7010064
:101CA8001307C71C8A05BA959C41BA978287B7174C
:101CB800004003A7470B1345F5FF698F23AAE70ADE
:101CC80003A7070B698F23A8E70A03A7070A798DDB
:101CD80023A0A70A8280B717004083A6470B1347A3
:101CE800F5FFF98E23AAD70A83A6070B558D23A8DB
:101CF800A70A83A6070A758F23A0E70A8280B71769
:101D0800004003A7470B498F23AAE70A03A7070B3D
:101D18001345F5FF45BFB717004083A6470B134788
:101D2800F5FF758F23AAE70A03A7070A598D4DB750
:101D3800B717004003A7470B498FEDB7B717004007
:101D480003D58700420541819377050491EB93778A
:101D5800F5013755E801130505803345F502828002
:101D68009377050C130700046397E7009377F50151
:101D780037459C1CCDB72165130505D08280B7F780
:101D880000E0C8439C478280814737370040A1461E
:101D980063C4C700328582800345B740E38EA6FE40
:101DA8003385F5000345050085072304A740CDB713
:101DB800411122C406C62A8451372947B307E502D0
:101DC800B2408D83B3D7870222449507B3D7E70281
:101DD80037370040C207C1832316F740410182808C
:101DE800716541111305052006C6D937B73700407C
:101DF800130770F82381E7400D47A381E7401307D5
:101E08000004A380E74005472387E740B24041012B
:101E18008280238E018023A00182B717004003A788
:101E2800070CB706C0FFFD16758F23A0E70C03A7A4
:101E3800070DB7064000558F23A8E70C03A7070C2A
:101E48003D9B23A0E70C03A7070D1367070123A8F1
:101E5800E70C828023A0A18213064006894503C5AA
:101E680041826F301120B717004003A5470C83A7A4
:101E7800470C598113451500C18B058999E31365F2
:101E8800250083C7C181638CA700238EA18001C967
:101E98009387018203A30700630303000283828000
:101EA800411106C6EFF0CFFFBD4763F4A700EFF07E
:101EB8002FFF8D3CBD4763F3A700AD34B24083D5F7
:101EC800A18103D5818141016F3051284111939639
:101ED8002500AA852D4506C697200020E780A0CAC0
:101EE800B240014541018280411126C293942500E8
:101EF80022C44AC02A843289A686AA850146254575
:101F080006C697200020E78000C8A6864A86A285D4
:101F1800294597200020E78000C7B2402244924418
:101F28000249014541018280011122CC06CE3714B5
:101F3800004026CA4AC84EC652C483447405034AA0
:101F4800B4058349840503499405EFF0EFF283470C
:101F5800A40593F4F40F137AFA0F93E71700230DEF
:101F6800F40493F9F90F1379F90FB717004003C771
:101F7800A705058B6DFF03D5C705A38D4705238CE2
:101F88003705A38C2705A38B9704F2406244D244FB
:101F98004249B249224A056182804111939705015D
:101FA80022C406C6C1872E8463DA0700EF30A13D3C
:101FB80019C1EF30A1362165218D1DA093F71500B9
:101FC80013C5150091EF93F7250099CF693D1306C6
:101FD800000A894503C54182EF30B1081345240042
:101FE800B2402244410182809397250163D00702C1
:101FF800EF502118753537F60200130606E089659B
:1020080003C54182EF30F10509657DB79397150146
:102018000145E3D707FC17D501001305E5EAEF9062
:10202800811C13060064916503C54182EF3071037A
:10203800116559B71D71494697D50100938545E447
:1020480017E50100130585EB86CEA2CCEF30216899
:1020580001E917D501001305E5E3EF90C11801A0C8
:1020680037F700E0F9575CC7FD571CCB0564B7E7A5
:1020780000E023A087109306701014C3B843C1462C
:10208800B4C323A08718B8C3010001001306C00316
:1020980081454808EF30816297470020938707BD44
:1020A8003ECAED47A301F1029307A0102312F102E3
:1020B800D1472303F102A167938707E03ECE970734
:1020C80000009387E7E0BEC497070000938707E204
:1020D800BEC685472304F102B5472308F1029707D6
:1020E8000000938707CA3EDAB7F507009707000094
:1020F8009387C7E33EDE814697070000938787DA18
:102108007000E1051945BEC0231C810097200020FE
:10211800E78060A758088147994670003E960346B5
:10212800060085070507A30AC700E398D7FED2472C
:1021380091C70357810185676373F70001A04808B9
:10214800EF309116AA8501C917D501001305C5D529
:10215800EF80B17401A0F640664425618280411188
:10216800170500001305A5E306C622C4EF30511079
:10217800138441822300A4003128613903450400F7
:102188002244B24037F60200130606E08965410191
:102198006F30216D411106C622C4930670053714AD
:1021A80000402300D404130780FA2300E404834783
:1021B800F40293F7A70FA307F4022300D404230023
:1021C800E4048347F40293E72700A307F402C9391C
:1021D8001305407E230004048147014781460546D4
:1021E800854541322244B240014541016F303132C8
:1021F800138741218147BA852D468356070089CE2A
:10220800139547002E9554411398360063460800ED
:10221800139826006357080085074107E39FC7FC0A
:102228000145828093864121814736872D4683D593
:1022380006006396A50092073305F700828085079C
:10224800C106E396C7FE01458280D8414111A167C6
:1022580022C406C626C29386B7012A846306D70815
:102268009387D7036305F7044DEF97D5010093854E
:1022780025D017D50100130525FAEF80116217D56F
:102288000100130525FBEF8051612945EF80116599
:10229800835764007D77F98F93E757002313F40081
:1022A80089471CC4B240224492444101828097D598
:1022B80001009385E5CB17D501001305E5F5EF80FF
:1022C800D15D17D501001305A5F8EF80115D2945EB
:1022D800EF80D160835764007D77F98F93E75700CB
:1022E8002313F4008D4775BF97D50100938545C822
:1022F80017D50100130545F2EF80315A17D50100B3
:102308001305C5F6EF8071592945EF80315D835774
:1023180064007D77F98F93E757002313F400914702
:1023280049B7AE8417D50100130505EF97D501000D
:10233800938505C4EF807156CC4017D5010013056D
:1023480025F5EF8091552244B24092442945410138
:102358006F80D158411197D50100938565BD17D578
:102368000100130565EB06C6EF803153B2402945DD
:1023780041016F80B156411122C497D50100938560
:10238800A5C42A8417D50100130505E906C6EF8000
:10239800D1502945EF8091545840A16793879704FD
:1023A800631BF70403D5618369C1EFF0400C03D5C3
:1023B80061838D3D835765007D777D17F98F2324D1
:1023C8000500231005002313F50097D50100938518
:1023D800A5BF17D50100130525E4EF80114C17D5CB
:1023E8000100130565D6EF80514B2244B2402945C0
:1023F80041016F80B14EED3B05E197D50100938512
:10240800A5BC17D50100130525E1EF80114917D5A3
:1024180001001305A5D4C1BF834604001307F00FBC
:102428006390E60497D50100938505BA17D5010096
:10243800130585DEEF8071464C4017D50100130562
:10244800A5D3EF8091452945EF8051492244B240F8
:1024580003C5C1821306803E854541016F30614046
:102468005C45A2859C438297D5B7B240224441017E
:102478008280411122C406C6834705002A849DC371
:1024880097D50100938585B517D501001305C5D8E3
:10249800EF80B1404C4017D501001305A5F2EF803D
:1024A800D13F51A05841B707CF009387777D631874
:1024B800F70C97D50100938565B217D50100130570
:1024C800A5D5EF80913D0356E4000C4417D50100D3
:1024D8001305C5F0EF80713C2945EF803140035664
:1024E800C4000C441385012097200020E78040D0C9
:1024F80003C70120930720086317F70E0357C4008A
:1025080085476308F70297D50100938525AD17D550
:102518000100130565D0EF80513817D50100130568
:1025280065EDEF8091372244B240294541016F8023
:10253800F13A914503C5C182EF30A13B0355E40050
:10254800EFE0F0720355E400F139835765007D77B9
:102558007D17F98F23240500231005002313F500A8
:1025680097D50100938585A717D501001305C5CA1E
:10257800EF80B13217D50100130585E95DB7B707BC
:10258800CE009387777D631AF70297D5010093856C
:10259800E5A417D50100130525C8EF8011301C44A8
:1025A8008356E4008355C40003C6070017D501000D
:1025B800130585E7EF80712EBDB7B707CC00938769
:1025C800777D6302F70297D50100938525A117D57A
:1025D8000100130565C4EF80512C4C4017D501004C
:1025E8001305C5E66DBDB2402244410182803971B0
:1025F80026DA4AD84ED6AE84AA89328981457146F0
:10260800480006DE22DCEFE0DFEA05442313810000
:1026180023143101EF00707C930700192305A100F2
:102628003EC64A86FD57A6854800A3058100230AB1
:10263800F100EF00107DF2506254D2544259B25961
:1026480021618280797122D406D626D24AD04ECE14
:1026580093F715002E8463880712593EAA841DE556
:1026680097D501009385458E17D501001305C5BA86
:10267800EF80B12217D50100130545AEEF80F12197
:102688002945EF80B12513441400E9A003576500DC
:102698008567FD177D8FB306F700FD8E83576500AC
:1026A8007D76F18FD58F2313F5004DEF97D5010077
:1026B8009385858917D50100130505B6EF80F11DAF
:1026C80017D5010013058580EF80311D2945EF805E
:1026D800F12003D50400EFE0905903D504009936A2
:1026E800835765007D777D17F98F2313F500232421
:1026F80005002310050097D501009385E58417D5BB
:102708000100130565B1EF80511917D501001305B4
:1027180025D0EF8091182945EF80511C138641215F
:10272800814632850548AD4583570600A1CB1397EE
:1027380046002A975C439394370063C10404F583E9
:10274800858B639D070383576700F976FD16F58F20
:102758002313F7002285B250225492540259F249A9
:10276800456182805C45DC438297E30E05F083D7A0
:1027780064000567D98F2393F4004DB78506410699
:10278800E394B6FA09B793F72500C5CB83D741225E
:10279800C9C3254697C501009385C5784800814976
:1027A800EF70F16485441389412193974400CA97D7
:1027B80003D5070035E9FD1497D501009385C58534
:1027C80017D50100130545A59204EF80110DCA9491
:1027D80083D5040017C501001305C570EF80F10B00
:1027E8002945EF80B10F6386090297D501009385CB
:1027F800A58217D50100130525A2EF80110ACE8501
:1028080017C501001305C56FEF8031092945EF8011
:10281800F10C096613060690894503C5C182EF309D
:102828004104134424003DB725464C00C9338504B0
:102838009379F50F93F4F40F8DBF93F745009DC777
:1028480097C501009385457D17D501001305C59CE3
:10285800EF80B10417C501001305856BEF80F10304
:102868002945EF80B10713444400EDB50144DDB5B7
:102878001C45411106C622C426C209476382E706E1
:102888000D476382E70A0544639187028355050073
:102898000355450017D70100130787AD8546014644
:1028A800EF30703EAA8401E901442285B2402244F7
:1028B80092444101828097C501009385E56C17D544
:1028C800010013056595EF80417DA68517D50100A8
:1028D8001305859DEF80617C2945EF803100F1B7B4
:1028E80003560500035545009307707D014785464B
:1028F800B285EF30903A2A8445D997C5010093856F
:10290800A56817D5010013052591EF800179A285E7
:1029180017D501001305059CEF8021782945EF8024
:10292800E17B054459B70356050003554500930755
:10293800707D0147B166B285EF30D0372A842DD536
:1029480097C501009385456417D501001305C58C0B
:10295800EF80A174A28517D501001305259A6DBFD4
:10296800D841411122C406C626C22A841DCFA167B8
:102978009387D703630DF706AE8417D501001305B7
:10298800A58997C501009385655FEF800171CC40EB
:1029980017D501001305C58FEF8021702244B2407E
:1029A8009244294541016F80617397C50100938561
:1029B800E55C17D5010013052586EF80016E17C564
:1029C80001001305E57FEF80416D2945EF80017116
:1029D800835764007D77F98F93E717002313F4007A
:1029E80089471CC4B240224492444101828097C561
:1029F80001009385A55817D501001305E581EF80DF
:102A0800C16917C501001305657DEF800169294576
:102A1800EF80C16C835764007D77F98F93E71700C7
:102A28002313F400914775BF411122C406C62A84B6
:102A3800138541210DE02A8781472D4883580700D7
:102A4800639F0806139447002A942312B4002310A6
:102A5800C4002311D400138741218147AD45835613
:102A6800070099CE630ED60093964700AA96D442E3
:102A78001398360063460800139826006359080621
:102A880085074107E39DB7FC81471397D700835714
:102A98006400F976FD16F58FD98F2313F400139788
:102AA80027016349070013060064854503C5C182F1
:102AB800EF20315B2285B2402244410182808507A4
:102AC8004107E39D07F797C501009385254917C579
:102AD800010013056574EF80415C17C501001305FB
:102AE800A571EF80815B2945EF80415FE1B785479C
:102AF80069BF411122C44AC02E842A8997C50100A2
:102B08009385054A17C501001305057106C626C237
:102B1800EF80A1582945EF80615C0545EFE030431F
:102B280015C5AA8497C501009385854717C5010077
:102B38001305856EEF806156A68517C5010013053C
:102B4800257FEF8081552945EF8041592285EFF097
:102B58006FED19C583576500139737016341070661
:102B680085462286CA85C9350DE997C50100938532
:102B7800254317C501001305256AEF80015217C5C3
:102B880001001305257DEF8041512244B240924453
:102B98000249294541016F80615497E701009387F5
:102BA800A7855CC503C781838357650019CF7D77E7
:102BB800F98F93E717002313F50085471CC5B2402A
:102BC800224492440249410182807D77F98F93E73C
:102BD80017002313F5009147D5B7011122CC26CA57
:102BE8002E84AA8497C501009385453D17C5010029
:102BF8001305856206CE32C6EF80214A2945EF804B
:102C0800E14D2285EFF00FE2B24619C58357650002
:102C180013973701634F07042286A685313505E9E6
:102C280097C501009385853917C501001305C55E51
:102C3800EF80A14617C501001305C571EF80E14576
:102C48006244F240D244294505616F80214997D7F3
:102C580001009387E77A5CC503C7818383576500C2
:102C680011CF7D77F98F93E757002313F500854738
:102C78001CC5F2406244D244056182807D77F98F99
:102C880093E757002313F5009147DDB7411122C49C
:102C980097C50100938585362A8417C50100130559
:102CA800A55706C6EF80613FA28517D50100130519
:102CB800E592EF80813E2945EF80414283D741224A
:102CC800D1CF97C501009385653317C5010013055A
:102CD800A554EF80813C83D5412217C50100130517
:102CE800254BEF80813B2945EF80413F930720FA30
:102CF80003D541222380F120A380A120935785008A
:102D08000D46938501202381F120EFF05F8E9377A4
:102D1800F50F2A848DCB97C501009385252E17C5FD
:102D280001001305654FEF8041379375F40F17C500
:102D380001001305E546EF8041362244B24029459B
:102D480041016F80A1392244B240056603C5C182A2
:102D58001306062C914541016F20B130B240224440
:102D6800410182801C45411106C622C4054763877C
:102D7800E7000947638CE704054505A0835505006E
:102D88000355450017C701001307875E85460146AE
:102D9800EF30606F2A8411E50145B24022444101B9
:102DA800828097C501009385E51E17C501001305AC
:102DB800A546EF80812EA28517C501001305C54ED3
:102DC800EF80A12D2945EF8061317DB703560500BD
:102DD800035545009307707D05478546B285EF305A
:102DE800C06B2A8455D997C501009385A51A17C5C4
:102DF800010013056542EF80412AA28517C501002D
:102E08001305454D75BF411122C417C501001305AF
:102E1800A5402E8497C501009385451206C6EF800C
:102E2800C127A28517C501001305C538EF80E12623
:102E38002945EF80A12A95476319F4002244B2403E
:102E48008545054541016FE070142244B2400545AF
:102E580041016FE0D00F411122C426C22A84AE84FA
:102E680017C501001305453B97C501009385451417
:102E780006C6EF80812229450588EF80212629C0D2
:102E88009546014681452685EF10B0742A840DC900
:102E980097C501009385C51117C501001305C537EE
:102EA800EF80A11FA28517C501001305654FEF80AC
:102EB800C11E2244B2409244294541016F8001223B
:102EC800B24022449244410182800111354697C59F
:102ED80001009385251B17D501001305E58006CE53
:102EE80022CCEF20C17E01E917C50100130585FA40
:102EF800EF80612F01A0972700209387E72C3EC41D
:102F0800B7F5070085679387C792814613860183C3
:102F1800E10519453EC697100020E780C0C619464E
:102F2800938501831385C12D97100020E780402CDD
:102F380034001386018397C501009385255417C56E
:102F4800010013052555EF10B0432A840DC997C514
:102F580001009385650B17C501001305E52BEF806C
:102F6800C113A28517C501001305C512EF80E11230
:102F78002945EF80A116F240624405618280EF7016
:102F8800706817C501001305650AEF007064938720
:102F980041211387412C23A4070023900700C10770
:102FA800E39BE7FEEF40D072EFE0A0751725002005
:102FB800130505D3EFE0605917C50100130505088F
:102FC800EFE0E0752A84EF10C03CEFA02013EF007B
:102FD800B11AEF208056EF109017EFC0007097C518
:102FE80001009385650217C501001305E52209C88C
:102FF800EF80A10AA28517C501001305E50BBDB72F
:10300800EF80A10917C501001305450DEF80E10800
:103018002945EF80A10CEFC0A0528547238CF1828F
:10302800EF80307E29C597C501009385E5FD17C55A
:1030380001001305651EEF80410617C50100130541
:10304800650BEF8081052945EF80410997C501008F
:10305800938585FB17C501001305051CEF80E10367
:1030680017C501001305050DEF80210311B797C798
:1030780001009387E730054781460146814517C51A
:1030880001001305E530EF10105B2A8461D197C564
:103098000100938565F717C501001305E517EF7063
:1030A800D17FA28517C5010013050507C1B54111D8
:1030B80017F5FFFF1305455906C622C4EF20511B1B
:1030C8001384C1822300A40017250020130585C39B
:1030D800EF00D008DD3BEFE0DFD317050000130554
:1030E80025BBEFE03FD7034504002244B240056604
:1030F8001306062C894541016F20A176011135463A
:1031080097C50100938505F817C501001305C55D2E
:1031180006CEEF20C15B01E917C501001305853410
:10312800EF80610C01A0EF5041242AC6EF00D14680
:10313800EF001126EF70C01CF24032450561828015
:1031480041111305800406C697000020E780607BC4
:10315800371700408327870A8D451305002093E71A
:1031680007202324F70AEFE01FB3EFE07FC717D546
:1031780001001305A5D8EF80010717C50100130545
:10318800A556EF804106EFE0FFEAEFE05FFDBD37AF
:10319800393F97100020E780A092014582804111B5
:1031A800B2862E86AA852D4506C697100020E78090
:1031B800809DB240014541018280AE860146AA85C4
:1031C8002545171300206700039C9307000463E656
:1031D800C7021D71A2CC2A84080886CE32C6EF70B9
:1031E8000141B2461008A285294597100020E780C2
:1031F8008099F6406644256182803955828093879C
:10320800C18318429C4383D645000345070083C504
:10321800C700035646006396A50083D5E700638D73
:10322800D502011106CE2386A7002397D700B7053C
:10323800CF00DC4B9385757D05077D162EC22300D4
:1032480001003AC42316C1002317D10099C30A8587
:103258008297F2400561828082806D713C083EC68B
:10326800B707E500232291103EC8AA843C0832859E
:10327800232611103ECA23248110232021112E89D0
:10328800EF20404B2A8497C501009385652417C514
:103298000100130565F8EF705160A28517C501009C
:1032A80013058530EF70715F2945EF703163B705FD
:1032B800CD009385757D6800EF00302BA2856800EE
:1032C800EF20E03C014781467000CA852685EF0063
:1032D800104A15C52A8497C501009385651F17C52F
:1032E8000100130565F3EF70515BA28517C5010056
:1032F8001305452CEF70715A2945EF70315E832014
:10330800C110032481108324411003290110516145
:103318008280797122D452CC2E842A8A97C50100E2
:103328009385851C17C50100130505EF06D626D21F
:103338004AD004424ECE328983594600EF70F15587
:103348000357240083068400035664008355440011
:1033580017C501001305852BEF7031542945EF700F
:10336800F1579387C1839C4303C7040083C60701B1
:103378006398E6000356440083D6E700630AD60242
:103388002388E700835644003707CE001307777D6C
:103398002397D700DC4B8504FD193AC223000100AE
:1033A80026C4231631012317D10099C30A858297B1
:1033B8004A86A28552855535B250225492540259F4
:1033C800F249624A456182806D713C083EC0B70788
:1033D800E5003EC23C083EC4232611102324811078
:1033E800232291102317010023180100231901003B
:1033F800231A0100231B01009727002083D78792F7
:1034080099E3C167FD172316F1009727002083D79A
:10341800879181EB9387C1839C439C43DC4783D787
:103428000700172400201304E48F584C2317F100D9
:1034380083574400484B2318F10005ED97C5010058
:103448009385850F17C50100130505DDEF70F1445D
:1034580017C5010013054512EF7031442945EF7077
:10346800F1478320C1100324811083244110516146
:1034780082809727002083C7578B99E7EF10116A3E
:103488005C4C23AA0700F1BFFD1797260020A38EE6
:10349800F68803560701834704014C470A85230B26
:1034A800F100EF20E01C9387C1839C4301478146CC
:1034B80088430A866C00EF00902BAA8405C997C53B
:1034C80001009385650717C501001305E5D4EF7062
:1034D800D13CA68517C501001305C50AEF70F13B5D
:1034E8002945EF70B13F5C4CC84B49BF9727002076
:1034F80083C7B783EDDB1044854503C50184EF20FE
:10350800413685B7411122C426C22E84AA8497C5A4
:1035180001009385650417C501001305E5CF06C6AC
:10352800EF70B137A68517C5010013056515EF7053
:10353800D1362945EF70913A5C4CDC4B99CB10445D
:103548002244B240924403C50184914541016F2051
:103558004131B24022449244410182805C4EDC4BAE
:10356800A1C7B9C1411122C417C501001305C5CAB5
:103578002E8497C50100938565FD06C6EF70F1316D
:10358800A28517C501001305E510EF701131294513
:10359800EF70D1342244B24003C5018413064006BB
:1035A800914541016F20E12B8280411122C41714FB
:1035B8000020130424791C4C06C689C7DC4399C330
:1035C8004C4882975C4CC84BEF1051555C4CB2404C
:1035D800224423AA070041018280138791838347ED
:1035E8000700850793F7F70F93968701E18663C76E
:1035F8000600A38CF182034507008280A38C018218
:10360800DDBF83574500638D070C01114AC81719A0
:1036180000201309297152C4032AC90106CE22CCFD
:1036280003274A0126CA4EC6F15729EB1307D00DC6
:10363800FD576365C7042A84130586004205418146
:10364800B284AE89EF105150232AAA000325C9017C
:103658005C4995EF97C50100938505EC17C50100F6
:10366800130585BBEF70712317C50100130505FD10
:10367800EF70B1222945EF707126DD57F2406244A0
:10368800D2444249B249224A3E85056182809387E5
:103698004400B705CF002319F5009385757D3105E2
:1036A800EF00A06C0325C901834564003105EF10C4
:1036B800107E0325C9012686CE853105EF10507B83
:1036C8007146A2854A85EF609172504401CA8545CA
:1036D80003C50184EF20E11881474DB7F531EDBFEF
:1036E800FD573E858280411122C41714002013041F
:1036F80064635C4C06C6C84BEF1051425C4C2244D4
:10370800B24023AA070003C50184854541016F2003
:10371800411E1387C1831C43BDCB411126C2BA8405
:10372800D84306C622C439CF2300B50058C123A404
:10373800070023A20700971700209387A760DC4F94
:103748002A84DC4B99C329558D3597170020938718
:10375800675DDC4FDC4B91C37937894503C501842C
:10376800EF202119914503C50184EF2081189C4061
:1037780003A347016308030022852244B240924410
:1037880041010283B24022449244410182808280F6
:103798000111328506CE22CC26CA2E84EF109079EC
:1037A800AA8497C501009385A5D517C501001305FF
:1037B800A5A6EF70910E0307840003566400835595
:1037C8004400A68617C50100130585E1EF70F10CCA
:1037D8002945EF70B1109717002083C707576397E3
:1037E80097000145D93381450A852537F24062445F
:1037F800D244056182806D71232481102326111023
:103808002322911093F715002E8489CFEFF0DFBBA8
:10381800134514008320C110032481108324411010
:103828005161828093F7250099CF41468145280848
:10383800EF10D1682555953B28089305F00FD13D29
:1038480013452400C1BF93F745000145E1D73C0863
:103858003EC0B707E5003EC23C083EC4231701003E
:103868002318010023190100231A0100231B01005A
:103878009717002083D7074D99E3C167FD172316D3
:10388800F1009717002083D7074C81EB9387C183FA
:103898009C439C43DC4783D7070017170020130776
:1038A800674A2317F100544F835747002318F10044
:1038B800DC4A9DE797C501009385C5CA17C5010075
:1038C80013058595EF70617D17C501001305C5CAFD
:1038D800EF70A17C2945EF707100134544001DBFAE
:1038E8009717002083C777462555B5C7FD171716C4
:1038F8000020A30CF64403D6060183470701CC46F3
:103908000A85230BF100EF10B0569387C1839C43BF
:10391800171700201307074397D601009386C6AEF2
:1039280088430A866C00A125AA8445D997C5010059
:10393800938545C317C501001305058EEF70E17522
:10394800A68517C501001305E5C3EF700175294564
:10395800EF70C1782685EFF05FC541B75C4D411126
:1039680006C688C317050000130525E923AEF182B2
:10397800EF200110B2402380A184014541018280DB
:10398800EFD29FAE2A8408452E89B28909C900C1A1
:10399800970500009385C5736105EF00C110814448
:1039A8007D5AEF10000463C3A4048144EF1060043F
:1039B80063C6A404973700209387C72E9C43DC472F
:1039C800B307F94091872302F40063810904832730
:1039D800C900B307F4409587A302F4001C4C89C7BB
:1039E8009C4799C3228582976FD05FAB5C4413973D
:1039F80014008504BA972390470165B71C481397AC
:103A080014008504BA97239007004DB783278900CF
:103A18000547B307F4409587A302F40083570400D1
:103A2800638EE7028DC309476384E7040D47E39774
:103A3800E7FA97C701009387E7191CCC97C70100DD
:103A48009387471A11A897C70100938727E01CCCD2
:103A580097C70100938787E05CC849B797C70100FB
:103A68009387C7CB1CCC97C70100938727CCEDB7AA
:103A780097C701009387C71A1CCC97C70100938783
:103A8800271BD9BF85E1EFD2DF9F00461844834743
:103A9800940075839D8B6315F700EF00B01948C437
:103AA8006FD07FA08280EFD23F9C13893500C1641C
:103AB80042094111AA890144F11413590901054A1F
:103AC8002EC6EF001072B2456346A40001454101BD
:103AD8006FD0DF9C83A7090013171400BA9783D708
:103AE80007006388B7006394970063742A0105048C
:103AF800C1BF0545E9BFEFD25F96AA892E89328BEF
:103B0800B6843A8ABE8AEF80C04F4DC12685EF1031
:103B180010328D4763E5A7007D556FD09F9783DBF3
:103B28004400EF0010722A84EF00F07293077400CB
:103B380031443305850263C5A702EF009070EF009A
:103B480050702A84EF0030719307740031443305B4
:103B5800850263CDA702EF00D06E9307450019A830
:103B6800EF00706F330585021307F0179307C0172E
:103B7800E357A7FC2D55E3C277FB63000B02D686FB
:103B88005286A6854A85EFE0707541BFEF00B06C9C
:103B9800330585029307C5FFF1BF832749001385C5
:103BA800C90083D52700013779F9BDB76955B5B77D
:103BB80097370020239AA70E973700209387870E00
:103BC800904381470C463307F500420741836393CE
:103BD800B70082805446139847008507C296239001
:103BE800E600D5B7973700209387C70B9C4303C5DA
:103BF80087008280173500200355050B8280EFD29D
:103C08005F88C1671387D7FF6307E5026368A7006A
:103C1800F117630EF50001456FD0FF881387E7FFA2
:103C2800630EE500FD171D8D13351500F5B7EF4040
:103C3800A0627D15D5BFEF402040E5BFEF40803E34
:103C4800CDBFEFD21F844111AA8401442EC6EF00D4
:103C5800505AB2456346A400014541016FD0BF8464
:103C68009C48131514003E9583570500E387B7FE5B
:103C78000504E9BF03485500814693F7F60F63E54D
:103C8800070181473E858280584593975600BA9729
:103C980003D727006316B70003D70700E304C7FE5E
:103CA8008506E1BF8346450001479377F70F63E434
:103CB800D700814711A81C45131657000507B2976E
:103CC80003D60700E313B6FE3E858280EFD2CFF914
:103CD80093170501C187973A0020938AAAFC63537A
:103CE800F00883A70A00C0479C4703570400198DB2
:103CF800420541816366F500014422856FD00FFAC1
:103D080012052A94DDBFDC4713944900014A3E940A
:103D1800834744006341FA02014A834754006346DB
:103D2800FA028509C20993D9090183A70A009847AD
:103D3800E3EBE9FCD1B71C4413195A00A6853E9958
:103D48004A85013709ED050AE1B75C4413195A00A1
:103D5800A6853E994A85F53519E1050A7DBFE30236
:103D680009FC61BFAA848149C9B7EFD28FF11C450C
:103D78002A8481E79307C5001CC51C44231204004C
:103D88001CC09307F00F63E9B70093F5F50F228580
:103D9800EF10F00F6FD02FF193940501C167C18028
:103DA80063F7F500A6852285EF101012E5B7C181EB
:103DB80093F5F50F2285EF10900DA6852285EF105B
:103DC800500EC9BF973700209387C7ED884382807C
:103DD8001C4599C79737002023A6A7EC0145828088
:103DE8007D558280973700209387C7EB9843834798
:103DF8004500484792073E958280EFD28FE861716F
:103E080000451C183EC6B70780013EC81C183ECAAC
:103E18008357440002CE02D002CC231EF100834710
:103E280084002A8902D22301F1023C083ED402D63A
:103E3800553F835705002316F102EF406011230711
:103E4800A1025C4003556400F18313F71700834710
:103E5800F10252055181F99BD98FA307F102EFE0D6
:103E6800503939C5AA8403550500EF80601A83D7F5
:103E780004002AD26800231CF10083D72400231DE4
:103E8800F1001C4803D647008C43EF10607E83473F
:103E9800B400CA8617C601001306C6818117A30598
:103EA800F4006C004810EFE070435D616FD0AFDF45
:103EB8002155E5BF1C45B1CF03C5A7008946135757
:103EC8006500630BD7028D46630ED70285466300F3
:103ED800D702130740063305E50203C7B700418B35
:103EE80015CB83C7B700BD8B3355F540828013755A
:103EF800F5031307803EC5B709671375F503130764
:103F08000771D1BF372709001375F5031307077C1D
:103F1800D9B701458280EFD2CFD603A985006304C3
:103F280009048347B900AE8493F7070E91CF034580
:103F38009900930520030D810505B305B502884452
:103F48006105EFF0304205A02E85AD372A8401CDFA
:103F5800D5218325C900B307B54063F887002E949F
:103F6800B305A440E9FD6FD00FD48545C9BFEFD292
:103F78004FD12A8403D50500011132C636C43AC28E
:103F88002EC002CA02CC02CEEF80800882452ACA1F
:103F980022852ECC813D03570500231EE100EF301A
:103FA800307BA24632469247230FA10036874C0841
:103FB800B28622850146EFF01FB405616FD0AFCEFF
:103FC800EFD22FCC61711C183EC6B70780013EC8DE
:103FD8001C183ECA3C0800453ED4AA8402CC02CE36
:103FE80002D002D202D6FD3B83570500355923166D
:103FF800F102EF30F0752307A10209C4835744008A
:1040080091E721594A855D616FD0EFC90355640076
:1040180052055181EFE0F01D2A8965D58347B40028
:1040280093F7070E89C713058401EFF030358357DE
:104038004400231EF100834784002301F1025C4001
:1040480003550900D98313F7070883471102231C76
:10405800A10093F7F707D98FA300F102835729002E
:10406800231DF1005C40F18313F717008347F10229
:10407800F99BD98FA307F102EF7090792AD251D119
:10408800834794006800139757008347B400FD8B5B
:10409800D98FA305F4001C4803D647008C43EF10C2
:1040A800205DA68717B701001307C760740005468F
:1040B8004C102685EFF03FA42A8929D58347B40000
:1040C800A685FD8BA305F400B9352DBFEFD26FBBD4
:1040D800832485FE2A8441112685EFF0BFDD8347BE
:1040E80034FF93F7070E9DC32AC62685EFF0FFD04D
:1040F80019C9834734FFB245FD8BA309F4FE81C576
:104108002285EFF0302641016FD0EFB96DDD8327AE
:10411800C4FF2685829765F9834734FF93F7070E16
:1041280081C72285EFF09025032584FE513DE1BF2C
:10413800EFD22FB29C4141112A8903C70700894752
:104148002E8493566700638CF6020D466382C6047C
:104158009307F0076302F7022E85EF10A05DAA848B
:104168008149C16B130C490097370020938787B3A7
:104178009C43984763ECE90241016FD04FB103D7E4
:1041880045008547E3FAE7FE2E85EF10805EC1BF44
:1041980003D74500E3F2E7FE2E85EF10A059AA8465
:1041A8002285EF10805AC204C98C5DBFDC470355D5
:1041B800A900139A49003E9A93170501C187635DC8
:1041C800F00083570A006395A70263E57403832709
:1041D800CA00034D5A001DA0A1672167A98F1307C4
:1041E800F7EFE374F7FE63950900EFF05FA171FD47
:1041F80085099DBF83278A00034D4A00835DA90076
:1042080003576900216A138BC7003AC6814A33CA2B
:104218004D01631E5D0197370020938727A99C43B2
:10422800E1DBA2866286814526858297D1B7A167A0
:104238009387F7EF930C4BFF63F04703B2455A851A
:10424800EFF07F8619CD03278B00104719CA10435A
:104258006380C4023107D5BFEE856685EFF07F9E87
:1042680071FD93861A0093FAF60F130B0B0255B7DC
:10427800835644005C43E3EDF6F622853AC6EF1018
:10428800603AA1679387D7042A8A035D44003247BE
:1042980063E897008347D90093E707F8A306F90076
:1042A8001C4766852286E2858297C1670844FD1708
:1042B800337AFA00529508C02312A40115BF973724
:1042C80000209387279E9843814715C31447814749
:1042D80063FFD500939745004C47BE9519C903C79E
:1042E800550081476375E600DC451606B2973E85A2
:1042F800828003C745008147E37BE6FE16069C459E
:10430800F5B7EFD26F96AA892E8A8144973A002092
:10431800938A4A9983A70A00984763E4E4006FD018
:10432800EF97DC471394440001493E9413BB1400F3
:1043380083474400634BF900014913BB14008347CA
:104348005400634FF9008504F1B7084493175900E6
:104358005287DA860146A2853E9582990509C9BF2A
:104368004844931759005287DA860546A2853E9538
:1043780082990509E9B7EFD2CF90814517F5FFFF7C
:104388001305456097370020239007929D3F6FD013
:104398008F91973700209387E7909C4399CBEFD272
:1043A8004F8E814517F5FFFF1305C55D993F6FD007
:1043B8008F8F8280EFD24F8B41112315E1002E8918
:1043C800B284B6893A8681460147ED452A84EF10C2
:1043D80071492AC61DCD0356A100CE85EF60212163
:1043E800CA852285EF10115C058915C12285014611
:1043F8002C0023149100EF10B1712A8409C5ED45F2
:104408002800EF10B154228541016FD02F8949440B
:10441800FDB76554CDBF5C41FD175CC18280EFD20A
:104428004F86EF10A13095473305F50281450D8180
:104438006FD06F87EFD2EF84EF10412F9547330588
:10444800F5020D816FD02F86EFD2AF83035505009B
:10445800EF10911D6FD02F85EFD2AF820355050065
:104468003287AE86171600200356A694973500208B
:104478009385058481376FD00F83EFD28F80EF50FB
:1044880021126FD04F82EFC2DFFF9735002093854E
:104498002582EF10D16E01456FD0EF80EFC27FFE0D
:1044A8008145171500200355C58CEF10D1596FC0F1
:1044B8009FFFEFC21FFD9735002093856580EF10A1
:1044C800116C01456FC03FFEEFC2BFFB8145171558
:1044D800002003550590EF1011576FC0DFFCEFC2A5
:1044E8005FFA2E85EF607011EF60701A6FC0BFFB26
:1044F800EFC23FF9EF6030226FC0FFFA5C49E11765
:104508005CC95CC583572501A1072319F5008357AA
:104518000501A1072318F5008280F1473305F5024C
:10452800972700209387C77B9C433E9582808D47C1
:104538006317F60603D74600854763F2E706EFC21E
:104548005FF4368536842E89EF10C01E39C1835733
:10455800440093140501C18063ED97022285EF1092
:10456800601DFD14231294009307A002630EF5004A
:104578009307B0026301F50293079002631BF500ED
:104588002285EFD0A00431A00146CA852285EF809C
:10459800E0176FC05FF12285EF00B05ADDBF82805F
:1045A80097260020938606749C42014599CF98432C
:1045B800D442172600202327E6726396D700972651
:1045C800002023A3E6721385C7FE8280EFC27FEB2B
:1045D800C9267144330585029145EF70406B01E5AA
:1045E80065556FC05FEC9727002023A9A76E552655
:1045F800330585029145EF7080697DD197270020AA
:1046080023A0A76E7926972700202393A76C51260D
:1046180097270020239FA76A97B701009387C70EA3
:1046280017270020232AF76A97070000938747ED8A
:10463800172700202320F76A014565B7EFC27FE4FA
:10464800AA85172500201305A568EF1080226FC0E2
:104658009FE5EFC21FE3DD37EF10202397270020E7
:10466800938747689C4381CF1387C7FE09CB83D5BF
:10467800C7FF1725002013056567EFF0A04E6FC030
:104688009FE2EFC21FE0EFF0BFF111C98347850039
:104698002A8493F7070491E70355E5005D3F6FC04F
:1046A8009FE08347C500930445011729002013099B
:1046B800696385E3832709005CC99727002023A342
:1046C800976283274900E1FF9727002023AE976070
:1046D800F9B7FD172306F5006105EF605009830758
:1046E800840063C907048347840093E707F8230419
:1046F800F400EF00F15F4205A94741813375F502E7
:104708008347840093F707FCC98F2304F400834789
:10471800D4003E951C402318A40089CF984319CB98
:104728008347C4005040814585073305F50242059B
:1047380041810297832709005CC89727002023A39B
:10474800975A8327490089E79727002023AE97586F
:104758008347C400A9D783550401172500201305F2
:10476800E558EFF0204025BFEFC2BFD197270020C2
:104778009387476C9C4701448583858B81EFAE8482
:10478800B2853A86EF10C0152A8409C5EF10C00C0F
:10479800829408CC22856FC01FD1EFC2FFCC411193
:1047A8002E8932C6AA89712C324713060502CA8699
:1047B800970500009385A5D61725002013054551B8
:1047C800EFF09FFA2A8429CD9304C500652619467F
:1047D800AA852685EF00D06985452685EF00B06655
:1047E80017B50100130505F04E958345050026858C
:1047F800EF00F0695C4831468145A1075CC85CC49C
:1048080083572401E1172319F40083570401E117A2
:104818002318F4001C4C3E85EFC0BFC9A304250132
:10482800228541016FC09FC7EFC2BFC54111AA844D
:104838002EC632C4EF10A004004DB245224683476D
:1048480084000CC050C093F7F70393E707042304D0
:10485800F400231804002685EF1000008347940015
:10486800A9462317A40013D7370005073307D70233
:104878009D8B85072306F400A306E40083C7040183
:10488800D8488507230FF7FE172700201307874509
:104898005843232A0400930744011DEB17270020DF
:1048A8002324F74417270020232EF742172400203B
:1048B8001304C4432285EFF0A0201C44858B5D8D32
:1048C80009E581452285EFF0E02941016FC0BFBDB0
:1048D8001CC3172700202329F740C9BFEFC27FBA9E
:1048E800970500009385E5C40145EFF05FBF0145DA
:1048F8006FC07FBBEFC2FFB8EFF09FBF6FC0BFBAFA
:104908008347C500A1E7EFC2DFB72A840355E50056
:10491800EFF0DFD215C98347840093F7F7FB230430
:10492800F4001C4091C7DC4381C74C400145829785
:10493800EFF01FC7172500201305453BEFF00024B3
:104948000355E400EFF0FFD06FC0FFB58280EFC2DF
:104958005FB3972700209387E73897050000938572
:1049680085D2172500201305653823A0070023A248
:104978000700EFF040136FC01FB31C4D91CBDC4311
:1049880081CBEFC21FB08345070082976FC0BFB1CC
:104998008280972700209387A7379C4303C5070089
:1049A8008280972700209387A7369C4303C517006A
:1049B8008280972700209387A7359C4303C527004B
:1049C8008280972700209387A7349C4303C547001C
:1049D8008280972700209387A7339C4303C537001D
:1049E8008280972700209387A7329C4303C55700EE
:1049F8008280972700209387A7319C4303C56700CF
:104A08008280972700209387A7309C4303C57700AF
:104A18008280972700209387A72F9C4303C5870090
:104A28008280972700209387A72E9C4303C5970071
:104A38008280972700209387A72D9C4303C5A70052
:104A48008280972700209387A72C9C4303C5B70033
:104A580011E11D458280972700209387672B9C438F
:104A680003C5C7008280972700209387672A9C4345
:104A780003C5D700828097270020938767299C4326
:104A880003C5E700828097270020938767289C4307
:104A980003D50701828097270020938767279C43C7
:104AA80003C52701828097270020938767269C43A8
:104AB80003D54701828097270020938767259C4369
:104AC80003D56701828097270020938767249C433A
:104AD80003D58701828097270020938767239C430B
:104AE80003C5A701828097270020938767229C43EC
:104AF80003C5B701828097270020938767219C43CD
:104B080003C5C701828097270020938767209C43AD
:104B180003C5D7018280972700209387671F9C438E
:104B280088578280972700209387871E9C4303D548
:104B3800C7028280972700209387871D9C4303D54F
:104B4800E70219E11305800C8280972700209387DC
:104B5800271C9C4303C5070382809727002093875F
:104B6800271B9C43C85B8280972700209387C7191F
:104B7800884382809727002093874719884382803B
:104B880019E17D558280F5DE984265DFFDD917274A
:104B980000201307272A1847AA877155058B631920
:104BA800072203C507001547E37DA7FC03C73700A5
:104BB8001305F0057D171377F70FE364E5FC03C3CE
:104BC8005700E30003FC83C86700E38C08FA03C7B7
:104BD8007700494579171377F70FE364E5FA03C7B8
:104BE800A70011481305F7FF1375F50FE36BA8F835
:104BF80003CE97000D481305FEFF1375F50FE3620A
:104C0800A8F803C8B7006309080065181378F80FF7
:104C18001305600DE36705F703C5C70079487915E3
:104C28001375F50FE36FA8F403C8D7000D457D1879
:104C38001378F80FE36705F503D80701930E4017BB
:104C48005118420813580801E3ED0EF303C8E700B2
:104C58007D181378F80FE36605F303C827017D185C
:104C68001378F80FE36F05F103C88700C54E751870
:104C78001378F80FE3E70EF103D86701856E938E7A
:104C8800BEE06D18420813580801E3EC0EEF03D894
:104C980047016D18420813580801E3E40EEF03D8E2
:104CA80087017918420813580801E36C05ED03C819
:104CB800A7017D181378F80FE36505ED03C5B70163
:104CC8001D487D151375F50FE36DA8EA03C5D701D7
:104CD800714879151375F50FE365A8EA03D5E7015F
:104CE8001308E00F7D1542054181E36CA8E803C570
:104CF8000702494879151375F50FE364A8E8C85306
:104D080001C937C834005915130858BFE36BA8E622
:104D180003A8870237C53400130555BF5918E36245
:104D280005E7172500202323C5FE03C6050117251F
:104D38000020232FF5FC0545E375C5E403D82501BC
:104D4800D04933760603E31E06E203C61501E30ADB
:104D580006E2172600202329B6FA83C52700014654
:104D68006387A50003C61700F1453306B60283C75B
:104D780007039305C00272971A071307C70516039E
:104D88001A9796084697B387B70241553E973297C8
:104D980042074183636EE802EFC2AFEE3685EF60EB
:104DA8003079EFD0D0392A84EF8070252A94EFC06B
:104DB800B03D2A94EF70A0102A94EFF03F812A9416
:104DC800EF30800E2A94EF50300F22956FC0AFED70
:104DD8008280972700209387E7059C47858B99E772
:104DE8007D5582807D5541016FC0EFEBEFC26FE9C1
:104DF80041112A842E8536C632C42EC2EF70402156
:104E080075D1B246224692452285EFC0D004E1BF53
:104E1800EFC22FE74111A307A100EF80602293059D
:104E2800F10017050000130585B5EFF08FCD01459A
:104E380041016FC04FE7EFC24FE21724002013046F
:104E480064FF032884007959936818009724002088
:104E580023A614FF13781800631E0800BA84BE89BD
:104E6800368B328A2E89AA8AEFE0DFD77D15269500
:104E780009E531594A856FC0CFE1EFE0BFD67D150E
:104E88002695A167E357F5FE97270020938787317A
:104E980098433E8C814B11C70145EFC0F052933BBC
:104EA80015004A85DA865686D285EF70F03B2A8946
:104EB80011CD1C44F99B172700202321F7F88327DD
:104EC8000C00CDDBE3880BFA82976DB72685972710
:104ED800002023A307F6EFE0BFCD4146CE85172576
:104EE80000201305A5FEEF508170EFA0500C03259C
:104EF800040BEFA0500E0545EFA050140545EFF048
:104F08003FF18DBF972700209387C7F29C47858B79
:104F1800D5C7EFC20FD717250020130565F99727C6
:104F2800002023A907F09727002023A707F0972739
:104F3800002023A507F0EFE07044EF406029EFE080
:104F4800101CEFE0902097270020938727ED9C43C3
:104F580081C70545EF60303997270020938787E69A
:104F68009C4389C741657D15EF50B010EFC0B04E26
:104F7800EFA0D004972700209387C7009C4313977E
:104F8800170163540700EFC020479727002023AF7D
:104F980007F29727002023AD07F29727002023ABBD
:104FA80007F29727002023A907F2EFF0BF949D236B
:104FB800EFF06FBCEFC040736FC0EFCE8280EFC2DE
:104FC800AFCA2A849304140201112E85B289A685DA
:104FD800214636C63A89EF50215F1DE1B2463808AE
:104FE8002686CE8513059404EF40206A21462C08B6
:104FF8004A85EF50615D1335150005616FC00FCA12
:105008000145E5BFEFC2EFC7930545061725002008
:10501800130545D0EFE010356FC0EFC8EFC26FC67B
:1050280041112EC6EFF00FC1B24588C141016FC0D2
:105038008FC7EFC26FC3AA842E84EF60907FAA89BE
:1050480085452285A92583C7E4011389940899E336
:1050580013890403CE8522851D2D21469305190247
:1050680022853925972700209387C7DC8C43228522
:10507800EF0060682146938584022285D52B6FC096
:10508800EFC1EFC28FBD3971EFC0405393054006A1
:1050980045EDEF601077630E05109727002083C752
:1050A80027C913B71700972600202383E6C80144B1
:1050B80089CFC164172900201309C9D79309400E65
:1050C800FD14EFF01F966348A408EFF0AFB64169EE
:1050D800B7290900096AFD7A2A8B81447D199389C9
:1050E800F97B130A0A71938A8AC7EFF09F9363D5F5
:1050F800A4041304400EB387840217270020130763
:1051080067D30324070B3E948357C401638627099A
:1051180018403307EB4063EAE900834744008507FA
:10512800B3874703D6976369F70601468145094562
:10513800EFF0AFE6AA8B29E1EF3020038547631F24
:10514800F50489659385057117250020130585BC2D
:10515800EFE05021A1A8B30734030327090BBA973E
:1051680003D7C7016308970003C75700A382070046
:105178002382E7000504B1B79305C5002285EFF047
:105188005FEB5E85228697A501009385E556EFF0D3
:10519800AFE95E85EF00606F850481BF9727002027
:1051A800938747C99C478D83858BC1FF21616FC059
:1051B8004FAE01468545094502D002D202D402D637
:1051C800EFF0AFDDAA847DD1EFC0803E1389C40023
:1051D8002A8481454A8565290C4041464A854929E2
:1051E80083294400638809084E8502D802DA02DC64
:1051F80002DEEF6001002ACE141005462C080818BC
:105208004ECCEF4020401375F50F2DE583558400F3
:1052180093E525004A854D2911460C104A858929B0
:10522800014697A501009385A54D2685EFF0CFDFB0
:105238002685EF0080655C40B5DB014685450D4558
:10524800EFF0AFD5AA843DD148401389C400EF5090
:10525800517A2AC64A85E12E3246636AC5004C4017
:105268004A853921014681452685EFF0EFDB268501
:10527800292D2DBF8355840071BFEFC28FA09727BA
:105288000020938727BB9C4719CD93E787001725F4
:105298000020130525A8172700202321F7BAEFE0DF
:1052A800100B6FC04FA0DD9B172700202328F7B8ED
:1052B800EF20B06B7DF5172500201305A5A5EFE0BD
:1052C800F00BC5B7EFC26F994169AA892E8AB28AD5
:1052D800368BBA8B8144172C0020130CACB5930C79
:1052E800400E7D19EFF0EFF363C4A40001442DA034
:1052F8003384940383270C0B3E948357C401638043
:1053080027055A87D6865286CE8513050403EFF003
:105318001FCB11C523800B0022856FC08F97834751
:10532800F40191CF5A87D6865286CE851305940804
:10533800EFF0FFC809C585472380FB00F1BF85044E
:1053480055B783574500638D0716EFC2EF910111DA
:105358002A84CD2619C58547630AF50405616FC0FF
:10536800EF93EFC0A0257DF9835744004947ED9B93
:10537800E396E7FEC1452285612CAA842285D52EB5
:105388000357440002CE91472A896317F700228504
:1053980019293C082ACC3ECEEFC080215C55DDDFC0
:1053A80074084A86A685054582974DBF0357440071
:1053B800D147E3F5E7FA032A0400C1690149972AAE
:1053C8000020938A2AA7130B400EFD19EFF06FE512
:1053D8006344A90C2285032A0400A92EA1452A8921
:1053E80022853D24AA8422857D2E14402A86AA89F6
:1053F80078082685CA85EFF0FFECAA8425D103C773
:10540800F40189476315F7008347C101A1DB5546BD
:10541800D28513856400EF50811D0145EF60503F30
:1054280001C583D7C401B1EB97270020938787A0D4
:105438009C4793551900858913D73700058B11CBE5
:105448008983858B6397B70001452EC6EFF0FFE28D
:10545800B2454E85EF60B0430346C1012A84937577
:1054680019002685EF70103731C92685EF60B03EE8
:10547800268511C00145EF601069EF20104F854760
:10548800E31EF5EC83C754001307F00FE388E7EC3D
:105498008507A382F400D9B5B304690383A70A0B6F
:1054A800BE9483D7C401638937015546D2851385D5
:1054B8006400EF50611171D1050909BF5DDC5DBF62
:1054C8008280EFB27FFAEF60D03311CDC16401441E
:1054D80017290020130909969309400EFD14EFF0CF
:1054E8004FD4634AA400172500201305A582EFE0D6
:1054F80000666FB0BFFA330534038327090B3E9566
:105508008357C5016386970023120500EF60B03406
:105518000504F1B7972700209387C7919C478D838F
:10552800858B99EBEFB2FFF5171500201305857EE3
:10553800EFE0C0646FB03FF78280EFB29FF4970549
:105548000000938545B4171500201305A57CEFE0EE
:1055580080556FB05FF583C7F5FF2E858507A38F4C
:10556800F5FE828083C7F5FFFD1793F7F70FA38F2A
:10557800F5FE89EBEFB2FFF01385F5FFEFF0105A57
:105588006FB07FF28280EFB2DFEF884105054205F8
:105598004181EFF0705B09C585472300F5000505DB
:1055A8006FB07FF01C41035745008D8FBA951CC121
:1055B8002312B5003E85828093D78500A205144149
:1055C800DD8D835745001387E6FF18C1890723122D
:1055D800F50013D685004111238FB6FEA38FC6FEB2
:1055E8004101828018419307F7FF1CC1835745008A
:1055F80085072312F500A30FB7FE82808357450065
:105608008D8F2312F5001C41BE950CC12E8582801A
:10561800AA8703D7470008410D8FAA952392E70070
:105628008CC38280184108453305A7408280835780
:105638004500035765001D8F1C4108453385A74069
:105648003305A7408280EFB2DFE341112EC62A84DA
:10565800EFF0FFFDB2456373B50001A08357440026
:105668000840BE952312B4003E9541016FB0BFE3D8
:10567800EFB23FE141112E84B28532C6EFF0BFFC94
:105688003246A285EF40B17641016FB0DFE1EFB25B
:105698005FDF2E848545EFF01FFB230085006FB088
:1056A8009FE0EFB21FDE41112317B1008945EFF0EB
:1056B8009FF98347E1002300F5008347F100A30029
:1056C800F50041016FB03FDEEFB2BFDB93D7850035
:1056D800A2054111DD8D2317B1008945EFF0BFF612
:1056E8008347E1002300F5008347F100A300F5009C
:1056F80041016FB05FDBEFB2DFD81397850193D715
:105708008501C166938606F0D98F13D78500758FFA
:10571800D98FA2053707FF00F98D4111DD8D2EC6FF
:105728009145EFF05FF26C001146EF40516C41017A
:105738006FB07FD7EFB2FFD41C41854503C4070083
:10574800EFF0DFEB22856FB01FD6EFB29FD31C417D
:105758004111894503C7070083C717002307E100E4
:10576800A307F100EFF09FE90355E10041016FB095
:105778009FD3EFB21FD11C414111894503C70700D0
:1057880083C717002307E100A307F100EFF01FE725
:105798008357E100410113D58700A2075D8D4205BB
:1057A80041816FB05FD0EFB2DFCD0C4141112A8447
:1057B80011466800EF40B16391452285EFF01FE480
:1057C800B247C166938606F01397870113D5870100
:1057D800598D13D78700758F598DA2073707FF009A
:1057E800F98F5D8D41016FB01FCC1C45BE950CC172
:1057F8008280AE87944391E6584101EF0CC15CC1A9
:10580800828003C7570013671700A382E700B68793
:10581800D5B70CC3EDB7AA87084119CD1841D443B1
:1058280098C36313D500D8C32A87034657009376D5
:10583800160081E6232007008280944381CA8C42A7
:1058480003A847008CC363930601CCC3799A14C399
:10585800A302C7003687D1BF1C45DC471D8DB7772B
:10586800DBB6938777DB09853305F502420541816D
:105878008280F147B385F50248452E95828083479B
:10588800450085072302F5008280EFB29FBF2A8476
:1058980019E06FB05FC183474400E5DFFD1793F758
:1058A800F70F2302F400F5F71C4403D72700050778
:1058B8002391E700DC4399C3228582974C4889CD20
:1058C80083475400898B99E71C4422859C479C4355
:1058D8009C478297232A04000040232004004DBFE0
:1058E800EFB23FBA8357250041112EC691E7014414
:1058F800228541016FB03FBB035705008147F14640
:10590800E307F7FEB385D702404585072E94834504
:10591800440008C4F5F5B247AA8481E7232A0400A5
:1059280009A81C456C0022859C439C43829748C863
:105938005DDD85472312F400B247232004002318B5
:1059480004002319F4005C485CC483D72400FD17C5
:105958002391F40071BF971700209387A73D9C43BC
:105968007D5799C7D447715781E688C7CCC7014787
:105978003A858280EFB2FFB0971700209387873B64
:10598800884323260500232405004105EFE0001F76
:105998006FB07FB1EFB2FFAE171400201304843943
:1059A8001C40411189CF9C472300B5002AC65CC121
:1059B800EFF05FFC1C40DC4399C3324582974101FC
:1059C8006FB07FAE034745001DEB584DAA877D5544
:1059D8000DCBEFB21FAB1CC3DC479716002023ABDF
:1059E800E634F156130507012390D7009705000008
:1059F80093858501EFE0200B01456FB0DFAA7D5547
:105A080082808280EFB2FFA701116146814528009C
:105A1800EFB03FAA971700209387C7319C4328000F
:105A28009305F00FDC473EC6EFF0DFF605616FB077
:105A38009FA7EFB21FA5971700209387A72F88432A
:105A480097F7FF1F9387473E8C434105EFE080118E
:105A58006FB07FA5EFB25FA13971BE841C183ECC30
:105A6800B7070E003ECE1C183ED0F557231701028B
:105A78002313F102FD5723150102231601022312F5
:105A8800A1022314B1022307F102328AB6893A89A6
:105A98002164631708061304F403A1659385E503DD
:105AA8002285EFF05FEB31E9A2852808EFE0EFAB44
:105AB800D2852808EFF0FFBECE852808EFF07FBE1C
:105AC80041677D176386E400A6852808EFF07FBD4F
