:040000006F1000621B
:1000040000000000000000006F0080086F00E02284
:1000140000000000000000000000000000000000DC
:1000240000000000000000000000000000000000CC
:100034006F004006000000006F00E00500000000B3
:100044006F0080056F0060056F0040056F0020059C
:100054006F0000056F00E0046F00C00400000000A2
:100064006F0060046F0040046F0040336F00204B4A
:100074006F00E0236F00C003000000006F00600306
:100084006F0000276F0020036F0000036F00E00281
:1000940001A001A001A001A001A001A001A001A054
:1000A40001A001A001A001A001A001A001A001A044
:1000B40001A001A001A001A001A001A0B717004068
:1000C400130770052380E704130780FA2380E704ED
:1000D4002396A70223800704371700408347270588
:1000E400898BEDDF835707053717004083472705C2
:1000F400898BEDFF3717004083472705898BEDDF98
:10010400035507058280B7170040930670052380C6
:10011400D704130780FA2380E70403C6B7041376D1
:10012400F60DA385C70423800704137605022DC6A4
:1001340003C6A700118A0DE22380D7042380E704B5
:1001440003C7A700136747002385E7009307004B05
:1001540001000100FD17EDFFB7170040930670057D
:100164002380D704130780FA2380E7047D8923942E
:10017400A70001000100010001002380070423807F
:10018400D7042380E7049306100537270040A30310
:10019400D780238007048280137605046DDE03C6AE
:1001A400A700418A0DE22380D7042380E70403C714
:1001B400A700136707012385E7009307007D01006B
:1001C4000100FD17EDFFB71700409306700523806B
:1001D400D704130780FA7D892380E7041365050497
:1001E4002394A700010001000100010023800704FB
:1001F4002380D7042380E704930630053727004083
:1002040079B74111814601468145114506C6D52677
:10021400B7170040130770052380E704130780FA1B
:100224002380E70403C76704136717002383E704E5
:1002340023800704B2404101828081460146814502
:100244001145452EB7170040930670052380D70447
:10025400130780FA2380E7047D562396C702238080
:10026400D7042380E70403C76704136717002383B5
:10027400E7042380070401A0BD473305F50201000C
:100284007D1575FD8280411122C426C206C6AA844A
:10029400014463179400B240224492444101828095
:1002A40005041305803E4204C13F4180DDB7B71702
:1002B4000040130700032388E702854723ACF1823B
:1002C40073002030411126C2B724090022C406C697
:1002D40001449384047C0504EF00101CE31D94FE88
:1002E40097F0FFDFE780A03F0144EF00F01AE5B785
:1002F400411122C637340040834764C0898B81CFC3
:1003040089472303F4C0032504C19317650063C818
:10031400070023A6A1843244410173002030B707AB
:100324000002FD177D8D23A6A1849307C0033355D6
:10033400F50223AAA184976001E0E7804002972791
:1003440000009387A7829043D443976001E0E7803D
:1003540080AE972700009387E781D443904397604A
:1003640001E0E78040AD976001E0E780605A938741
:10037400018588C3232804C0834724C0C14693F75A
:10038400D70F2301F4C0B7E700E0B843B4C38546F0
:1003940023A2D718B8C301000100B5BF3737004006
:1003A400834747009146BD8B6389D700994663967E
:1003B400D7168347570073002030411122C6834764
:1003C4008700173500001305651603C761862A9751
:1003D40093F7F70F2300F7009736000083C606153E
:1003E4001307A00A2A84639BE60E3E85970000E06B
:1003F400E78000B79387618683C707003D47850779
:1004040093F7F70F6368F7002383F18632444101C1
:10041400730020302383018683C7A18503C7B18578
:1004240081463146B305D40083C505008506AE97E1
:1004340093F7F70F3E971377F70FE395C6FE238DD7
:10044400F184A38DE18483C68186639FF60683C706
:100454009186639BE7069387418603C7070083C79A
:1004640017002546973500009385850D1735000044
:1004740013058507238CE184A38CF184976001E044
:10048400E7806069D145173500001305250A97E018
:10049400FFDFE780804F5146814517350000130583
:1004A400E50897E0FFDFE78000A82546814517357A
:1004B40000001305E50897E0FFDFE780C0A6238D61
:1004C4000184A38D018499B7D9451715000013053C
:1004D400252A97E0FFDFE780404B6DB75146814501
:1004E4002383018697E0FFDFE780E0A3254681456B
:1004F400173500001305C50497E0FFDFE780A0A2CD
:100504009737000023A207FE9737000023A007FEB9
:1005140097370000238E07FC5DB773002030373710
:100524000040834747409946BD8B6394D700834777
:100534005740730020302303048015472303E480CD
:1005440001002302A480828083076480E3CE07FE37
:1005540023030480828083076480E3CE07FE03457F
:100564004480828083076480E3CE07FE2302A48054
:100574008280411126C44AC24EC006C61377F50BC9
:10058400AD47AA892E8995446306F7001945653756
:10059400653F8D444E854537FD59FD1463983401FC
:1005A400B240A24412498249410182801355090193
:1005B4001375F50F453F2209CDB7011126CC06CEA0
:1005C400B704080051371545BD37713769372AC656
:1005D400A53F32459377150089EB13651500137514
:1005E400F50FF240E24405618280FD14E9FC014507
:1005F400CDBF397126DC4ADA4ED852D656D45AD2F7
:100604005ED006DE62CE66CCB7E700E07D5783AAF3
:10061400070022C603AA470023A0E71823A2E7186D
:10062400B7170040130770052380E704130780FA07
:100634002380E70483C74704930B75FFB684E2075E
:1006440093FBFB0F8546AA892E8B32893724004001
:10065400E187015763FA76016308D50089461307D9
:1006640000026313D5000157D98F93F7F70FB71C16
:1006740000402382FC0411472303E4801305F00F98
:100684005D3D094CD13563697C11B70707003E9B7A
:10069400378707007955637EEB02B3079B00636AD3
:1006A400F702A9476399F90689E48144713D2685D7
:1006B4000DA0DA850945753D05090345F9FFFD14CB
:1006C400050B4D3581C49377FB0FFDF7FD3569FDAF
:1006D4007D55B7170040130770052380E7041307FF
:1006E40080FA2380E70403C74704418B2382E7048D
:1006F400F250B7E700E023A0571123A24711E254B8
:1007040032445259C259325AA25A125B825B724C19
:10071400E24C21618280A5476395F9068569130936
:10072400F00FB3069900B3742B01B6941349F9FF83
:10073400B3749900856B33796901416B9387F9FF31
:10074400B3F7270199E363FC340193D94900C14706
:10075400E3E637FF99BF0569C1697D19D9B7130568
:10076400800D638869011305000263847901130510
:100774001008CA85FD3B913521DD4E99B38434417F
:10078400D9B7DA852D45F533CA94E30099F2050902
:10079400D933A30FA9FED5BF9387F9FF93F7F70FBA
:1007A400636CFC0803C75C04B707080013770702EF
:1007B40019E3B78707007955E37DFBF033079B0006
:1007C400E3E9E7F089476390F9048980D549E38E2A
:1007D40004ECDA850945713B11090327C9FF9147E8
:1007E4002320E48003076480E34E07FE230334815F
:1007F400FD17EDFBFD14110B81C49377FB0FE9FF8B
:100804006D3B71F5F1B58547E387F9F4DA852D453C
:100814008D339389F4FFE38A04E8353B93F7390079
:1008240091EB832604800327090093074900E39F83
:10083400E6E63E89CE84F1BFB5476396F900130519
:10084400900BD5399DB5B1471305B00AE38BF9FE7A
:100854009947639EF902DA852D45213B81448D4BEE
:10086400A149D53963967401832704802320F900B4
:100874008504E39834FF8327048013172B01635501
:1008840007002312F90015B52322F90039BD9D474D
:100894006399F90281451305B004E139BD4423206D
:1008A400090023220900FD597D3193F77400CA978A
:1008B40003C70700FD14398D2380A700E39634FF96
:1008C400EDB3A1476392F904CD398144630D0B0064
:1008D4008D479304C0036308FB009304000563047D
:1008E4008B01930440041375C507E30095DC194597
:1008F40099319939054581312685AD3109459D31B7
:100904006D39E31405DAE9B391476399F9001305E6
:100914006006153115391305900925B7E38709D801
:10092400F15469B37D166206618693178601E187E7
:1009340063D4070001458280931726003307F5002E
:10094400AE9718439C4363E7E7007D16E37FF7FC0B
:100954007D55828005458280FD15E205E18513976A
:100964008501618793F7F50F63480700FD15139719
:1009740025002A97584365D71385170062056185BA
:1009840082803308B5021C4283A80600B335B50241
:10099400C29733B50701AE98469585486367B5009D
:1009A4006394A50063E3070181480C43C6950CC317
:1009B40088C21CC282808147139787016187634381
:1009C400B7008280139727002A9723200700850702
:1009D400E5B78147014793968701E18663C5B60071
:1009E40013351700828093962700AA9694428507B0
:1009F400558FD5B793D755408A07AA979C43054589
:100A04003315B5007D8D828017D3FFDFE702A34E37
:100A14002A84993705C5931725003E940327C4FFFC
:100A2400814711EB7D1516053E954205418517D387
:100A3400FFDF6700834E05838507E5B70145C5BF22
:100A440081471397870161876343C70082801397A7
:100A54002700B386E50094422A97850714C3D5B7C7
:100A64007D1662066186014793178601E18763D587
:100A7400070013351700828093172600B306F5008C
:100A8400AE9794429C437D16B58F5D8FF1BF8A0566
:100A9400AA9501476363B500828083A6C5FFF1155B
:100AA40093D71600D98F9CC11397F601E5B72A8313
:100AB4000148014701456343D7008280B38705019C
:100AC40083A80700B30706019C43C697AA976384CB
:100AD400F80033B517010507B3080301620723A023
:100AE400F80061871108C1BF2A8301478147014586
:100AF40063C3D70082803388E50083280800330E5F
:100B0400E600032E0E003388A8403308C8416384EE
:100B1400080133B508018507B308E300E20723A001
:100B24000801E1871107E9B717D3FFDFE702A33C08
:100B34000111B286B2842E86AA850A8575372A8465
:100B4400A6850A85793533348000060413351500EB
:100B5400018D056117D3FFDF6700233C17D3FFDF47
:100B6400E702E3364111AA89AE8A328BB68402C207
:100B740002C402C60144131C8401135C8C41634902
:100B84009C02939B1400FD1B0549138CF4FFF15C3C
:100B94003304890162046184634D740592478E04B1
:100BA400CE9423AEF4FE410117D3FFDF6700A335D3
:100BB40013192400B30B2B01014A93172A00D6976B
:100BC40083A50B0088437800340050005D3B050A80
:100BD40093178A01E187F11BE351FCFE92474E997A
:100BE40005042320F900A2473EC2B24702C63EC410
:100BF40059B7131A8901135A8A41131D24009317F4
:100C04008A01E18763CF970092470A044E941CC07F
:100C1400A24705091379F90F3EC2B24702C63EC482
:100C240085BFB3079A0313152A0056950841780027
:100C340034005000050AEA97DA978C439933C1B718
:100C440009CDB7170040130770052380E704130785
:100C540080FA2380E7042396A702828019C1814782
:100C640099E982803387F500834607003307F5004E
:100C740085072300D700E397C7FEE5B719C1FD57E1
:100C840081E98280910503A7C5FF1105232EE5FEA6
:100C94007D16E319F6FEF5B7797122D417340000F6
:100CA400130404E31C4006D626D24AD04ECE91C784
:100CB40082979737000023AD07E05C4089CB03D5CA
:100CC4004187BD3F5C40829703D56187953F1C40B7
:100CD400639907189737000083C797E6858B95C7F4
:100CE40097370000A38E07E417370000034777E522
:100CF400914763FCE70069219737000083C777E4D5
:100D0400F9178A07A2979C4382979737000083C7F5
:100D1400E7E7918B89C7973001E0E78040B71C442F
:100D240091C382979387018798431736000003463F
:100D3400F6D73E8997340000938444D79737000050
:100D440083C7C7D693961700BA9683D606006380E6
:100D540006109737000083C767D563F2C708860774
:100D64003E97835507002310070003D541872EC6FD
:100D7400239E0186F135938781889C4317350000B3
:100D84000345C5D213172500BA979C43B2458297F1
:100D9400AA8903D561876D359737000083C707D1CA
:100DA400139717008327090003D5C1871345F5FF5F
:100DB400BA9703D7070033753501598D2390A700DF
:100DC40083C70400850793F7F70F17370000230F35
:100DD400F7CC17370000034777CD63E6E700973772
:100DE4000000238507CC1C40ADEF9387018898430E
:100DF4003E8425CB9737000083C7F7D491CB973730
:100E0400000083C717D489E7972001E0E780005EDC
:100E14001C4082972A8431C59C48AA971737000042
:100E2400232EF7C8938741889C4385CF03D54187F8
:100E3400013D2285971001E0E780A0CB2254B250F7
:100E440092540259F24903D561874561D5BB8507A0
:100E540093F7F70F97360000238AF6C4E3E0C7EE52
:100E6400CDBDB250225492540259F2494561828058
:100E74009167B7C600409387373023A6F6200F103A
:100E8400000097370000938767C2884F9387C18C0F
:100E94009C43316713073730F053B7071000FD1731
:100EA400918F99833A0523A6E6205D8D82804111B6
:100EB400B7170040985F3AC6945F3247E39CE6FE5A
:100EC400324541018280411106C6D537973600006C
:100ED40083C646BB858AB1C6930730333307F50210
:100EE400B337F5023983CA07D98F173700001307C0
:100EF400E7BB584B01456303F7023385E740636B57
:100F0400F70037653D0889C637856F0813050590D6
:100F1400198D3E95173700002324F7BAB2404101DA
:100F24008280E5473307F502B337F5022583DE07F0
:100F340065BF411122C41384C18B18404AC006C640
:100F44001C5F26C21389818B9983858BC1C31C5F67
:100F540097340000938484BE93F7F7F91CDF973726
:100F6400000083C7A7BD93F707048DC39387C18887
:100F74009C4382979737000023AAA7BC83C7040029
:100F840093F7F70B17370000230AF7BA854717378B
:100F94000000A307F7BA83C7440093F7070481EF5F
:100FA4009387C18C9C43D844B8D3930700FC17376C
:100FB40000002307F7B88387640063D907008327F9
:100FC40009009C4317370000230DF7B618401C5F37
:100FD4008583858BC9CBF5571CDF01000100010017
:100FE40001000100010001000100010001000100F5
:100FF40001000100010001000100010001000100E5
:1010040001000100010001000100010001000100D4
:1010140001000100010001000100010001000100C4
:1010240001000100010001000100010001000100B4
:1010340001000100010001000100010001000100A4
:101044000100010001000100010001000100010094
:10105400010001000100010001009387C18C9C4341
:1010640013075004B8CB18401C5F9183858B89CF3C
:10107400BD571CDF9387C18C9C4323A80704854775
:1010840017370000230EF7AA83270900D8430583E6
:10109400058B19C7D843759BD8C3D843799BD8C34C
:1010A400B24022449244024941018280397106DEF1
:1010B40016DC1ADA1ED82AD62ED432D236D03ACE3C
:1010C4003ECC42CA46C872C676C47AC27EC0953542
:1010D400F250E2525253C2533255A255125682561E
:1010E4007247E2475248C248324EA24E124F824FD4
:1010F4002161730020309387C18C9443173700001B
:101104001307C7A3BC5289CF83472700858B89EB7C
:1011140083473700858BFDD797370000238207A2CA
:1011240082809387818C9C4399CB944BD04B98427B
:10113400518F98C294439C479842D98F9CC29387FD
:10114400C18C9C4337C700401306C003A8CB930649
:101154002003973500009385659E83278720C183EC
:1011640093F7F7036369F60083278720C18393F716
:10117400F70363E6F60083C74500858BF9DF8280B9
:101184009387C18C9443173700001307279BBC52E5
:1011940089CB83470700858B91CB97370000238148
:1011A400079A97370000A38D07988280834717001A
:1011B400858BF1DFDDB79387818C9C4399CB944B6E
:1011C400D04B9842518F98C294439C479842D98FF0
:1011D4009CC29387C18C944337C70040C145A8CAB9
:1011E400654683278720C18393F7F70363FBF500E4
:1011F40083278720C18393F7F7036364F600BC5207
:10120400EDF382801387C18B1843AA87185F158377
:10121400058B25EF0345150015051377C51F19C662
:10122400B386E70083C626002300D60095C597360B
:10123400000083C6069193F606040945A1CAB38645
:10124400E70083C63600054693F5F6066390C504A9
:10125400E206E18663CC06023385E7008347150086
:1012640003470500A20793F70770D98F1397070167
:1012740041839376074099C6136707802392E18CD4
:10128400014582802392F18CE5BF054582809386D7
:10129400C18C8C423685973600009386268A984501
:1012A40093170701C183137817203E86630408044B
:1012B4001377072079C303C726001367170017386D
:1012C4000000230EE88613070019B8D1130700F8AD
:1012D400973500002386E5861387C18B0C433708B6
:1012E4000010D855719B13672700D8D598413367F0
:1012F400070198C11377261005C31376061059CE3B
:1013040003C7060013671700173600002308E68298
:10131400173700002318078283C6460093C7F7FFD8
:10132400C207E206E186C183184163D1060293969F
:10133400170163DE060630538D4663E9C600854611
:1013440017260000230ED67E3453FDFE9726000098
:10135400938606728386460163DD06009396070131
:10136400C18663DC06047053894663E4C600745383
:10137400FDFE1447F58F1CC7828003C71600136750
:10138400170097250000A38BE57A1727000023098F
:10139400077A172700002317077AA9BF03C7360067
:1013A4001367170017260000A30BE67895B7854648
:1013B400172600002306D67851BF5447139606011A
:1013C40063510602B7061000FD1674D39726000079
:1013D4009386C66D944E8506172600002324D66E88
:1013E40049BFA166D58F71B7397106DE16DC1ADAEA
:1013F4001ED82AD62ED432D236D03ACE3ECC42CAC9
:1014040046C872C676C47AC27EC05135F250E252E2
:101414005253C2533255A255125682567247E2476E
:101424005248C248324EA24E124F824F216173007D
:10143400203017270000130727728346B701972728
:10144400000083C7B774B69793F7F70FFD4663EAB6
:10145400F6044C4B97260000A380F67097270000F3
:1014640083C7976F05473317F70097260000A38FAC
:10147400F6706D8F1DEF9726000083C67671B3F664
:10148400D70213050002814733D6F500058A13F805
:10149400F70F09CE6399E60097270000A38E076B28
:1014A400828081177DB705071377F70F8507E39DC2
:1014B400A7FC82809387818D9843B7570200938756
:1014C400279F832607091396560063580600832630
:1014D40007091396660063440600FD17FDF3828036
:1014E40051C9AA870145C9C98D07C207C183F19BA8
:1014F400C207C18313074003636BF7021387C18ECE
:1015040008431387418E14436396A60217270000ED
:1015140013070756185B014525C34111C20706C6C8
:101524000545DD8D0297B240014541018280138754
:10153400818EF9B70357650005EF035745006369CA
:10154400F702B306F74021466370D6021041938632
:1015540087001D8FAA96611790C22392E6002393F9
:10156400060014C12312F5002313B500210582805F
:10157400084159BF01458280828001CD9387C18E85
:1015840003A807009387418E8C430147C28763E316
:10159400B70082809443636FF50663EDA606138655
:1015A4008700E368C5FE03D5670021660506631757
:1015B400C50003C6718A0506A383C18A2393070065
:1015C400638407031386818E1042630FF60003566B
:1015D400670019EA83D7470014C383564700B697B8
:1015E400A1072312F700BA879843E304B7FA938656
:1015F400818E9442E30FD7F883566700D9FA83D6D5
:101604004700035647001843A106B2962392D70019
:0C16140098C382803E87B6879DBF00000F
:101620009741002093810153177100201301819D80
:1016300013054000972500209385C51C1736002010
:101640001306067E63FAC5008322050023A0550019
:1016500011059105E3EAC5FE17F50100130545974D
:10166000973500209385057C1386818263FAC50037
:101670008322050023A0550011059105E3EAC5FE6C
:1016800013858182976500209385C5DB6377B5005C
:10169000232005001105E36DB5FE9302800873A0B9
:1016A0000230972200209382E21593E21200739099
:1016B0005230972200009382428D7390123473004F
:1016C0002030397101436EC619A0397141536AC87F
:1016D00066CA62CC5ECE19A0397101535AD056D277
:1016E00052D44ED64AD826DA22DC06DE33016140D7
:1016F000828241114AC026C222C406C68282B24DED
:101700004101024D924C224CB24B4101024B924A94
:10171000224AB2494101024992442244B240410165
:1017200082803D432A876373C3029377F700BDEF3E
:10173000ADE5937606FF3D8ABA960CC34CC30CC741
:101740004CC74107E36BD7FE11E28280B306C3406A
:101750008A069702000096966780A6002307B700C6
:10176000A306B7002306B700A305B7002305B700FB
:10177000A304B7002304B700A303B7002303B700F3
:10178000A302B7002302B700A301B7002301B700EB
:10179000A300B7002300B700828093F5F50F93965E
:1017A0008500D58D93960501D58D61B79396270059
:1017B0009702000096968682E78086FA9680C11787
:1017C0001D8F3E96E374C3F8A5B73367B500FD538C
:1017D0000D8B79E7B7877F7F9387F7F710419441A7
:1017E000B372F6003363F600BE92B3E26200639711
:1017F000720C6318D6065041D441B372F6003363BD
:10180000F600BE92B3E262006398720A631BD604CC
:1018100010459445B372F6003363F600BE92B3E20E
:1018200062006391720A631ED6025045D445B372BA
:10183000F6003363F600BE92B3E26200639A720868
:101840006311D60210499449B372F6003363F6006F
:10185000BE92B3E26200639372085105D105E30FB3
:10186000D6F61317060193970601631CF70013576A
:10187000060193D706013305F7409375F50F91E9FB
:1018800082804183C1833305F7409375F50F91E161
:1018900082801377F70F93F7F70F3305F7408280B5
:1018A0000346050083C60500050585056313D600BC
:1018B00065FA3305D640828011059105E312D6FE04
:1018C000014582802105A105E31CD6FC01458280EB
:1018D0003105B105E316D6FC014582804105C105FD
:1018E000E310D6FC01458280B717004003C7770597
:1018F0001377E70FA38BE704130700F8A38DE70422
:101900003D47238CE70413075003A38CE704828030
:10191000B717004003D587005D715ED6420541814F
:1019200086C6A2C4A6C2CAC04EDE52DC56DA5AD857
:1019300062D466D26AD06ECE9377050C1307000886
:10194000814B6388E71813070004639CE714B724EE
:101950000D8F7D8993840480B3D4A402916793870B
:1019600007E8BE94A167938707D0B3D4F402EF8051
:10197000C11797D701009387E7219043D443EF70B5
:10198000514BEF80A1782A8B939C040103D981826B
:1019900093DC0C0163150900056913090980B71769
:1019A0000040130770052380E704130780FA2380A3
:1019B000E704371A00400547939D0401096C8566CA
:1019C0002389E704D14A814E8145130D0A04130887
:1019D0007005130680FA894893DD0D01130C0C7114
:1019E0002943FD1623000D012300CD0023162A03F1
:1019F00023000D0083472A05898BEDDF83570A05F5
:101A000083472A05898BEDFF83472A05898BEDDF04
:101A100083570A0523942183C207C18333859741E5
:101A20009319050193D90941638409163387B902D3
:101A3000635E070C850EC20E93DE0E0163E8D80DBF
:101A400063D9050A3305B04093150501C185C20469
:101A5000C18063D7350B0965130505713385A50270
:101A6000B7170040130770052380E704130780FAB7
:101A70002380E704239677032380070433459502E8
:101A800042054181B640264496440649F259625ABD
:101A9000D25A425BB25B225C925C025DF24D6161A4
:101AA0008280B1E3B77489097D8993840480B3C4CB
:101AB000A4029167938707E8BE94A167938707D034
:101AC000B3C4F402EF80610297D701009387070D3A
:101AD0006DB597D701009387A70B856403AB07000B
:101AE0009384843855B5130B0000954471BD3A8931
:101AF000D5BDB387FC409399070193D9094181BFB4
:101B00000965130505713385A9028DBF3385B7417A
:101B100063E4FC003385FD40330585033344B5039E
:101B20006345830013150401A9BF4E8536C642C420
:101B300032C2EF808146DA85EF800117EF80C13F26
:101B4000931E050193DE0E41B307D941C207C1833D
:101B5000056E3E871246224889482943B24663E310
:101B6000C701368742074183631A2701130719000B
:101B7000634430011307F9FF42074183FD1A93FACA
:101B8000FA0FCA8BCE85E3940AF62394E18259BFFB
:101B90000145CDBDB717004003D587005D7186C6EE
:101BA00042054181A2C4A6C2CAC04EDE52DC56DA4A
:101BB0005AD85ED662D466D26AD06ECE02C6937709
:101BC000050C13070008638BE71413070004639FD9
:101BD000E710B7240D8F7D8993840480B3D4A402C9
:101BE0009167938707E8BE94A167938707D0B3D422
:101BF000F402EF70916F97D701009387A7F9904394
:101C0000D443EF701123EF8061502A89939A040125
:101C100003DBA18293DA0A0163150B00056B130B3A
:101C20000B80B7170040130770052380E7041307E4
:101C300080FA2380E704939B040105478969056ABC
:101C40002389E704D14D014D814C93DB0B0193892E
:101C500009717D1A5A8597200020E78060C6330CF1
:101C60005541420C135C0C412395618363010C16B2
:101C7000B3079C0363D1070E050D420D135D0D01E3
:101C8000894763EAA70D63DB0C0A33059041931C77
:101C9000050193DC0C41C204C18063D88C0B09653B
:101CA000130505713385AC02B717004013077005A3
:101CB0002380E704130780FA2380E7043247239642
:101CC000E702238007043345950242054181B6406F
:101CD000264496440649F259625AD25A425BB25B94
:101CE000225C925C025DF24D61618280B1E3B77467
:101CF00089097D8993840480B3C4A4029167938782
:101D000007E8BE94A167938707D0B3C4F402EF70CD
:101D1000D15D97D70100938767E8D5B597D70100C4
:101D2000938707E7856403A9070093848438F9BD86
:101D3000130900009544D9BD3E8B29BF3385AA40C5
:101D4000131C0501135C0C41B9B709651305057136
:101D50003305AC028DBF63FEAA0033057541330520
:101D60003503A9473344750363C88700131504017D
:101D7000B1BF3385AB40E5B76285EF800122CA85EC
:101D8000EF709172EF80411B131D0501135D0D4132
:101D90003307AB41420741838565BA876363B70068
:101DA000D287C207C183639A670193071B0063440C
:101DB00080019307FBFFC207C183FD1D93FDFD0F4B
:101DC0005AC6E28CE39A0DF62395F18245B7014598
:101DD000FDBD41112A83014E930E407E130F001961
:101DE000930F400663EB6E0A930800191303400635
:101DF000B3781503854E0D4FA14F337365020D89DE
:101E00001335150063E5BE0C1308F6FF794672988A
:101E10004208135808013307C70213D61700BE073C
:101E200032976146B3F6C60213068070B386C602C7
:101E30003697A166F58F42075D8FB717004083C6BE
:101E4000F70293F60608A307D1000346F10083C604
:101E5000F70293F60608E394C6FE8346F10093F674
:101E6000F60FF1DE930670052380D704930680FAFF
:101E70002380D70423AA070383C6170393E6060823
:101E8000A388D702D8DB03C7170313670704A38807
:101E9000E70223800704410182807D133368E30356
:101EA0009308E016630E08003368F3039308D01616
:101EB000630808009378330093B818009388D81605
:101EC00033081E01131E0801135E0E0121BF639328
:101ED000E5030548638608000148630303002A8878
:101EE00071087298FD15131E0801C205135E0E01DC
:101EF000C18109BF13F8150063F4BF007908D5B795
:101F000013381800E5BF914763EEB70217D70100F9
:101F1000130747C98A05BA959C41BA978287B717B4
:101F2000004003A7470B1345F5FF698F23AAE70A73
:101F300003A7070B698F23A8E70A03A7070A798D70
:101F400023A0A70A8280B717004083A6470B134738
:101F5000F5FFF98E23AAD70A83A6070B558D23A870
:101F6000A70A83A6070A758F23A0E70A8280B717FE
:101F7000004003A7470B498F23AAE70A03A7070BD3
:101F80001345F5FF45BFB717004083A6470B13471E
:101F9000F5FF758F23AAE70A03A7070A598D4DB7E6
:101FA000B717004003A7470B498FEDB7914763EE82
:101FB000B70217D70100130727C08A05BA959C41BD
:101FC000BA978287B717004003A7470D1345F5FF5F
:101FD000698F23AAE70C03A7070D698F23A8E70CD5
:101FE00003A7070C798D23A0A70C8280B7170040A8
:101FF00083A6470D1347F5FFF98E23AAD70C83A6B6
:10200000070D558D23A8A70C83A6070C758F23A059
:10201000E70C8280B717004003A7470D498F23AA1A
:10202000E70C03A7070D1345F5FF45BFB7170040A1
:1020300083A6470D1347F5FF758F23AAE70C03A767
:10204000070C598D4DB7B717004003A7470D498FAF
:10205000EDB7B717004003D587004205418193775C
:10206000050491EB9377F5013755E80113050580D9
:102070003345F50282809377050C130700046397BC
:10208000E7009377F50137459C1CCDB72165130513
:1020900005D08280B7F700E0C8439C478280814723
:1020A00037370040A14663C4C700328582800345AC
:1020B000B740E38EA6FE3385F5000345050085078E
:1020C0002304A740CDB71A05B73700400947136569
:1020D00055002380E7C01375F50F2380A7C08280C9
:1020E000411122C406C62A84AD372947B307E50249
:1020F000B2408D83B3D7870222449507B3D7E70256
:1021000037370040C207C1832316F70041018280A0
:10211000716541111305052006C6D937B737004050
:10212000130770F82381E7000D47A381E700130729
:102130000004A380E70005472387E700B240410180
:10214000828037370040834727001A0593F7F7034B
:10215000C98F93F7F70F2301F7008280B73700404C
:1021600003C7170019C9D98DA380B70003C707009B
:10217000136787002380E700828093C5F5FFF98D00
:10218000A380B7008280B73700402147B7360040B0
:1021900091E1828003C6B700E30CC7FE0505034644
:1021A000F5FFFD15C2052384C600C181D5B74111D5
:1021B00022C406C62A84713D2947B307E502B2400E
:1021C0008D83B3D7870222449507B3D7E702373709
:1021D0000040C207C1832316F74041018280716528
:1021E00041111305052006C6D937B737004013073C
:1021F00070F82381E7400D47A381E74013070004EF
:10220000A380E74005472387E740B2404101828031
:1022100037370040834727401A0593F7F703C98FE4
:1022200093F7F70F2301F7408280B737004003C7C9
:10223000174019C9D98DA380B74003C7074013675A
:1022400087002380E740828093C5F5FFF98DA38046
:10225000B74082802386018223A80182B7170040FD
:1022600003A7070CB706C0FFFD16758F23A0E70C68
:1022700003A7070DB7064000558F23A8E70C03A757
:10228000070C3D9B23A0E70C03A7070D136707016D
:1022900023A8E70C828023A8A18213064006894563
:1022A00003C541836F30A114B717004003A5470C45
:1022B00083A7470C598113451500C18B058999E304
:1022C0001365250083C7C182638CA7002386A18282
:1022D00001C99387018303A30700630303000283FB
:1022E0008280411106C6EFF0AFE2BD4763F4A7005C
:1022F000EFF00FE24530BD4763F3A7006138B2400D
:1023000083D5A18203D5818241016F30E11C411147
:1023100093962500AA852D4506C697200020E780C4
:1023200080ADB240014541018280411126C29394A3
:10233000250022C44AC02A843289A686AA8501467D
:10234000254506C697200020E780E0AAA6864A8693
:10235000A285294597200020E780E0A9B2402244C9
:1023600092440249014541018280011122CC06CEEE
:102370003714004026CA4AC84EC652C48344740566
:10238000034AB4058349840503499405EFF0CFD58A
:102390008347A40593F4F40F137AFA0F93E7170019
:1023A000230DF40493F9F90F1379F90FB7170040CF
:1023B00003C7A705058B6DFF03D5C705A38D47058B
:1023C000238C3705A38C2705A38B9704F240624426
:1023D000D2444249B249224A056182804111939711
:1023E000050122C406C6C1872E8463DA0700EF20E8
:1023F000513219C1EF20512B2165218D1DA093F77A
:10240000150013C5150091EF93F7250099CF693D8D
:102410001306000A894503C54183EF20517D13450A
:102420002400B2402244410182809397250163D069
:102430000702EF40D10C753537F60200130606E0AF
:10244000896503C54183EF20917A09657DB793972C
:1024500015010145E3D707FC17C501001305857B6E
:10246000EF80B12A13060064916503C54183EF2014
:102470001178116559B71D71494697C501009385BB
:10248000E57417D501001305656386CEA2CCEF2055
:10249000D15C01E917C5010013058574EF80F126B1
:1024A00001A037F700E0F9575CC7FD571CCB056466
:1024B000B7E700E023A087109306701014C3B84359
:1024C000C146B4C323A08718B8C301000100130696
:1024D000C00381454808EF20315797470020938774
:1024E000A7803ECAED47A301F1029307A010231273
:1024F000F102D1472303F102A167938707E03ECEA3
:10250000970700009387E7E0BEC497070000938712
:1025100007E2BEC685472304F102B5472308F1024E
:1025200097070000938747B73EDAB7F5070097078C
:1025300000009387C7E33EDE81469707000093873C
:1025400087DA7000E1051945BEC0231C8100972081
:102550000020E780408A58088147994670003E96DF
:102560000346060085070507A30AC700E398D7FEC0
:10257000D24791C70357810185676373F70001A0B4
:102580004808EF30210BAA8501C917C501001305C2
:102590006566EF80D10201A0F64066442561828025
:1025A0004111170500001305A5E306C622C4EF304C
:1025B000E104138441832300A400312861390345D9
:1025C00004002244B24037F60200130606E0896593
:1025D00041016F20D161411106C622C493067005E6
:1025E000371400402300D404130780FA2300E404C6
:1025F0008347F40293F7A70FA307F4022300D40440
:102600002300E4048347F40293E72700A307F402BE
:10261000C9391305407E23000404814701478146E0
:1026200005468545EFF0EFFA2244B24001454101ED
:102630006F30A1268280411197C501009385856185
:1026400017C501001305057306C6EF80417717C54E
:1026500001001305E573EF808176B2402945410101
:102660006F80017A411197C501009385E55F17C519
:1026700001001305257006C6EF80617417C50100BF
:102680001305056EEF80A173B240294541016F80AB
:102690002177411197C501009385455E17C501005B
:1026A0001305456D06C6EF808171B2402945410191
:1026B0006F800175797122D426D24AD02E842A895E
:1026C000B28481457146480006D6EFF08F85973772
:1026D00000209387E787DC4783D707002314210175
:1026E0002313F100EF00B04B8547A305F1009307DA
:1026F00000192305A1003EC62686FD57A285480085
:10270000230AF100EF00104CB250225492540259A7
:1027100045618280411122C406C6834705002A8490
:102720009DC397C501009385E55917C501001305A1
:102730006564EF80C1684C4017C501001305457AF8
:10274000EF80E16751A85841B707CF009387777DA5
:102750006316F71A97C501009385C55617C5010082
:1027600013054561EF80A1650356E4000C4417C5CD
:10277000010013056578EF8081642945EF80416889
:102780000356C4000C441385C10F97200020E78036
:1027900020CD83C7C10F1307200A638AE700130700
:1027A000300A6380E712B24022444101828003571D
:1027B000C4008D4797C501009385C55017C501001A
:1027C0001305455B6300F702EF80615F17C50100E9
:1027D0001305C573EF80A15E2244B2402945410133
:1027E0006F800162EF80A15D17C50100130585733D
:1027F000EF80E15C2945EF80A1600355E400930779
:1028000020F805469385C10F238EF10E6535937729
:10281000F50F2A8495C797C501009385A54A17C56A
:10282000010013052555EF8081599375F40F17C5E5
:1028300001001305E572EF8081582945EF80415C66
:1028400097C501009385054817C5010013058552FA
:10285000EF80E15617C501001305C571EF802156C1
:102860002945EF80E1594165930730FA0546938584
:10287000C10F7D15238EF10E353D9377F50F2A8418
:1028800095C797C501009385E54317C5010013055A
:10289000654EEF80C1529375F40F17C50100130503
:1028A000256CEF80C1512945EF80815505661306DF
:1028B00006C889452244B24003C5C18341016F2047
:1028C00011330357C40085476301F70297C5010020
:1028D0009385453F17C501001305C549EF80214E7B
:1028E00017C501001305456CF5B58357E40005666F
:1028F000130606C82393F18491456DBFB707CC003A
:102900009387777D631AF70297C501009385853B0E
:1029100017C5010013050546EF80614A1C44835624
:10292000E4008355C40003C6070017C50100130562
:102930006569EF80C1484DB5B707CE009387777DB5
:10294000E303F7E697C501009385C53717C5010076
:1029500013054542EF80A1464C4017C50100130501
:102960006568F9BB411122C406C6834705002A8465
:1029700085CB97C501009385A53317C501001305C5
:10298000653FEF80C1434C4017C501001305054C5E
:10299000EF80E1422244B240294541016F80414627
:1029A00058411DEF97C501009385853017C501007B
:1029B0001305453CEF80A14017C501001305854A6A
:1029C000EF80E13F2945EF80A1432244B2401166E8
:1029D00003C5C183130606E8894541016F203121F3
:1029E000A1679386D7036311D70297C5010093852A
:1029F000252C17C501001305E537EF80413C17C5AD
:102A00000100130525476DBFED0797C501009385AC
:102A1000252A17C501001305E5356315F702EF8078
:102A2000013A17C5010013052546EF8041392945B4
:102A3000EF80013D2244B24003C5C1838945410175
:102A40006F20F123EF80A1374C4017C5010013051B
:102A500065593DBF411106C6EF90C02319E5EF103F
:102A6000905EB24041016F209018B24041018280D7
:102A7000411197C501009385E52217C50100130593
:102A8000652F06C6EF80A1332945EF806137B2403C
:102A90004101C9B7411122C417C501001305852D95
:102AA0002E8497C501009385251E06C6EF8021312F
:102AB0002945EF80E13405C897C501009385C51C01
:102AC00017C501001305052BEF80612FA28517C5DF
:102AD00001001305E53EEF80812E2244B2402945D6
:102AE00041016F80E131B2402244410182800111F5
:102AF00022CC2EC62A8497C501009385A51917C537
:102B000001001305252706CEEF80612B3246A285F2
:102B100017C501001305853BEF80612A2945EF8029
:102B2000212E83C7818481EF972700209387474216
:102B3000DC4703D70700C167FD17631DF700624438
:102B4000F240116603C5C183130606E88945056195
:102B50006F20F109F240624405618280797122D4CC
:102B600006D626D293F715002E84BDC397440020C5
:102B700093848417838704008DC797C701009387C8
:102B8000A7098C43938701858843EF702109634A25
:102B9000A000A6856800EF80013851466C0005450D
:102BA000113E25468145174500201305E513EFE04A
:102BB0005FB7096613060690854503C5C183EF20FC
:102BC000110313451400B25022549254456182807F
:102BD00093F725008DCB97C501009385A51117C5E7
:102BE000010013052519EF80811D17C5010013058C
:102BF000E502EF80C11C2945EF808120EF204023B2
:102C000013452400C9B793F745000145CDDF85453D
:102C100003D56184EFE0604797C501009385850D7A
:102C200017C5010013050515EF80611917C50100CF
:102C300013050500EF80A1182945EF80611C13459D
:102C4000440051B70111354697C50100938585159C
:102C500017C501001305456506CE22CCEF20E15FC4
:102C600001E917C501001305A5F7EF80012A01A0AE
:102C7000972700209387C77D3EC4B7F50700856777
:102C800093870780814613860184E10519453EC676
:102C900097100020E780201619469385018413853C
:102CA000C11197100020E780A07B340013860184B7
:102CB00097C501009385453817C5010013054539AF
:102CC000EF10B0622A840DC997C501009385850174
:102CD00017C501001305050AEF80610EA28517C50F
:102CE00001001305250DEF80810D2945EF8041116D
:102CF000F240624405618280EF70F05917C501000F
:102D000013058500EF10C003EF40B065EFE0A06051
:102D10001725002013058521EFE0804D17C5010020
:102D2000130585FFEFE0E0602A84EF10605DEFA0FF
:102D30000006EF00217DEF200073EF10F037EFC0A9
:102D4000E06297C501009385E5F917C501001305F9
:102D5000650209C8EF80A106A28517C50100130509
:102D6000A50751B7EF80A10517C501001305050997
:102D7000EF80E1042945EF80A108EFC08045854739
:102D80002384F184EF80107129C597C501009385D4
:102D900065F517C501001305E5FDEF80410217C574
:102DA000010013052507EF8081012945EF804105CA
:102DB00097C50100938505F317C50100130585FB31
:102DC000EF70F17F17C5010013050507EF70317F24
:102DD00029BF4931F1BF411117050000130545D83E
:102DE00006C622C4EF2091011384C1832300A400EE
:102DF000172500201305C515EF001014A135EFF0BD
:102E00006FC51705000013052583EFF0CFC80345F4
:102E100004002244B24013060064854541016F203E
:102E2000015D411122C4371400408327840C06C67B
:102E3000854593E707082324F40C4145EFF00F97ED
:102E40008D4513050008EFF06F96EFF06FAC832708
:102E5000840A85451305001093E707202324F40A0C
:102E6000EFF06F8A8D4513050020EFF0CF89EFF06A
:102E70000FB70145EFF0EFAC95450545EFF00FAE0C
:102E8000B707000437E400E02320F4100145EFF019
:102E90002FB895450545EFF04FB9B7070008232037
:102EA000F410B2402244410182804111054506C61A
:102EB000EFF06FA1B73700407D5723A6E7C003C7E7
:102EC00027C0136727002381E7C0B240B7E700E0BF
:102ED000054723A2E71041018280411122C4371423
:102EE00000400327C40A26C2A16406C6458F2326D4
:102EF000E40A794597100020E78040B88327840AC8
:102F0000C58F2324F40A55379387018580439305A1
:102F100000002285EF60D14A05C12285EF7041147F
:102F20002244B24092442A86AE8617C5010013059A
:102F3000E50C41016F70B168B240224492444101F6
:102F400082800111354697C501009385A5E517C517
:102F500001001305653506CEEF20213001E917C5C4
:102F600001001305E50BEF70517A01A0EF40B17835
:102F70002AC6EF00311BEF00617AEF708001F2404A
:102F800032450561828041111305800406C6971001
:102F90000020E78080978D452165EFE0DFF6513511
:102FA000371700408327C70CB70640008945D58FE7
:102FB0002326F70C37054000EFE05FFF17D501002F
:102FC0001305C5AFEF70717417C501001305C52D4A
:102FD000EF70B173EFF02FCAEFF08FDC9D37E53B58
:102FE000E93597100020E78020AE0145828041112D
:102FF000B2862E86AA852D4506C697100020E7804A
:1030000080DFB240014541018280AE860146AA853B
:10301000254517130020670003DE9307000463E6CD
:10302000C7021D71A2CC2A84080886CE32C6EF7072
:10303000412EB2461008A285294597100020E7804E
:1030400080DBF64066442561828039558280938713
:10305000C18518429C4383D645000345070083C5BC
:10306000C700035646006396A50083D5E700638D2D
:10307000D502011106CE2386A7002397D700B705F6
:10308000CF00DC4B9385757D05077D162EC223008E
:1030900001003AC42316C1002317D10099C30A8541
:1030A0008297F2400561828082806D713C083EC645
:1030B000B707E500232291103EC8AA843C08328558
:1030C000232611103ECA23248110232021112E898A
:1030D000EF2000592A8497C501009385A5FC17C5E8
:1030E0000100130525C9EF70914DA28517C5010098
:1030F0001305450BEF70B14C2945EF707150B705C2
:10310000CB009385757D6800EF00303DA285680097
:10311000EF20A04A014781467000CA852685EF004E
:10312000105C15C52A8497C501009385A5F717C5BE
:103130000100130525C4EF709148A28517C5010051
:1031400013050507EF70B1472945EF70714B8320D8
:10315000C1100324811083244110032901105161FF
:1031600082809387C18518429C43797122D406D608
:103170000348070083C807012A8483D64500035506
:1031800046006396080183D82701638DD8022388FF
:10319000070105072399D7003708CC00DC4B13083B
:1031A000787D3ACC1307F5FF42CA23080100231E9D
:1031B000E100231FD10099C7080832C62EC48297A8
:1031C0003246A2452285D535B250225445618280CF
:1031D0006D713C083EC0B707E5003EC23C083EC4E6
:1031E000232611102324811023229110231701007C
:1031F0002318010023190100231A0100231B0100D9
:103200009727002083D747DA99E3C167FD17231674
:10321000F1009727002083D747D981EB9387C18599
:103220009C439C43DC4783D70700172400201304EA
:10323000A4D7584C2317F10083574400484B231858
:10324000F10005ED97C501009385C5EC17C5010098
:10325000130545B2EF70B13617C501001305C5EC73
:10326000EF70F1352945EF70B1398320C110032487
:10327000811083244110516182809727002083C7E9
:1032800017D399E7EF1051425C4C23AA0700F1BF16
:10329000FD1797260020A38CF6D00356070183471D
:1032A00004014C470A85230BF100EF20202F938760
:1032B000C1859C430147814688430A866C00EF0024
:1032C0001042AA8405C997C501009385A5E417C5D6
:1032D0000100130525AAEF70912EA68517C50100E0
:1032E000130545E5EF70B12D2945EF7071315C4C48
:1032F000C84B49BF9727002083C777CBEDDB10442D
:10330000854503C50186EF20810E85B7DC4DDC4B7A
:1033100099C7904503C5018691456F20410D828074
:103320005C4EDC4BA1C7B9C1411122C417C50100D5
:10333000130545A42E8497C501009385E5DB06C6D9
:10334000EF70F127A28517C501001305E5E0EF70C6
:1033500011272945EF70D12A2244B24003C50186C6
:1033600013064006914541016F206108828041119A
:1033700022C417240020130424C11C4C06C689C78C
:10338000DC4399C34C4882975C4CC84BEF10D13159
:103390005C4CB240224423AA07004101828013877B
:1033A000A180834707009306F00B850793F7F70F7B
:1033B00063E7F6002385F1800345070082809307C9
:1033C00000F8CDBF83574500638D070C01114AC833
:1033D00017290020130949BD52C4032AC90106CE8A
:1033E00022CC03274A0126CA4EC6F15729EB130700
:1033F000D00DFD576365C7042A8413058600420576
:103400004181B284AE89EF10F12C232AAA00032552
:10341000C9015C4995EF97C501009385E5CB17C5B8
:10342000010013052595EF70911917C501001305CB
:10343000E5DAEF70D1182945EF70911CDD57F240A5
:103440006244D2444249B249224A3E8505618280A3
:1034500093874400B705CF002319F5009385757D48
:103460003105EF0090070325C9018345640031054C
:10347000EF20A0140325C9012686CE853105EF2053
:10348000E0117146A2854A85EF60B168504401CAD7
:10349000854503C50186EF10917581474DB70D3BFA
:1034A000EDBFFD573E858280411122C417240020C4
:1034B000130484AF5C4C06C6C84BEF10F11E5C4C85
:1034C0002244B24023AA070003C501868545410175
:1034D0006F10F17A411126C29384C1859C4006C6C3
:1034E00022C4BDCFDC43ADCF5CC12300B5002A842C
:1034F00097C50100938585B917C501001305858718
:10350000EF70F10B2945EF70B10F9C4023A4070029
:1035100023A2070097270020938707A7DC4FDC4BE7
:1035200099C32955A935972700209387E7A7DC4F32
:10353000DC4B91C3953F894503C50186EF1031747B
:10354000914503C50186EF1091739C4003A3470189
:103550006308030022852244B24092444101028361
:10356000B24022449244410182800111328506CE4C
:1035700022CC26CA2E84EF20A00EAA8497C5010073
:10358000938505B417B501001305C57EEF703103AF
:10359000030784000356640083554400A68617C5BC
:1035A0000100130565BDEF7091012945EF705105CC
:1035B0009727002083C7A79D639797000145453B48
:1035C00081450A85013FF2406244D2440561828010
:1035D0006D7123248110232611102322911093F75B
:1035E00045002E84638007123C083EC0B707E50003
:1035F0003EC23C083EC423170100231801002319D2
:103600000100231A0100231B01009727002083D704
:10361000A79799E3C167FD172316F10097270020AC
:1036200083D7A79681EB9387C1859C439C43DC4756
:1036300083D7070017270020130707952317F100EA
:10364000544F835747002318F100DC4A95EF97C584
:103650000100938525AB17B501001305A571EF7027
:10366000017617C50100130525ACEF70417529459A
:10367000EF700179134544008320C11003248110A9
:1036800083244110516182809727002083C737909F
:103690002555BDC7FD1717260020A30AF68E03D6B1
:1036A000060183470701CC460A85230BF100EF1082
:1036B000F06E9387C1859C43172700201307C78CA2
:1036C00097D601009386468F88430A866C00EF00E8
:1036D0001001AA8445D197C501009385A5A217B50D
:1036E000010013052569EF70816DA68517C50100DE
:1036F000130545A4EF70A16C2945EF706170268514
:10370000BD318DBF93F7250099CF414681452808EB
:10371000EF1091332555A13928089305F00F5D3B33
:103720001345240091BF93F715000145B1D7EFF081
:103730003FAA1345140089B75C4D411106C688C3E2
:1037400017050000130505E923AEF184EF10116B96
:10375000B2402380A18601454101828083C77186E2
:1037600099EF9307A00A6314F5189307A0FA173787
:103770000020230DF75A8547A383F18682800547F1
:103780006398E7009307F00F6313F5168947EDB7C9
:1037900009476398E7009307100F631AF5148D47E4
:1037A000E1BF0D476397E700C1476312F5149147E6
:1037B000E1B71147639DE700C147630AF5129547DA
:1037C000A383F18697370020238CA7568280154764
:1037D000639DE700C147630CF5109947A383F18609
:1037E00097370020A38EA75482801947639DE70076
:1037F000C147630EF50E9D47A383F18697370020DE
:103800002381A75482801D47639DE700C147630061
:10381000F50EA147A383F18697370020A383A75213
:1038200082802147639DE700C1476302F50CA547ED
:10383000A383F186973700202386A75082802547EF
:10384000639DE700C1476304F50AA947A383F18696
:1038500097370020A388A74E82802947639DE70001
:10386000C1476306F508AD47A383F186973700206B
:10387000238BA74C82802D47639DE700C1476308D7
:10388000F506B147A383F18697370020A38DA74A99
:1038900082803147639BE700C147630AF504B5475F
:1038A000A383F1862384A18682803547639BE7004A
:1038B000C147630EF502B947A383F186A384A186AD
:1038C00082803947639BE700C1476302F502BD4729
:1038D000A383F1862382A18682803D476399E70016
:1038E000C1476306F500A3830186A382A186828077
:1038F000EFD29FDE2A8408452E89B28909C900C10A
:10390000970500009385C5736105EFF090528144DF
:103910007D5AEF10A00363C3A4048144EF10000498
:1039200063C6A40497370020938747429C43DC4733
:10393000B307F94091872302F400638109048327C8
:10394000C900B307F4409587A302F4001C4C89C753
:103950009C4799C3228582976FD05FDB5C441397A5
:1039600014008504BA972390470165B71C48139744
:1039700014008504BA97239007004DB78327890068
:103980000547B307F4409587A302F400835704006A
:10399000638EE7028DC309476384E7040D47E3970D
:1039A000E7FA97C701009387E7DE1CCC97C70100B1
:1039B000938747DF11A897C70100938727A51CCCE1
:1039C00097C70100938787A55CC849B797C70100CF
:1039D0009387C7901CCC97C7010093872791EDB7B9
:1039E00097C701009387C7DF1CCC97C70100938757
:1039F00027E0D9BF85E1EFD2DFCF004618448347E7
:103A0000940075839D8B6315F700EF00901948C4EF
:103A10006FD07FD08280EFD23FCC13893500C16454
:103A200042094111AA890144F11413590901054AB7
:103A30002EC6EF00B071B2456346A40001454101B6
:103A40006FD0DFCC83A7090013171400BA9783D770
:103A500007006388B7006394970063742A01050424
:103A6000C1BF0545E9BFEFD25FC6AA892E89328B57
:103A7000B6843A8ABE8AEF80E0214DC12685EF10D8
:103A8000D02D8D4763E5A7007D556FD09FC783DBA1
:103A90004400EF00B0712A84EF0090729307740025
:103AA00031443305850263C5A702EF003070EF0093
:103AB000F06F2A84EF00D07093077400314433050F
:103AC000850263CDA702EF00706E9307450019A829
:103AD000EF00106F330585021307F0179307C01727
:103AE000E357A7FC2D55E3C277FB63000B02D68694
:103AF0005286A6854A85EFE0303741BFEF00506C13
:103B0000330585029307C5FFF1BF8327490013855D
:103B1000C90083D52700013779F9BDB76955B5B715
:103B2000973700202396A7229737002093870722F4
:103B3000904381470C463307F50042074183639366
:103B4000B70082805446139847008507C296239099
:103B5000E600D5B7973700209387471F9C4303C5DE
:103B600087008280173500200355851E8280EFD2A2
:103B70005FB8C1671387D7FF6307E5026368A700D3
:103B8000F117630EF50001456FD0FFB81387E7FF0B
:103B9000630EE500FD171D8D13351500F5B7EF40D9
:103BA000C0347D15D5BFEF404012E5BFEF40A010F7
:103BB000CDBFEFD21FB44111AA8401442EC6EF003D
:103BC000F059B2456346A400014541016FD0BFB42E
:103BD0009C48131514003E9583570500E387B7FEF4
:103BE0000504E9BF03485500814693F7F60F63E5E6
:103BF000070181473E858280584593975600BA97C2
:103C000003D727006316B70003D70700E304C7FEF6
:103C10008506E1BF8346450001479377F70F63E4CC
:103C2000D700814711A81C45131657000507B29706
:103C300003D60700E313B6FE3E858280EFD2DFA9EC
:103C400093170501C187973A0020938A2A1063537E
:103C5000F00883A70A00C0479C4703570400198D4A
:103C6000420541816366F500014422856FD01FAA99
:103C700012052A94DDBFDC4713944900014A3E94A3
:103C8000834744006341FA02014A83475400634674
:103C9000FA028509C20993D9090183A70A00984746
:103CA000E3EBE9FCD1B71C4413195A00A6853E99F1
:103CB0004A85013709ED050AE1B75C4413195A003A
:103CC000A6853E994A85F53519E1050A7DBFE302CF
:103CD00009FC61BFAA848149C9B7EFD29FA11C45E5
:103CE0002A8481E79307C5001CC51C4423120400E5
:103CF0001CC09307F00F63E9B70093F5F50F228519
:103D0000EF10B00B6FD03FA193940501C167C18044
:103D100063F7F500A6852285EF10D00DE5B7C181C8
:103D200093F5F50F2285EF105009A6852285EF1037
:103D3000100AC9BF973700209387470188438280C4
:103D40001C4599C79737002023A2A7000145828010
:103D50007D55828097370020938747FF984383479C
:103D60004500484792073E958280EFD29F98617147
:103D700000451C183EC6B70780013EC81C183ECA45
:103D80008357440002CE02D002CC231EF1008347A9
:103D900084002A8902D22301F1023C083ED402D6D3
:103DA000553F835705002316F102EF309063230738
:103DB000A1025C4003556400F18313F717008347A9
:103DC000F10252055181F99BD98FA307F102EFE06F
:103DD000007B39C5AA8403550500EF70906C83D72A
:103DE00004002AD26800231CF10083D72400231D7D
:103DF000F1001C4803D647008C43EF10207A83471C
:103E0000B400CA8617B601001306C6468117A3057B
:103E1000F4006C004810EFE030055D616FD0BF8F9B
:103E20002155E5BF1C45B1CF03C5A70089461357EF
:103E30006500630BD7028D46630ED702854663008B
:103E4000D702130740063305E50203C7B700418BCD
:103E500015CB83C7B700BD8B3355F54082801375F2
:103E6000F5031307803EC5B709671375F5031307FC
:103E70000771D1BF372709001375F5031307077CB6
:103E8000D9B701458280EFD2DF8603A9850063049C
:103E900009048347B900AE8493F7070E91CF034519
:103EA0009900930520030D810505B305B5028844EB
:103EB0006105EFF0F00305A02E85AD372A8401CD12
:103EC000CD218325C900B307B54063F887002E9440
:103ED000B305A440E9FD6FD01F848545C9BFEFD26B
:103EE0005F812A8403D50500011132C636C43AC267
:103EF0002EC002CA02CC02CEEF70B05A82452ACA46
:103F000022852ECC813D03570500231EE100EF30B2
:103F1000504DA24632469247230FA10036874C08E7
:103F2000B28622850146EFF01FB405616FD0AFFE67
:103F3000EFD22FFC61711C183EC6B70780013EC846
:103F40001C183ECA3C0800453ED4AA8402CC02CECE
:103F500002D002D202D6FD3B835705003559231605
:103F6000F102EF3010482307A10209C4835744002F
:103F700091E721594A855D616FD0EFF903556400DF
:103F800052055181EFE0A05F2A8965D58347B400CF
:103F900093F7070E89C713058401EFF0E076835786
:103FA0004400231EF100834784002301F1025C409A
:103FB00003550900D98313F7070883471102231C0F
:103FC000A10093F7F707D98FA300F10283572900C7
:103FD000231DF1005C40F18313F717008347F102C2
:103FE000F99BD98FA307F102EF70B04B2AD251D1C0
:103FF000834794006800139757008347B400FD8BF4
:10400000D98FA305F4001C4803D647008C43EF105A
:10401000E058A68717B701001307C72574000546A7
:104020004C102685EFF03FA42A8929D58347B40098
:10403000A685FD8BA305F400B9352DBFEFD26FEB3C
:10404000832485FE2A8441112685E93B834734FF7A
:1040500093F7070E9DC32AC62685EFF01FD119C915
:10406000834734FFB245FD8BA309F4FE81C5228549
:10407000EFF0006841016FD00FEA6DDD8327C4FFC8
:104080002685829765F9834734FF93F7070E81C72A
:104090002285EFF06067032584FE593DE1BFEFD232
:1040A0004FE29C4141112A8903C7070089472E84AA
:1040B00093566700638CF6020D466382C60493072D
:1040C000F0076302F7022E85EF108059AA84814918
:1040D000C16B130C490097370020938727C79C4377
:1040E000984763ECE90241016FD06FE103D74500C7
:1040F0008547E3FAE7FE2E85EF10605AC1BF03D76C
:104100004500E3F2E7FE2E85EF108055AA84228554
:10411000EF106056C204C98C5DBFDC470355A9008F
:10412000139A49003E9A93170501C187635DF00019
:1041300083570A006395A70263E574038327CA00C7
:10414000034D5A001DA0A1672167A98F1307F7EF40
:10415000E374F7FE63950900EFF07FA171FD850917
:104160009DBF83278A00034D4A00835DA900035742
:104170006900216A138BC7003AC6814A33CA4D01D0
:10418000631E5D01973700209387C7BC9C43E1DB2A
:10419000A2866286814526858297D1B7A1679387DB
:1041A000F7EF930C4BFF63F04703B2455A85EFF0EE
:1041B0009F8619CD03278B00104719CA10436380CF
:1041C000C4023107D5BFEE856685EFF09F9E71FD75
:1041D00093861A0093FAF60F130B0B0255B783560A
:1041E00044005C43E3EDF6F622853AC6EF10403614
:1041F000A1679387D7042A8A035D4400324763E8A6
:1042000097008347D90093E707F8A306F9001C47F6
:1042100066852286E2858297C1670844FD17337A56
:10422000FA00529508C02312A40115BF9737002049
:104230009387C7B19843814715C31447814763FFEC
:10424000D500939745004C47BE9519C903C7550043
:1042500081476375E600DC451606B2973E8582808D
:1042600003C745008147E37BE6FE16069C45F5B78C
:10427000EFD28FC6AA892E8A8144973A0020938A6A
:10428000EAAC83A70A00984763E4E4006FD00FC844
:10429000DC471394440001493E9413BB1400834748
:1042A0004400634BF900014913BB140083475400D9
:1042B000634FF9008504F1B70844931759005287FA
:1042C000DA860146A2853E9582990509C9BF484410
:1042D000931759005287DA860546A2853E95829942
:1042E0000509E9B7EFD2EFC0814517F5FFFF1305C8
:1042F000656097370020239D07A49D3F6FD0AFC115
:1043000097370020938787A49C4399CBEFD26FBE49
:10431000814517F5FFFF1305E55D993F6FD0AFBFEE
:104320008280EFD26FBB41112315E1002E89B28448
:10433000B6893A8681460147ED452A84EF10510B34
:104340002AC61DCD0356A100CE85EF50917CCA85AB
:104350002285EF10F11D058915C1228501462C002B
:1043600023149100EF1091332A8409C5ED452800EC
:10437000EF109116228541016FD04FB94944FDB726
:104380006554CDBF5C41FD175CC18280EFD26FB632
:10439000EF00917295473305F50281450D816FD08D
:1043A0008FB7EFD20FB5EF00317195473305F502A6
:1043B0000D816FD04FB6EFD2CFB303550500EF108C
:1043C000615F6FD04FB5EFD2CFB203550500328792
:1043D000AE8617160020035606C497350020938535
:1043E000A59781376FD02FB3EFD2AFB0EF40115404
:1043F0006FD06FB2EFD2EFAF973500209385C595A0
:10440000EF10B13001456FD00FB1EFD28FAE8145C3
:1044100017150020035525BCEF10B11B6FD0AFAFAF
:10442000EFD22FAD9735002093850594EF10F12D35
:1044300001456FD04FAEEFD2CFAB814517150020AD
:10444000035565BFEF10F1186FD0EFACEFD26FAA34
:104450002E85EF60A063EF60A06C6FD0CFABEFD282
:104460004FA9EF6060746FD00FAB5C49E1175CC976
:104470005CC583572501A1072319F5008357050162
:10448000A1072318F5008280F1473305F50297371D
:1044900000209387678F9C433E9582808D476317EA
:1044A000F60603D74600854763F2E706EFD26FA40E
:1044B000368536842E89EF10A01A39C183574400FF
:1044C00093140501C18063ED97022285EF10401916
:1044D000FD14231294009307A002630EF5009307C6
:1044E000B0026301F50293079002631BF500228579
:1044F000EFC0305831A00146CA852285EF70306A7E
:104500006FD06FA12285EF009056DDBF8280973675
:1045100000209386A6879C42014599CF9843D442B8
:10452000173600202324E6866396D70097360020AE
:1045300023A0E6861385C7FE8280EFD28F9B7D2E57
:104540007144330585029145EF70803D01E5655565
:104550006FD06F9C9737002023A6A782452633058E
:1045600085029145EF70C03B7DD19737002023AD88
:10457000A7806926973700202390A7804126972798
:104580000020239CA77E97B701009387E7D31727C6
:1045900000202327F77E97070000938747ED172712
:1045A0000020232DF77C014565B7EFD28F94AA85B3
:1045B000172500201305457CEF10601E6FD0AF95C6
:1045C000EFD22F93DD37EF10001F9727002093873E
:1045D000E77B9C4381CF1387C7FE09CB83D5C7FFF9
:1045E000172500201305057BEFF080106FD0AF92E8
:1045F000EFD22F90293F11C9834785002A8493F772
:10460000070491E70355E500653F6FD0CF908347DE
:10461000C50093044501172900201309297785E374
:10462000832709005CC99727002023A19776832759
:104630004900E1FF9727002023AC9774F9B7FD17D5
:104640002306F5006105EF60A05B8307840063C962
:1046500007048347840093E707F82304F400EF007E
:10466000F1214205A94741813375F5028347840052
:1046700093F707FCC98F2304F4008347D4003E95C9
:104680001C402318A40089CF984319CB8347C4004A
:104690005040814585073305F50242054181029767
:1046A000832709005CC89727002023A1976E8327E2
:1046B000490089E79727002023AC976C8347C40003
:1046C000A9D783550401172500201305A56CEFF029
:1046D000200225BFEFD2EF81973700209387078014
:1046E0009C4701448583858B81EFAE84B2853A86F1
:1046F000EF10C0112A8409C5EF10C008829408CCBD
:1047000022856FD04F81EFC23FFD41112E8932C605
:10471000AA89692C324713060502CA86970500004C
:104720009385C5D6172500201305056565372A84AE
:1047300029CD9304C50065261946AA852685EF0074
:10474000F06585452685EF00D06217B50100130599
:1047500065B54E95834505002685EF0010665C48DB
:1047600031468145A1075CC85CC483572401E11729
:104770002319F40083570401E1172318F4001C4C9B
:104780003E85EFC01FFAA3042501228541016FC0B9
:10479000FFF7EFC21FF64111AA842EC632C4EF10F4
:1047A000C000004DB2452246834784000CC050C073
:1047B00093F7F70393E707042304F4002318040096
:1047C0002685EF00307C83479400A9462317A40078
:1047D00013D7370005073307D7029D8B85072306BC
:1047E000F400A306E40083C70401D8488507230F1B
:1047F000F7FE17270020130767595843232A0400A0
:10480000930744011DEB172700202323F758172790
:104810000020232DF756172400201304A4572285C7
:10482000EFE0D0621C44858B5D8D09E581452285D2
:10483000EFE0106C41016FC01FEE1CC31727002072
:104840002328F754C9BFEFC2DFEA9705000093851C
:1048500025C50145EFF09FBF01456FC0DFEBEFC2FB
:104860005FE9EFF0DFBF6FC01FEB8347C500A1E733
:10487000EFC23FE82A840355E500EFF01FD315C9C6
:104880008347840093F7F7FB2304F4001C4091C78F
:10489000DC4381C74C4001458297EFF05FC7172585
:1048A00000201305254FEFE030660355E400EFF0DC
:1048B0003FD16FC05FE68280EFC2BFE39727002041
:1048C0009387C74C970500009385C5D21725002014
:1048D0001305454C23A0070023A20700EFE0705505
:1048E0006FC07FE31C4D91CBDC4381CBEFC27FE0F7
:1048F0008345070082976FC01FE2828097270020C0
:104900009387874B9C4303C507008280972700202D
:104910009387874A9C4303C517008280972700200E
:10492000938787499C4303C52700828097270020EF
:10493000938787489C4303C54700828097270020C0
:10494000938787479C4303C53700828097270020C1
:10495000938787469C4303C5570082809727002092
:10496000938787459C4303C5670082809727002073
:10497000938787449C4303C5770082809727002054
:10498000938787439C4303C5870082809727002035
:10499000938787429C4303C5970082809727002016
:1049A000938787419C4303C5A700828097270020F7
:1049B000938787409C4303C5B70011E11D45828062
:1049C000972700209387473F9C4303C5C7008280F9
:1049D000972700209387473E9C4303C5D7008280DA
:1049E000972700209387473D9C4303C5E7008280BB
:1049F000972700209387473C9C4303D5070182807B
:104A0000972700209387473B9C4303C5270182805B
:104A1000972700209387473A9C4303D5470182801C
:104A200097270020938747399C4303D567018280ED
:104A300097270020938747389C4303D587018280BE
:104A400097270020938747379C4303C5A70182809F
:104A500097270020938747369C4303C5B701828080
:104A600097270020938747359C4303C5C701828061
:104A700097270020938747349C4303C5D701828042
:104A800097270020938747339C4388578280972736
:104A90000020938767329C4303D5C7028280972703
:104AA0000020938767319C4303D5E70219E1130582
:104AB000800C828097270020938707309C4303C592
:104AC00007038280972700209387072F9C43C85BAA
:104AD0008280972700209387A72D8843828097277D
:104AE00000209387272D8843828019E17D5582809D
:104AF000F5DE984265DFFDD9172700201307073E32
:104B00001847AA877155058B6319072203C507004B
:104B10001547E37DA7FC03C737001305F0057D1794
:104B20001377F70FE364E5FC03C35700E30003FCCE
:104B300083C86700E38C08FA03C7770049457917F3
:104B40001377F70FE364E5FA03C7A70011481305CD
:104B5000F7FF1375F50FE36BA8F803CE97000D4828
:104B60001305FEFF1375F50FE362A8F803C8B7003D
:104B70006309080065181378F80F1305600DE367E3
:104B800005F703C5C700794879151375F50FE36F6D
:104B9000A8F403C8D7000D457D181378F80FE36714
:104BA00005F503D80701930E401751184208135812
:104BB0000801E3ED0EF303C8E7007D181378F80F42
:104BC000E36605F303C827017D181378F80FE36F38
:104BD00005F103C88700C54E75181378F80FE3E791
:104BE0000EF103D86701856E938EBEE06D18420802
:104BF00013580801E3EC0EEF03D847016D18420883
:104C000013580801E3E40EEF03D88701791842082E
:104C100013580801E36C05ED03C8A7017D1813784C
:104C2000F80FE36505ED03C5B7011D487D15137544
:104C3000F50FE36DA8EA03C5D7017148791513751F
:104C4000F50FE365A8EA03D5E7011308E00F7D152A
:104C500042054181E36CA8E803C50702494879157C
:104C60001375F50FE364A8E8C85301C937C83400C9
:104C70005915130858BFE36BA8E603A8870237C588
:104C80003400130555BF5918E36205E717250020C6
:104C90002322C51203C6050117250020232EF51077
:104CA0000545E375C5E403D82501D04933760603ED
:104CB000E31E06E203C61501E30A06E217260020FA
:104CC0002328B60E83C5270001466387A50003C6C7
:104CD0001700F1453306B60283C707039305C002E8
:104CE00072971A071307C70516031A97960846976F
:104CF000B387B70241553E97329742074183636EAF
:104D0000E802EFC21F9F3685EF60B04BEFD0E07B2B
:104D10002A84EF80E0772A94EFC0C07F2A94EF6066
:104D200030632A94EFF07F812A94EF2010612A9457
:104D3000EF50A06122956FC01F9E8280EFC27F9BC3
:104D40004111A307A100EF70D0789305F10017057A
:104D50000000130565B9EFF0AFD1014541016FC007
:104D60009F9BEFC29F96172400201304241703284B
:104D700084007959936818009724002023A41417FD
:104D800013781800631E0800BA84BE89368B328AF5
:104D90002E89AA8AEFE01FDC7D15269509E5315999
:104DA0004A856FC01F96EFE0FFDA7D152695A16753
:104DB000E357F5FE972700209387474998433E8C99
:104DC000814B11C70145EFC0F018933B15004A8590
:104DD000DA865686D285EF7050122A8911CD1C448E
:104DE000F99B17270020232FF70E83270C00CDDB1C
:104DF000E3880BFA82976DB726859727002023A1B9
:104E0000070EEFE0FFD14146CE85172500201305A0
:104E10006516EF500150EFA0A0620325040BEFA030
:104E2000A0640545EFA0A06A0545EFF03FF18DBFF6
:104E3000972700209387870A9C47858BD5C7EFC2A9
:104E40005F8B17250020130525119727002023A726
:104E500007089727002023A507089727002023A3EA
:104E60000708EFE0700AEF30D07FEFE00062EFE07C
:104E70008066972700209387E7049C4381C70545F8
:104E8000EF60900F97270020938747FE9C4389C7C8
:104E900041657D15EF500067EFC0B014EFA0205BB7
:104EA00097270020938787189C4313971701635413
:104EB0000700EFC0E01F9727002023AD070A9727C0
:104EC000002023AB070A9727002023A9070A97276A
:104ED000002023A7070AEFF09F989D23EFF08FC0D3
:104EE000EFC0C0416FC03F838280EFC2EFFE2A84D3
:104EF0009304140201112E85B289A685214636C677
:104F00003A89EF50A13E1DE1B24638082686CE858B
:104F100013059404EF40804021462C084A85EF5049
:104F2000E13C1335150005616FC04FFE0145E5BF3B
:104F3000EFC22FFC9305450617250020130505E851
:104F4000EFE0007B6FC02FFDEFC2AFFA41112EC61C
:104F5000EFF02FC5B24588C141016FC0CFFBEFC252
:104F6000AFF7AA842E84EF60F055AA898545228583
:104F7000A92583C7E4011389940899E313890403DD
:104F8000CE8522851D2D21469305190222853925BE
:104F900097270020938787F48C432285EF00606871
:104FA0002146938584022285D52B6FC02FF6EFC250
:104FB000CFF13971EFC0E02A9305400645EDEF606F
:104FC000704D630E05109727002083C7E7E013B7E5
:104FD0001700972600202381E6E0014489CFC164B1
:104FE00017290020130989EF9309400EFD14EFF0F3
:104FF000FF996348A408EFF0CFBA4169B7290900C7
:10500000096AFD7A2A8B81447D199389F97B130AF9
:105010000A71938A8AC7EFF07F9763D5A4041304BB
:10502000400EB387840217270020130727EB0324C1
:10503000070B3E948357C401638627091840330742
:10504000EB4063EAE900834744008507B3874703E1
:10505000D6976369F706014681450945EFF0AFEA47
:10506000AA8B29E1EF2090598547631FF5048965D4
:105070009385057117250020130545D4EFE040679F
:10508000A1A8B30734030327090BBA9703D7C701B5
:105090006308970003C75700A38207002382E70035
:1050A0000504B1B79305C5002285EFF05FEB5E857F
:1050B000228697A5010093852520EFF08FED5E8570
:1050C000EF00606F850481BF97270020938707E179
:1050D0009C478D83858BC1FF21616FC08FE20146A4
:1050E0008545094502D002D202D402D6EFF0AFE1E5
:1050F000AA847DD1EFC020161389C4002A8481457B
:105100004A8565290C4041464A854929832944003E
:10511000638809084E8502D802DA02DC02DEEF500D
:10512000B1602ACE141005462C0808184ECCEF406A
:1051300080161375F50F2DE58355840093E5250042
:105140004A854D2911460C104A858929014697A5A3
:1051500001009385E5162685EFF0AFE32685EF0085
:1051600080655C40B5DB014685450D45EFF0AFD964
:10517000AA843DD148401389C400EF50F15A2AC691
:105180004A85E12E3246636AC5004C404A85392182
:10519000014681452685EFF0CFDF2685292D2DBFDD
:1051A0008355840071BFEFC2CFD497270020938727
:1051B000E7D29C4719CD93E78700172500201305F8
:1051C000E5BF17270020232FF7D0EFE000516FC075
:1051D0008FD4DD9B172700202326F7D0EF20104225
:1051E0007DF517250020130565BDEFE0E051C5B73B
:1051F000EFC2AFCD4169AA892E8AB28A368BBA8BAB
:105200008144172C0020130C6CCD930C400E7D199B
:10521000EFF0CFF763C4A40001442DA033849403BE
:1052200083270C0B3E948357C401638027055A875C
:10523000D6865286CE8513050403EFF01FCB11C529
:1052400023800B0022856FC0CFCB8347F40191CF21
:105250005A87D6865286CE8513059408EFF0FFC88C
:1052600009C585472380FB00F1BF850455B78357E7
:105270004500638D0716EFC22FC601112A84CD2683
:1052800019C58547630AF50405616FC02FC8EFB0E3
:10529000507D7DF9835744004947ED9BE396E7FE37
:1052A000C1452285612CAA842285D52E035744004E
:1052B00002CE91472A896317F700228519293C08F5
:1052C0002ACC3ECEEFB030795C55DDDF74084A86DB
:1052D000A685054582974DBF03574400D147E3F5A6
:1052E000E7FA032A0400C1690149972A0020938A3A
:1052F000EABE130B400EFD19EFF04FE96344A90C11
:105300002285032A0400A92EA1452A8922853D244D
:10531000AA8422857D2E14402A86AA8978082685AB
:10532000CA85EFF0FFECAA8425D103C7F4018947B1
:105330006315F7008347C101A1DB5546D28513856C
:105340006400EF40117D0145EF60B01501C583D7C2
:10535000C401B1EB97270020938747B89C4793552A
:105360001900858913D73700058B11CB8983858B6D
:105370006397B70001452EC6EFF0FFE2B2454E85B8
:10538000EF60101A0346C1012A849375190026851F
:10539000EF70700D31C92685EF601015268511C09C
:1053A0000145EF60703FEF2070258547E31EF5EC67
:1053B00083C754001307F00FE388E7EC8507A38247
:1053C000F400D9B5B304690383A70A0BBE9483D74D
:1053D000C401638937015546D28513856400EF40C7
:1053E000F17071D1050909BF5DDC5DBF8280EFC23C
:1053F000AFAEEF60300A11CDC1640144172900201F
:105400001309C9AD9309400EFD14EFF02FD8634A7C
:10541000A400172500201305659AEFE0002C6FC04B
:10542000EFAE330534038327090B3E958357C5013F
:105430006386970023120500EF60100B0504F1B797
:1054400097270020938787A99C478D83858B99EBAD
:10545000EFC22FAA1725002013054596EFE0C02ABA
:105460006FC06FAB8280EFC2CFA897050000938515
:1054700045B41725002013056594EFE0801B6FC02D
:105480008FA983C7F5FF2E858507A38FF5FE828040
:1054900083C7F5FFFD1793F7F70FA38FF5FE89EB91
:1054A000EFC22FA51385F5FFEFF010206FC0AFA658
:1054B0008280EFC20FA48841050542054181EFF0CB
:1054C000702109C585472300F50005056FC0AFA40D
:1054D0001C41035745008D8FBA951CC12312B5009E
:1054E0003E85828093D78500A2051441DD8D8357C8
:1054F00045001387E6FF18C189072312F50013D66C
:1055000085004111238FB6FEA38FC6FE4101828024
:1055100018419307F7FF1CC18357450085072312E5
:10552000F500A30FB7FE8280835745008D8F2312AD
:10553000F5001C41BE950CC12E858280AA8703D739
:10554000470008410D8FAA952392E7008CC3828003
:10555000184108453305A74082808357450003570B
:1055600065001D8F1C4108453385A7403305A740C2
:105570008280EFC20F9841112EC62A84EFF0FFFD02
:10558000B2456373B50001A0835744000840BE953F
:105590002312B4003E9541016FC0EF97EFC26F95A3
:1055A00041112E84B28532C6EFF0BFFC3246A2858F
:1055B000EF40315641016FC00F96EFC28F932E849A
:1055C0008545EFF01FFB230085006FC0CF94EFC22D
:1055D0004F9241112317B1008945EFF09FF983479E
:1055E000E1002300F5008347F100A300F50041012D
:1055F0006FC06F92EFC2EF8F93D78500A205411164
:10560000DD8D2317B1008945EFF0BFF68347E10038
:105610002300F5008347F100A300F50041016FC0AE
:105620008F8FEFC20F8D1397850193D78501C166C8
:10563000938606F0D98F13D78500758FD98FA20571
:105640003707FF00F98D4111DD8D2EC69145EFF032
:105650005FF26C001146EF40D14B41016FC0AF8B40
:10566000EFC22F891C41854503C40700EFF0DFEB33
:1056700022856FC04F8AEFC2CF871C4141118945F7
:1056800003C7070083C717002307E100A307F10042
:10569000EFF09FE90355E10041016FC0CF87EFC2F2
:1056A0004F851C414111894503C7070083C7170077
:1056B0002307E100A307F100EFF01FE78357E100A4
:1056C000410113D58700A2075D8D420541816FC05E
:1056D0008F84EFC20F820C4141112A841146680069
:1056E000EF40314391452285EFF01FE4B247C16698
:1056F000938606F01397870113D58701598D13D729
:105700008700758F598DA2073707FF00F98F5D8DD0
:1057100041016FC04F801C45BE950CC18280AE8791
:10572000944391E6584101EF0CC15CC1828003C7EC
:10573000570013671700A382E700B687D5B70CC3DD
:10574000EDB7AA87084119CD1841D44398C3631314
:10575000D500D8C32A87034657009376160081E602
:10576000232007008280944381CA8C4203A847000B
:105770008CC363930601CCC3799A14C3A302C700F8
:105780003687D1BF1C45DC471D8DB777DBB69387C5
:1057900077DB09853305F502420541818280F147B7
:1057A000B385F50248452E958280834745008507DD
:1057B0002302F5008280EFB2DFF32A8419E06FB094
:1057C0009FF583474400E5DFFD1793F7F70F2302AA
:1057D000F400F5F71C4403D7270005072391E700E1
:1057E000DC4399C3228582974C4889CD8347540076
:1057F000898B99E71C4422859C479C439C47829750
:10580000232A04000040232004004DBFEFB27FEEA6
:105810008357250041112EC691E70144228541019D
:105820006FB07FEF035705008147F146E307F7FEAE
:10583000B385D702404585072E948345440008C4AC
:10584000F5F5B247AA8481E7232A040009A81C457C
:105850006C0022859C439C43829748C85DDD854748
:105860002312F400B2472320040023180400231954
:10587000F4005C485CC483D72400FD172391F40036
:1058800071BFEFB21FE79717002093872755884312
:1058900023260500232405004105EFD0F0666FB0F4
:1058A0009FE7EFB21FE517140020130424531C4098
:1058B000411189CF9C472300B5002AC65CC1EFF097
:1058C0005FFC1C40DC4399C33245829741016FB0B5
:1058D0009FE4034745001DEB584DAA877D550DCB2E
:1058E000EFB23FE11CC3DC479716002023A8E64E29
:1058F000F156130507012390D70097050000938503
:105900008501EFD0105301456FB0FFE07D558280D7
:105910008280EFB21FDE0111614681452800EFB0A1
:105920005FE0971700209387674B9C4328009305FF
:10593000F00FDC473EC6EFF0DFF605616FB0BFDD6C
:1059400097170020938787499C43D847A16793877F
:10595000C7026312F70A397106DE22DC26DA8000FC
:105960004AD84ED652D456D23285B284EFF05FCFA9
:10597000AA892685EFF03FD02318A4FC2685EFF0F6
:105980009FCF2319A4FC2685EFF0FFCE83D74400D8
:105990000A8A231AA4FC858393F7F70F230EF4FCDD
:1059A0008607BD0793F7073F3301F1408A8A014913
:1059B0008347C4FD6365F902CE85130584FC232C5F
:1059C00054FDEFF01FEE5281130104FCF2506254BB
:1059D000D2544259B259225A925A21618280268564
:1059E000EFF07FC993171900D69705092390A700F8
:1059F0001379F90F75BF8280971700209387073EB0
:105A00009C43D847A1679387A7026310F70A3971AF
:105A100006DE22DC26DA80004AD84ED652D456D290
:105A20003285B284EFF0DFC3AA892685EFF0BFC4C8
:105A3000FD572318A4FC26852319F4FCEFF0BFC3FF
:105A400083D744000A8A231AA4FC858393F7F70FAF
:105A5000230EF4FC8607BD0793F7073F3301F1409F
:105A60008A8A01498347C4FD6365F902CE8513051F
:105A700084FC232C54FDEFF0DFE25281130104FC7F
:105A8000F2506254D2544259B259225A925A216168
:105A900082802685EFF03FBE93171900D69705093F
:105AA0002390A7001379F90F75BF82809717002004
:105AB0009387C7329C43D847A16789076318F708C3
:105AC000397106DE22DC26DA80004AD84ED652D45E
:105AD00056D232853289EFF0BFB8AA894A85EFF0F5
