:040000006F108009F4
:1000040000000000000000006F0080086F00E02284
:1000140000000000000000000000000000000000DC
:1000240000000000000000000000000000000000CC
:100034006F004006000000006F00E00500000000B3
:100044006F0080056F0060056F0040056F0020059C
:100054006F0000056F00E0046F00C00400000000A2
:100064006F0060046F0040046F0020046F00000400
:100074006F00E0236F00C003000000006F00600306
:100084006F0040036F0020036F0000036F00E00265
:1000940001A001A001A001A001A001A001A001A054
:1000A40001A001A001A001A001A001A001A001A044
:1000B40001A001A001A001A001A001A0B717004068
:1000C400130770052380E704130780FA2380E704ED
:1000D4002396A70223800704371700408347270588
:1000E400898BEDDF835707053717004083472705C2
:1000F400898BEDFF3717004083472705898BEDDF98
:10010400035507058280B7170040930670052380C6
:10011400D704130780FA2380E70403C6B7041376D1
:10012400F60DA385C70423800704137605022DC6A4
:1001340003C6A700118A0DE22380D7042380E704B5
:1001440003C7A700136747002385E7009307004B05
:1001540001000100FD17EDFFB7170040930670057D
:100164002380D704130780FA2380E7047D8923942E
:10017400A70001000100010001002380070423807F
:10018400D7042380E7049306100537270040A30310
:10019400D780238007048280137605046DDE03C6AE
:1001A400A700418A0DE22380D7042380E70403C714
:1001B400A700136707012385E7009307007D01006B
:1001C4000100FD17EDFFB71700409306700523806B
:1001D400D704130780FA7D892380E7041365050497
:1001E4002394A700010001000100010023800704FB
:1001F4002380D7042380E704930630053727004083
:1002040079B74111814601468145114506C6AD2A9B
:10021400B7170040130770052380E704130780FA1B
:100224002380E70403C76704136717002383E704E5
:1002340023800704B2404101828081460146814502
:1002440011459922B7170040930670052380D704FF
:10025400130780FA2380E7047D562396C702238080
:10026400D7042380E70403C76704136717002383B5
:10027400E7042380070401A0BD473305F50201000C
:100284007D1575FD8280411122C426C206C6AA844A
:10029400014463179400B240224492444101828095
:1002A40005041305803E4204C13F4180DDB7B71702
:1002B4000040130700032388E702854723ACF18439
:1002C40073002030411106C6A921FDBF2303048019
:1002D40015472303E48001002302A480828083075E
:1002E4006480E3CE07FE2303048082808307648056
:1002F400E3CE07FE03454480828083076480E3CE17
:1003040007FE2302A4808280411126C44AC24EC043
:1003140006C61377F50BAD47AA892E899544630663
:10032400F70019456537653F8D444E854537FD59BE
:10033400FD1463983401B240A24412498249410138
:100344008280135509011375F50F453F2209CDB776
:10035400011126CC06CEB704080051371545BD3728
:10036400713769372AC6A53F32459377150089EB63
:10037400136515001375F50FF240E24405618280A0
:10038400FD14E9FC0145CDBF397126DC4ADA4ED8AB
:1003940052D656D45AD25ED006DE62CE66CCB7E7C9
:1003A40000E07D5783AA070022C603AA470023A0C2
:1003B400E71823A2E718B717004013077005238036
:1003C400E704130780FA2380E70483C74704930BE9
:1003D40075FFB684E20793FBFB0F8546AA892E8B33
:1003E400328937240040E187015763FA76016308B4
:1003F400D5008946130700026313D5000157D98F2E
:1004040093F7F70FB71C00402382FC041147230322
:10041400E4801305F00F5D3D094CD13563697C110F
:10042400B70707003E9B378707007955637EEB02C9
:10043400B3079B00636AF702A9476399F90689E445
:100444008144713D26850DA0DA850945753D050970
:100454000345F9FFFD14050B4D3581C49377FB0F5C
:10046400FDF7FD3569FD7D55B7170040130770058D
:100474002380E704130780FA2380E70403C74704B3
:10048400418B2382E704F250B7E700E023A0571121
:1004940023A24711E25432445259C259325AA25A41
:1004A400125B825B724CE24C21618280A5476395AA
:1004B400F90685691309F00FB3069900B3742B018B
:1004C400B6941349F9FFB3749900856B33796901C4
:1004D400416B9387F9FFB3F7270199E363FC340178
:1004E40093D94900C147E3E637FF99BF0569C1695C
:1004F4007D19D9B71305800D6388690113050002BE
:100504006384790113051008CA85FD3B913521DD0B
:100514004E99B3843441D9B7DA852D45F533CA945D
:10052400E30099F20509D933A30FA9FED5BF938738
:10053400F9FF93F7F70F636CFC0803C75C04B70774
:1005440008001377070219E3B78707007955E37D9D
:10055400FBF033079B00E3E9E7F089476390F90474
:100564008980D549E38E04ECDA850945713B11098C
:100574000327C9FF91472320E48003076480E34EE7
:1005840007FE23033481FD17EDFBFD14110B81C419
:100594009377FB0FE9FF6D3B71F5F1B58547E38771
:1005A400F9F4DA852D458D339389F4FFE38A04E861
:1005B400353B93F7390091EB832604800327090028
:1005C40093074900E39FE6E63E89CE84F1BFB54731
:1005D4006396F9001305900BD5399DB5B147130502
:1005E400B00AE38BF9FE9947639EF902DA852D453B
:1005F400213B81448D4BA149D539639674018327EE
:1006040004802320F9008504E39834FF83270480C1
:1006140013172B01635507002312F90015B5232284
:10062400F90039BD9D476399F90281451305B0046A
:10063400E139BD442320090023220900FD597D31FD
:1006440093F77400CA9703C70700FD14398D2380FC
:10065400A700E39634FFEDB3A1476392F904CD39C3
:100664008144630D0B008D479304C0036308FB00B2
:100674009304000563048B01930440041375C507B8
:10068400E30095DC19459931993905458131268571
:10069400AD3109459D316D39E31405DAE9B391476C
:1006A4006399F9001305600615311539130590098E
:1006B40025B7E38709D8F15469B309CDB7170040CA
:1006C400130770052380E704130780FA2380E704E7
:1006D4002396A702828019C1814799E982803387D2
:1006E400F500834607003307F50085072300D7008C
:1006F400E397C7FEE5B719C1FD5781E982809105EB
:1007040003A7C5FF1105232EE5FE7D16E319F6FEAA
:10071400F5B7797122D4172400001304A4571C40A0
:1007240006D626D24AD04ECE91C78297972700008C
:1007340023A207565C4089CB03D58186BD3F5C402C
:10074400829703D5A186953F1C4063990718972784
:10075400000083C77764858B95C797270000A38D16
:1007640007621727000003475763914763FCE700BC
:1007740069219727000083C75762F9178A07A29750
:100784009C4382979727000083C7C765918B89C7CD
:1007940097A000E0E78020DB1C4491C382979387F5
:1007A40041869843172600000346964C3E899724B9
:1007B40000009384E44B9727000083C7674B93960C
:1007C4001700BA9683D606006380061097270000A8
:1007D40083C7074A63F2C70886073E978355070015
:1007E4002310070003D581862EC623980186F13590
:1007F4009387C1879C43172500000345654713175A
:100804002500BA979C43B2458297AA8903D5A1864D
:100814006D359727000083C7A745139717008327D3
:10082400090003D501871345F5FFBA9703D70700DD
:1008340033753501598D2390A70083C704008507BC
:1008440093F7F70F172700002304F7421727000038
:100854000347174263E6E70097270000238A07400F
:100864001C40ADEF9387418798433E8425CB97275F
:10087400000083C7D75291CB9727000083C7F75155
:1008840089E7979000E0E780C07C1C4082972A8427
:1008940031C59C48AA97172700002323F73E938766
:1008A40081879C4385CF03D58186013D228597E0CE
:1008B400FFDFE780401F2254B25092540259F2499C
:1008C40003D5A1864561D5BB850793F7F70F972616
:1008D4000000238FF638E3E0C7EECDBDB2502254BA
:1008E40092540259F249456182809167B7C600402B
:1008F4009387373023A6F6200F10000097270000B7
:1009040093870737884F938701959C433167130773
:100914003730F053B7071000FD17918F99833A05CC
:1009240023A6E6205D8D82804111B7170040985FB1
:100934003AC6945F3247E39CE6FE32454101828029
:10094400411106C6D5379726000083C6E62F858A4F
:10095400B1C6930730333307F502B337F502398351
:10096400CA07D98F1727000013078730584B014552
:100974006303F7023385E740636BF70037653D088F
:1009840089C637856F0813050590198D3E9517277D
:1009940000002329F72EB24041018280E547330746
:1009A400F502B337F5022583DE0765BF411122C482
:1009B4001384019418404AC006C61C5F26C21389DA
:1009C400C1939983858BC1C31C5F972400009384D2
:1009D400643C93F7F7F91CDF9727000083C7873B34
:1009E40093F707048DC3938701889C4382979727C5
:1009F400000023A9A73A83C7040093F7F70B17272E
:100A040000002309F738854717270000A306F738A5
:100A140083C7440093F7070481EF938701959C43B0
:100A2400D844B8D3930700FC172700002306F736F1
:100A34008387640063D90700832709009C43172731
:100A44000000230CF73418401C5F8583858BC9CBC9
:100A5400F5571CDF01000100010001000100010045
:100A6400010001000100010001000100010001007A
:100A7400010001000100010001000100010001006A
:100A8400010001000100010001000100010001005A
:100A9400010001000100010001000100010001004A
:100AA400010001000100010001000100010001003A
:100AB400010001000100010001000100010001002A
:100AC400010001000100010001000100010001001A
:100AD40001000100938701959C4313075004B8CB90
:100AE40018401C5F9183858B89CFBD571CDF93878A
:100AF40001959C4323A80704854717270000230D6D
:100B0400F72883270900D8430583058B19C7D843E1
:100B1400759BD8C3D843799BD8C3B240224492442E
:100B2400024941018280397106DE16DC1ADA1ED8C8
:100B34002AD62ED432D236D03ACE3ECC42CA46C879
:100B440072C676C47AC27EC09535F250E2525253D0
:100B5400C2533255A255125682567247E247524842
:100B6400C248324EA24E124F824F21617300203090
:100B7400938701959443172700001307A721BC52BC
:100B840089CF83472700858B89EB83473700858B83
:100B9400FDD7972700002381072082809387C19483
:100BA4009C4399CB944BD04B9842518F98C2944319
:100BB4009C479842D98F9CC2938701959C4337C721
:100BC40000401306C003A8CB93062003972500001A
:100BD4009385451C83278720C18393F7F7036369B3
:100BE400F60083278720C18393F7F70363E6F600B3
:100BF40083C74500858BF9DF8280938701959443F1
:100C04001727000013070719BC5289CB8347070035
:100C1400858B91CB97270000238007189727000026
:100C2400A38C0716828083471700858BF1DFDDB71D
:100C34009387C1949C4399CB944BD04B9842518F4A
:100C440098C294439C479842D98F9CC2938701953C
:100C5400944337C70040C145A8CA65468327872007
:100C6400C18393F7F70363FBF50083278720C183D0
:100C740093F7F7036364F600BC52EDF382801387A5
:100C840001941843AA87185F1583058B25EF034544
:100C9400150015051377C51F19C6B386E70083C66B
:100CA40026002300D60095C59726000083C6E60ECD
:100CB40093F606040945A1CAB386E70083C6360045
:100CC400054693F5F6066390C504E206E18663CC17
:100CD40006023385E7008347150003470500A20792
:100CE40093F70770D98F13970701418393760740D1
:100CF40099C6136707802394E19401458280239465
:100D0400F194E5BF05458280938601958C42368532
:100D14009726000093860608984593170701C18318
:100D2400137817203E86630408041377072079C3D9
:100D340003C726001367170017280000230DE804D3
:100D440013070019B8D1130700F89725000023856D
:100D5400E504138701940C4337080010D855719BA0
:100D640013672700D8D598413367070198C11377D3
:100D7400261005C31376061059CE03C70600136761
:100D84001700172600002307E60017270000231783
:100D9400070083C6460093C7F7FFC207E206E18651
:100DA400C183184163D106029396170163DE0606D8
:100DB40030538D4663E9C600854617260000230D8F
:100DC400D6FC3453FDFE972600009386A6E6838660
:100DD400460163DD060093960701C18663DC0604C1
:100DE4007053894663E4C6007453FDFE1447F58FBF
:100DF4001CC7828003C716001367170097250000DD
:100E0400A38AE5F817270000230807F8172700002E
:100E1400231607F8A9BF03C7360013671700172660
:100E24000000A30AE6F695B78546172600002305B9
:100E3400D6F651BF54471396060163510602B7060E
:100E44001000FD1674D397260000938666E2944E34
:100E54008506172600002329D6E249BFA166D58F4F
:100E640071B7397106DE16DC1ADA1ED82AD62ED4EA
:100E740032D236D03ACE3ECC42CA46C872C676C4C6
:100E84007AC27EC05135F250E2525253C2533255A7
:100E9400A255125682567247E2475248C248324E11
:100EA400A24E124F824F2161730020301727000099
:100EB400130707F08346B7019727000083C797F20B
:100EC400B69793F7F70FFD4663EAF6044C4B972663
:100ED4000000A38FF6EC9727000083C777ED054742
:100EE4003317F70097260000A38EF6EE6D8F1DEFE3
:100EF4009726000083C656EFB3F6D7021305000207
:100F0400814733D6F500058A13F8F70F09CE6399A4
:100F1400E60097270000A38D07E9828081177DB73B
:100F240005071377F70F8507E39DA7FC8280938756
:100F3400C1959843B75702009387279F83260709D3
:100F44001396560063580600832607091396660015
:100F540063440600FD17FDF3828051C9AA87014549
:100F6400C9C98D07C207C183F19BC207C183130797
:100F74004003636BF7021387819E08431387019E26
:100F840014436396A602172700001307A7CA185B29
:100F9400014525C34111C20706C60545DD8D0297EB
:100FA400B2400145410182801387419EF9B703573E
:100FB400650005EF035745006369F702B306F74080
:100FC40021466370D6021041938687001D8FAA962E
:100FD400611790C22392E6002393060014C12312E2
:100FE400F5002313B50021058280084159BF01454E
:100FF4008280828001CD9387819E03A80700938716
:10100400019E8C430147C28763E3B7008280944307
:10101400636FF50663EDA60613868700E368C5FED5
:1010240003D56700216605066317C50003C6019052
:1010340005062380C1902393070063840703138666
:10104400419E1042630FF6000356670019EA83D7E6
:10105400470014C383564700B697A1072312F7002D
:10106400BA879843E304B7FA9386419E9442E30F08
:10107400D7F883566700D9FA83D64700035647004A
:101084001843A106B2962392D70098C382803E8764
:04109400B6879DBFBF
:10109800974100209381011817710020130101F670
:1010A80013054000972500209385457517360020C5
:1010B8001306067E63FAC5008322050023A05500A7
:1010C80011059105E3EAC5FE176501001305C5FC86
:1010D800973500209385C57B1386018563FAC50083
:1010E8008322050023A0550011059105E3EAC5FEFA
:1010F80013850185975500209385455F6377B50073
:10110800232005001105E36DB5FE9302800873A046
:101118000230972200209382626E93E2120073904D
:10112800523097120000938222C9739012347300D0
:1011380020303D432A876373C3029377F700BDEFDE
:10114800ADE5937606FF3D8ABA960CC34CC30CC72F
:101158004CC74107E36BD7FE11E28280B306C34058
:101168008A069702000096966780A6002307B700B4
:10117800A306B7002306B700A305B7002305B700E9
:10118800A304B7002304B700A303B7002303B700E1
:10119800A302B7002302B700A301B7002301B700D9
:1011A800A300B7002300B700828093F5F50F93964C
:1011B8008500D58D93960501D58D61B79396270047
:1011C8009702000096968682E78086FA9680C11775
:1011D8001D8F3E96E374C3F8A5B7B717004003C741
:1011E80077051377E70FA38BE704130700F8A38DA0
:1011F800E7043D47238CE70413075003A38CE70457
:101208008280B717004003D587005D715ED642051E
:10121800418186C6A2C4A6C2CAC04EDE52DC56DAD6
:101228005AD862D466D26AD06ECE9377050C13076B
:101238000008814B6388E71813070004639CE714D0
:10124800B7240D8F7D8993840480B3D4A402916759
:10125800938707E8BE94A167938707D0B3D4F402B5
:10126800EF30B165975701009387C77C9043D4430B
:10127800EF307119EF40E1262A8B939C040103D9C2
:10128800018593DC0C0163150900056913090980C0
:10129800B7170040130770052380E704130780FA87
:1012A8002380E704371A00400547939D0401096C21
:1012B80085662389E704D14A814E8145130D0A04C6
:1012C80013087005130680FA894893DD0D01130C85
:1012D8000C712943FD1623000D012300CD002316B0
:1012E8002A0323000D0083472A05898BEDDF8357E6
:1012F8000A0583472A05898BEDFF83472A05898BD1
:10130800EDDF83570A0523982185C207C1833385FA
:1013180097419319050193D90941638409163387C5
:10132800B902635E070C850EC20E93DE0E0163E8F8
:10133800D80D63D9050A3305B04093150501C18559
:10134800C204C18063D7350B096513050571338560
:10135800A502B7170040130770052380E704130799
:1013680080FA2380E7042396770323800704334514
:10137800950242054181B640264496440649F259F1
:10138800625AD25A425BB25B225C925C025DF24DB9
:1013980061618280B1E3B77489097D89938404808F
:1013A800B3C4A4029167938707E8BE94A1679387A3
:1013B80007D0B3C4F402EF30515097570100938718
:1013C800E7676DB59757010093874766856403AB58
:1013D80007009384843855B5130B0000954471BDFC
:1013E8003A89D5BDB387FC409399070193D9094140
:1013F80081BF0965130505713385A9028DBF338542
:10140800B74163E4FC003385FD403305850333446D
:10141800B5036345830013150401A9BF4E8536C67D
:1014280042C432C2EF30917FDA85EF301150EF308D
:10143800D178931E050193DE0E41B307D941C20747
:10144800C183056E3E871246224889482943B24621
:1014580063E3C701368742074183631A27011307ED
:101468001900634430011307F9FF42074183FD1A4D
:1014780093FAFA0FCA8BCE85E3940AF62398E1848F
:1014880059BF0145CDBDB717004003D587005D7131
:1014980086C642054181A2C4A6C2CAC04EDE52DC3D
:1014A80056DA5AD85ED662D466D26AD06ECE02C6F2
:1014B8009377050C13070008638BE71413070004E0
:1014C800639FE710B7240D8F7D8993840480B3D47C
:1014D800A4029167938707E8BE94A167938707D012
:1014E800B3D4F402EF30713D9757010093878754C6
:1014F8009043D443EF302171EF30B17E2A89939A1B
:10150800040103DB218593DA0A0163150B00056BDF
:10151800130B0B80B7170040130770052380E704EF
:10152800130780FA2380E704939B04010547896920
:10153800056A2389E704D14D014D814C93DB0B01EA
:10154800938909717D1A5A8597200020E780C03653
:10155800330C5541420C135C0C412399618563019E
:101568000C16B3079C0363D1070E050D420D135DDE
:101578000D01894763EAA70D63DB0C0A3305904127
:10158800931C050193DC0C41C204C18063D88C0B09
:101598000965130505713385AC02B71700401307B9
:1015A80070052380E704130780FA2380E704324795
:1015B8002396E702238007043345950242054181BB
:1015C800B640264496440649F259625AD25A425BBA
:1015D800B25B225C925C025DF24D61618280B1E394
:1015E800B77489097D8993840480B3C4A402916780
:1015F800938707E8BE94A167938707D0B3C4F40222
:10160800EF30B12B9757010093874743D5B59757CC
:1016180001009387A741856403A907009384843850
:10162800F9BD130900009544D9BD3E8B29BF338508
:10163800AA40131C0501135C0C41B9B709651305D1
:1016480005713305AC028DBF63FEAA0033057541F1
:1016580033053503A9473344750363C88700131559
:101668000401B1BF3385AB40E5B76285EF30115B4C
:10167800CA85EF30912BEF305154131D0501135DCE
:101688000D413307AB41420741838565BA876363E0
:10169800B700D287C207C183639A670193071B000B
:1016A800634480019307FBFFC207C183FD1D93FDBF
:1016B800FD0F5AC6E28CE39A0DF62399F18445B7DB
:1016C8000145FDBD41112A83014E930E407E130F43
:1016D8000019930F400663EB6E0A93080019130371
:1016E8004006B3781503854E0D4FA14F337365023D
:1016F8000D891335150063E5BE0C1308F6FF79460E
:1017080072984208135808013307C70213D6170006
:10171800BE0732976146B3F6C60213068070B386D9
:10172800C6023697A166F58F42075D8FB71700404E
:1017380083C6F70293F60608A307D1000346F10013
:1017480083C6F70293F60608E394C6FE8346F100C3
:1017580093F6F60FF1DE930670052380D7049306FF
:1017680080FA2380D70423AA070383C6170393E6C6
:101778000608A388D702D8DB03C717031367070433
:10178800A388E70223800704410182807D13336820
:10179800E3039308E016630E08003368F303930825
:1017A800D016630808009378330093B8180093881C
:1017B800D81633081E01131E0801135E0E0121BF3F
:1017C8006393E50305486386080001486303030043
:1017D8002A8871087298FD15131E0801C205135E48
:1017E8000E01C18109BF13F8150063F4BF00790821
:1017F800D5B713381800E5BF914763EEB7021757FE
:101808000100130727248A05BA959C41BA97828755
:10181800B717004003A7470B1345F5FF698F23AAA5
:10182800E70A03A7070B698F23A8E70A03A7070A94
:10183800798D23A0A70A8280B717004083A6470B9B
:101848001347F5FFF98E23AAD70A83A6070B558DF0
:1018580023A8A70A83A6070A758F23A0E70A828010
:10186800B717004003A7470B498F23AAE70A03A726
:10187800070B1345F5FF45BFB717004083A6470B75
:101888001347F5FF758F23AAE70A03A7070A598D9F
:101898004DB7B717004003A7470B498FEDB7B717E8
:1018A800004003D58700420541819377050491EBF9
:1018B8009377F5013755E801130505803345F5029F
:1018C80082809377050C130700046397E7009377EA
:1018D800F50137459C1CCDB72165130505D08280DD
:1018E800B7F700E0C8439C478280814737370040FC
:1018F800A14663C4C700328582800345B740E38EA2
:10190800A6FE3385F5000345050085072304A74097
:10191800CDB7411122C406C62A8451372947B307D7
:10192800E502B2408D83B3D7870222449507B3D727
:10193800E70237370040C207C1832316F740410149
:101948008280716541111305052006C6D937B7375E
:101958000040130770F82381E7400D47A381E74053
:1019680013070004A380E74005472387E740B240F8
:1019780041018280411106C66930BD4763F3A70063
:1019880049301136BD4763F3A700F53CB24083D513
:10199800218503D5018541016F00B0474111939618
:1019A8002500AA852D4506C697200020E780801DC2
:1019B800B240014541018280411126C2939425001D
:1019C80022C44AC02A843289A686AA8501462545AA
:1019D80006C697200020E780E01AA6864A86A285D8
:1019E800294597200020E780E019B240224492441C
:1019F8000249014541018280011122CC06CE3714EB
:101A0800004026CA4AC84EC652C483447405034AD5
:101A1800B4058349840503499405EFF00FFC834717
:101A2800A40593F4F40F137AFA0F93E71700230D24
:101A3800F40493F9F90F1379F90FB717004003C7A6
:101A4800A705058B6DFF03D5C705A38D4705238C17
:101A58003705A38C2705A38B9704F2406244D24430
:101A68004249B249224A0561828041119397050192
:101A780022C406C6C1872E8463DB0700212111C159
:101A8800692E2165218DB24022444101828093F75D
:101A9800150013C51500E5FB9397250163D00702D0
:101AA800EFB0D07CC13D37F60200130606E0896529
:101AB80003C54185EF00300E0965E9B79397150115
:101AC8000145E3D207FC17550100130565FDEF300A
:101AD800515C13060064916503C54185EF00B00BA6
:101AE80011654DB71D714946975501009385C5F697
:101AF800175501001305C50F86CEEF00807101E967
:101B080017550100130585F6EF30B15801A037F7D6
:101B180000E0F9575CC7FD571CCB8566B7E700E0C6
:101B280023A0D7101306701010C3B8434146B0C3A2
:101B380023A0D718B8C3010001001306C0038145CC
:101B48004808BD25973700209387470E3ECA896706
:101B580093870780231CF100ED47A301F102930747
:101B6800A0102312F102D1472303F102A167938742
:101B780007E03ECE97070000938787E2BEC4970729
:101B880000009387A7E3BEC685472304F102B54743
:101B98002308F102970700009387C7D43EDAB7F508
:101BA800070097070000938767E53EDE81469707A1
:101BB8000000938767DC7000E1051945BEC09720D7
:101BC8000020E78020FC58088147994670003E961F
:101BD8000346060085070507A30AC700E398D7FE52
:101BE800D24791C70357810185676373F70001A046
:101BF8004808EF007037AA8501C917550100130579
:101C080025E8EF30713701A0F64025618280411147
:101C1800170500001305A5E506C622C4EF005031DC
:101C2800138441852300A400292803450400224485
:101C3800B24037F60200130606E0896541016F00DD
:101C48008075411106C622C49306700537140040FA
:101C58002300D404130780FA2300E4048347F40222
:101C680093F7A70FA307F4022300D4042300E40486
:101C78008347F40293E72700A307F402E539130525
:101C8800407E230004048147014781460546854577
:101C9800153C2244B240014541016F0090598947E3
:101CA8006305F50263E6A7008547630AF5008280AD
:101CB8008D476301F50299476303F5028280175542
:101CC8000100130525DE6F30D13C175501001305BF
:101CD80065DED5BF175501001305C5DEEDB71755ED
:101CE80001001305E5DFC5B741119397050122C42B
:101CF80006C6C1872E8463DD070003C5C185592246
:101D080011C1212A2165218DB240224441018280DE
:101D180093F715000145EDDB17350020130585CF36
:101D2800EFE0E07813451400C5B70111170500006E
:101D38001305C5FB06CE22CCEF00901F1384C18586
:101D480085472300A4002307F1001306E1008D470F
:101D5800854513055030A307F100EF00012F130646
:101D6800F100854513058030EF00212E173600203D
:101D7800130606B3C14513057030EF00012D173661
:101D880000201306E6B0B54513056030EF00E12BDF
:101D98009305000A0D45EF20603F9305000A1145A1
:101DA800EF20C03E034504008545D921F240624436
:101DB8000561828041111305800406C69720002022
:101DC800E78020B4371700408327870A8D4513051D
:101DD800002093E707202324F70A393C9D3617553E
:101DE80001001305E5E0EF30D12AED390D35EF009C
:101DF800414C253F97200020E78080CC23AC05FE8E
:101E08001C4191E7010001000CC18280BA8703A739
:101E180087FF6DFF23ACB7FE82801DC18346E5FFB7
:101E28001307F00F9147639EE600411106C69730ED
:101E38000020E780E09BB24081473E8541018280D7
:101E480095473E85828001E9014582800145B2407F
:101E5800224441018280411122C42A84210542057D
:101E68009305D004418106C697300020E780A08EF4
:101E780071DDFD5723200500231285002303F5009B
:101E88002105F1B7138701861C43411122C426C2DC
:101E98004AC006C601440149BA8489E7A165852577
:101EA8000DC401A803C7E7FF6318A7021DC8A165F1
:101EB800C1269840832784FF6317E40223A0F18694
:101EC800FD57232C04FE230FF4FE2285B240224442
:101ED800924402494101828011E03E8983A787FF2D
:101EE8006DBF3E84E5BF232CF9FED9BFA9C94111B6
:101EF80022C406C62A849747002083C7F7562E8532
:101F08006368F400193F0D45B240224441018280C4
:101F180083A785FF99E703C7E5FF9307F00F6305DC
:101F2800F700E53D1545CDB7238F85FE138501865E
:101F3800F13522852244B240A165410115AE15450F
:101F4800828023A001868280938781879C4399E3BE
:101F58003E85828003D727006316B70003C70700B2
:101F6800E308A7FEDC47E5B74111939705014AC08E
:101F780006C622C426C2C1872E8963DE0700193728
:101F880011C1613D21653345A900B2402244924404
:101F9800024941018280AA860145E5D901443D47AD
:101FA800B3578940858B95CB9387C1868443BD47BA
:101FB80091E28147A2978E070545BE9433158500A7
:101FC800131405019C40C8404180829723A0040057
:101FD80023A20400334524014DBF0504E312E4FCA9
:101FE8000144CDBF97470020938747449C53411134
:101FF80022C406C61384818095C7829723A4A18032
:102008000840B74703009387D73F3305F502B7A7C2
:102018002600938737ECB24022443E9523A4A18042
:1020280041018280974700209387074418409C4BC2
:10203800BA9723A4F180E9B79387418690439746DE
:10204800002083C67642814713F7F70F6360D70AEB
:10205800174700200347F753914763E0E70A97477C
:10206800002083C7A757918BC9EB0111680006CEE2
:1020780022CC26CAEFA0D000FD56630FD50C3247FC
:102088009747002083C7B73B63F3E70C1747002047
:102098001307873D4047174700200347673A630502
:1020A800D406058B21CF51473304E40263F1870A34
:1020B80097200020E7800007B2476373F400A287E7
:1020C800174700200347B737998F3E959747002059
:1020D8009387C7358387470163CD0702B707C0A831
:1020E8006369F502B70740573E9525A08507139702
:1020F800170032970357E7FF21DB8280130790020E
:102108003304E40205805DB76207618763570700FF
:102118001D8D19E93705C0A801A8E37BF5FE37072F
:10212800C0A8B307F7403E9597470020938707302C
:10213800DC53829709ED97470020938727459C4FEA
:1021480099C7EFB00050EFB05026EFB0E043F2402F
:102158006244D24405618280974700209387C73044
:10216800DC47E386A7FE174700201307272C834682
:102178004701BA84858A9DC65144338487029747AC
:10218800002083C7D72BE3F487FC97200020E78043
:1021980060F99747002083C7972A1D8C229583876B
:1021A80044011DBF13049002338487020580C1BF18
:1021B8002A9609E582800505A30FB5FEE31DC5FE35
:1021C800D5BF81473307F5000307070019E33E85AC
:1021D80082808507C5BF01112E8626CAAA841315D9
:1021E80006019305F004418122CC06CE32C6972021
:1021F8000020E78040562A8419C53246A6859720D4
:102208000020E78000CD2285F2406244D244056177
:10221800828081476314F600054582803307F50004
:102228008507B386F5000347070083C6F6FFE383F7
:10223800E6FE014582809307F6FFBE952A96631352
:10224800C5008280FD1583C715000505A30FF5FE9F
:10225800FDB7814711E9014582803307F50003473F
:102268000700E31AB7FE8507E319F6FE05458280E5
:102278009747002083C7571F637FF5001387418660
:102288009317150008433E9583570500DD8D2310ED
:10229800B500014582800D458280FD570111174721
:1022A80000202329F71C9387818722CC80434EC6C0
:1022B800974900209389891726CA4AC852C456C22A
:1022C80006CE5AC02A8981444E8A974A0020938AAA
:1022D800AA19184481476374E900B307274103A783
:1022E80049021CC409CB03A7CA0063F6E7001747D5
:1022F80000202321F718A1E7835524009DE95C44B9
:10230800A1E823ACF186032BC40022859720002086
:10231800E780004E5A8455FC83274A0285CF6244E1
:10232800F240D2444249B249224A924A024B0561DC
:1023380021B3034504002D3F5C4081CB1CC4835767
:102348002400D5DFA2844044F9B71C44CDDBC5BFC7
:10235800DCC455BFF2406244D2444249B249224AE1
:10236800924A024B056182809747002083C7D70FA6
:102378006371F5021387418693171500084393C5C7
:10238800F5FF3E9583570500FD8D2310B5000145E7
:1023980082800D4582809747002083C7F70C6364CD
:1023A800F50001458280411122C426C24AC006C6F2
:1023B8002A842E89B284493E01C504C505452DA04D
:1023C800936504F0C205C181414597200020E7804C
:1023D80080380DE197470020938747059C5B81C7AC
:1023E800A285114582970145B24022449244024990
:1023F80041018280938781879C438DE323ACA1862A
:1024080085472326050004C52311250123008500DF
:10241800A300F5002322050055B7BA87D84775FFF2
:10242800C8C7F9BF45C539715AD0138BC18622DC9C
:1024380026DA4AD84ED652D45ECE66CA6AC86EC666
:1024480006DE56D262CC3689328AAE89AA84014425
:102458005A8DB94D854BF94C03270B00131C3400DA
:10246800937AF40F62971C43A9EF13B5FA0013454A
:102478001500B3978B0063F65D01930714FFB397BC
:10248800FB0093950701C181528631371DC9832707
:102498000D000145E29784C323A2370163040900B4
:1024A80023005901F2506254D2544259B259225A67
:1024B800925A025BF24B624CD24C424DB24D2161B2
:1024C80082800504E31A94F92145E9BF0945828011
:1024D800411122C426C24AC006C6AA842E89328463
:1024E8005D3DCA8526858D3409C940C10145B24084
:1024F800224492440249410182802145CDBF4111C5
:1025080022C426C24AC006C6AA842E89353C2A841B
:1025180019C1231105009747002083C7E7F4639486
:10252800970023982187CA8526853D3D014511E0FE
:102538001945B240224492440249410182807547BC
:10254800636BA7041387C1861443411126C29314F1
:102558003500A696944222C406C6AA873A8409453D
:1025680095C613B5F7003947134515006373F7008F
:10257800C5178545B395F500C205C18149371C408B
:102588000145A69723A0070023A20700B2402244D2
:1025980092444101828009458280411106C6EFF0CC
:1025A800BF9A09C50845B240410182800145E5BF8F
:1025B800F54763EDA7049387C1869C43131735003D
:1025C800BA979843894721C7011126CA06CE933482
:1025D800F50022CCB94793C4140063F3A70045154E
:1025E80005443314A400420441802EC62685A285E2
:1025F8006D378947324609C5A2852685693B8147DB
:10260800F2406244D2443E850561828089473E8516
:1026180082802394A1862395B1868280411106C6C3
:1026280023AAA1860295B2409747002023A8A7E4D1
:10263800014541018280994763E9B7008A059747B8
:1026480000209387A7E4BE9588C18280411106C601
:10265800EFF0304D7146814517450020130505E31D
:10266800813E130640028145174500201305C5DF4A
:10267800813623AC018623AA01869747002083C7A9
:10268800A7DC13D527008D8B3E958D473305F502C2
:102698009305101035051375F50F9747002023860D
:1026A800A7DC99473305F5021305050F972000208D
:1026B800E780600A23A6A1862DC9994717460020FE
:1026C8000346A6DA3306F60281451306060FCD3413
:1026D8009387C1869C439387070F23AEF1861747DC
:1026E8000020034787D80A07BA9723A2F186EFF09C
:1026F8005F85712E9387C18798439747002083C7CA
:10270800B7D693962700BA961706000013060686D2
:1027180090C293862700850793F7F70F8A07974596
:102728000020A383D5D4BA9790C3B24041018280D8
:102738009747002083C757D3174700200347E7D29E
:1027480063F1E7021387C18718439386170017467A
:102758000020A30BD6D093962700369708C33E8552
:1027680082809307F00FE5BF1C41638D07184177FE
:102778007D8FB706002089476317D7180357450090
:1027880063030718411122C419462A849305F00FE0
:10279800590506C67D3C05478D476300E5161C4470
:1027A80081CB58589947630A0714185C63070714C4
:1027B8001306C003814517450020130525C7EFF010
:1027C8003F9F1306C003A28517450020130505C6C1
:1027D80097100020E780E06F9747002083D7C7C590
:1027E80097460020938686C499E7930700101747F9
:1027F80000202313F7C49747002083C707C491E735
:10280800854717470020230AF7C29747002083C748
:10281800D7C291E7ED4717470020A300F7C29747B3
:10282800002083C7A7C191E79547174700202307D2
:10283800F7C09747002083C777C091E785471747B8
:102848000020A30DF7BE9747002083C777BF99E7FD
:1028580083C7060117470020A304F7BE9747002047
:1028680083C7E7BD91E7D147174700202309F7BC85
:102878009747002083C767BD95E7174700200347A0
:1028880027BC1316870161869307C00263480600B8
:102898009377170093B717009387D702174700203D
:1028A8002305F7BA9747002083C777B995E71747F5
:1028B80000200347E7B81316870161869307C00213
:1028C800634806009377170093B717009387D702DA
:1028D80017470020A305F7B68347D40191E7894736
:1028E80017470020A302F7B69C5691C782979747CF
:1028F8000020239EA7B6993B8147B24022443E85DB
:102908004101828089473E858280011122CC06CE12
:102918002A842EC6EFF00FEDB245F240818D33A523
:10292800A502229562441375F50F05618280011195
:1029380022CC06CE2A842EC6EFF0CFEAB245F2406A
:10294800818D33A5A5022295624442054181056126
:102958008280011122CC06CE2A842EC6EFF08FE8A1
:10296800B245F240818D33B5A502229562440561D6
:10297800828097470020938767AB985725C34111FA
:1029880022C426C206C6BE840297174700200357F2
:1029980007AE2A8441C7BA876373A700AA87C2070C
:1029A800C183BA866373E400A286C206C182958F8A
:1029B80051476355F706DC5491C3829785471747FB
:1029C80000202309F7BCEFB0600A97470020239046
:1029D80087AAB2402244924441018280974700204E
:1029E80083C747BB9DE797470020938727BA83C7CC
:1029F8009700850793F7F70F17470020A30CF7B840
:102A0800A18B9DC78547174700202315F7B86FB0DE
:102A1800C00B97470020A38F07B6D5BF9747002064
:102A280083C747B7DDD72244B24092444101C5B7B6
:102A38008280974700209387679FD857011122CC3F
:102A480006CE3E8401C72AC60297324509CD23A087
:102A5800A188171500201305656EC936F240624437
:102A68000145056182808307440163DD07009747BC
:102A7800002023A707A0971700209387C76623A0E5
:102A8800F188C1BF971700209387C769CDBF01118F
:102A980022CC1744002013046499084406CE26CAA1
:102AA8004AC801E90545F2406244D24442490561F9
:102AB80082805C58E5DB185C75D770008545829785
:102AC8001844B247E300F7FE9305E00417450020D9
:102AD8000355859697200020E780E0C71747002018
:102AE8002322A79A61D1174600200356E69493053E
:102AF800F00FEFF0EFEB8144174900201309C99656
:102B08009747002083C767930326C90163C1F4026E
:102B1800328597200020E780A0CD01459747002007
:102B280023A207969747002023A00796ADBF974595
:102B3800002083D56590B38795020844185C898185
:102B480085043E9508C2029765BF411122C4174407
:102B580000201304A48D1C4426C206C64AC097440C
:102B680000209384649091EBC84C35E9B24022442C
:102B7800924402490145410182801C5CF5D7DC4C36
:102B880099EF9305E004174500200355E58A97203F
:102B98000020E78040BC9747002023A5A78EC84C9B
:102BA80061D517460020035626899305F00FEFF0EC
:102BB8002FE001499747002083C72788D04CE35569
:102BC800F9FA9745002083D52587338525031C44CA
:102BD800898105093E951C5C08C28297E1BF972050
:102BE8000020E780E0C09747002023AD078897477B
:102BF800002023AB07889DBF011156C2974A0020C9
:102C0800938ACA8283A78A0022CC4AC84EC606CEB7
:102C180026CA52C45AC0AA892E84328963850722DB
:102C280003A74A03630707147D476366A7149744FD
:102C380000209384648303AAC40163170A0A956574
:102C4800938515E0173500200355057F9720002050
:102C5800E78060B09747002023A6A7822A86630AE8
:102C6800051083A74A0303A58A009735002083D55A
:102C7800A57C8981829783A78A0003AAC401174784
:102C880000202323F7808947639CF908C147631212
:102C9800F40E9735002083D5257A938505FC914756
:102CA800B3C5F5028A05D29503C705009307A005A9
:102CB800631DF70A83C715006399370B4A85228677
:102CC800910597100020E780C020DC4C5285639363
:102CD80047150145F2406244D2444249B249224A6A
:102CE800924A024B056182809850E38EE7F8956519
:102CF800938525E01735002003550574972000209B
:102D0800E78060A52A8A35C52A8683A74A0303A5D2
:102D18008A009735002083D5257289818297A5B7C7
:102D28008D47639DF900C1476315F404973500206A
:102D380083D58570938545FDF199B5B79147639A19
:102D4800F900631834039735002083D5E56EA11583
:102D5800E5B7C147639FF900A14763EC8700973542
:102D6800002083D5656DC115C1BFDC4C52856397C2
:102D7800470D294585B71307F006568B6361A70AE7
:102D8800130A05FE1947334AEA021737002003578A
:102D9800A76A973A0020938A2A6D330AEA023E9A74
:102DA80083A70A026395470183A4CA019DE493059A
:102DB800E004173500200355256897200020E78098
:102DC8008099AA845DD583274B039735002083D546
:102DD800A5662A8689815285829791451307A005A1
:102DE800898193972500A69783C607006393E60415
:102DF80083C61700639C360385058A052286A69537
:102E08004A8597100020E780C00C83A7CA01E38297
:102E180097EC268597200020E780809D5DBD1307ED
:102E2800E007E368A7F4130A05F985B783D52700F7
:102E380045BF83A7CA01E38E97F226859720002015
:102E4800E780009B3DB7973700209387E761CC4F19
:102E58008DD191479306A0058983139727002E9754
:102E680003460700E317D6F003461700631C360134
:102E780085078A072286BE954A8597100020E78035
:102E8800400581BD83572700C1BF9737002093872E
:102E9800E759984739C79C5FA9C705476313E504F5
:102EA800411122C4173400201304045C504C06C698
:102EB8000DC608509735002083D50558898182971B
:102EC800484C97200020E780A0929737002023AB3A
:102ED800075A9737002023A9075AB24022444101D4
:102EE80082808280011117370020130727544EC6AD
:102EF8008329870022CC26CA4AC806CE52C456C2A5
:102F0800AA842E843289638A09201C5FBA8A99EBC5
:102F18002945F2406244D2444249B249224A924A7F
:102F2800056182805C5BEDD7FD4763E9A70E9739A1
:102F380000209389695383A7C901B1CB03A58A00EF
:102F480083A709026395A70689476393F408C147D5
:102F5800E310F4FC173500200355054E914713057F
:102F680005FC3345F5029317250003A5C901228600
:102F7800CA853E959307A0052300F500A300950098
:102F8800110597100020E780C0F4014559B7930553
:102F9800E004173500200355254A97100020E780E4
:102FA800807B9737002023AFA74C49F995B783A7B3
:102FB8004A0303A6C9019735002083D5E5478981CF
:102FC800829783A78A0017370020232FF74AADBFBF
:102FD8008D47639EF400C147E31CF4F217350020C7
:102FE80003558545130545FD9377C5FFBDBF91473B
:102FF800639AF400E31E94F0173500200355C54387
:103008002115DDB7C147E395F4F0A147E3E287F066
:1030180017350020035545424115F9B79307F006C7
:1030280063EAA706930705FE1947B3C7E7021737F0
:10303800002003576740173A0020130AEA42B38773
:10304800E702BE998327CA01A9CF83270A02639A98
:1030580037070325CA0191461308A005FD5593D7E4
:103068002600C207C183139727002A970346070043
:10307800631D0607834817000356270063959806C3
:10308800B306D64063CF860485078A072286CA8599
:103098003E95C5BD9307E007E3ECA7E6930705F95E
:1030A80079B79305E004173500200355E5389710E4
:1030B8000020E780406A9737002023A5A73C51F5F8
:1030C80081BD83A74A030326CA019735002083D50B
:1030D800A53689814E8582979737002023A6373BEE
:1030E8008DBFA300B700B2869DBFB3858600173693
:1030F8000020035666349105130606FCE3FAC5E082
:10310800130634001376C60F1106B2962300070182
:10311800A30097002311D70085BF97370020938716
:10312800A734D44FBE89A1C203A5C901914613088B
:10313800A005FD5593D72600C207C1831397270022
:103148002A970346070063160605834817000356A7
:10315800270063989800B306D640E3D786F2A30009
:10316800B700B286C1BF8357C70017350020034593
:10317800C52C9305E0043305F502420541819710FB
:103188000020E780405D9737002023ADA72E49FD3A
:1031980041B3173600200356262A9735002083C5E9
:1031A800C529B385C502338686001106E3E2C5D674
:1031B80081BF01458280011106CE2EC6EF60203204
:1031C80001C9B245F2400355250005616F90605270
:1031D800F240494505618280A386018A2386018AD7
:1031E80023AA018823AC018823AE018823A0018A81
:1031F80023A8018823A60188973700209387C72A28
:103208003707B40098C33747A000D8C33707100062
:103218009306070A94C7B7065000C106D4C7930699
:1032280007054107D8CB3707D007410798CF37079D
:10323800840398D337C70700130707B8D8D3416763
:1032480094CB93060701130717F8D8D7417723AE15
:10325800070094D798DB8280011126CAAA842145E9
:1032680022CC06CE2E8432C636C43AC2EFE0BFBDA9
:103278001DC9A24612473246930700FD2300F500F8
:103288009947A30095002301F5002303D500A30364
:10329800E5002312C500AA8522856244F240D24483
:1032A80005616FE0BFC4F2406244D2440561828088
:1032B80023AAA188828023ACA188828023AEA1881A
:1032C800828023A0A18A8280011122CC4AC806CE1E
:1032D80026CA2A890144B30489006368B400F2400D
:1032E8006244D2444249056182802EC6EFE09FCFF6
:1032F80093170501C183A183B2452380F400930786
:10330800140093F7F70F850463F9B700CA97090407
:103318002380A7001374F40F7DBF3E847DBFC1676F
:10332800173500200355E51BFD176302F50241110F
:1033380003C641929385418A06C6EF50907BB240FE
:10334800FD5717370020231EF7184101828082801D
:1033580009C925151375F50F1335850E1345150085
:1033680082800145828023800500F94763E2C7080F
:10337800797122D426D24ECE56CA5AC806D64AD019
:1033880052CC5EC63684B289AE8A2A8B814463FFEA
:103398003405B307940003CA07001389140013798E
:1033A800F90F63050A04B3072A0163C1F904B307D7
:1033B800240183CB07005E85613F0DC99307FAFF9F
:1033C8002380FA0063906B03130519002295B2500D
:1033D800225492540259F249624AD24A424BB24BA1
:1033E80045618280D29493F4F40F55B70145C5B76F
:1033F80001458280411126C2AE8422C4973700203D
:1034080023A8C70E9737002023A2B70E97370020AE
:1034180023ACA70C2A8441469305F00F26854AC0A1
:1034280006C60549EFE0FFE2631E25039737002033
:103438009387C70A884BC145413D41469305F00F24
:103448002285EFE01FE185446316950222449737F1
:1034580000209387A708B24092440249C847C14553
:1034680041019DB5414681452685EFE09FDEE31683
:1034780025FD6DBF414681452285EFE09FDDE307CD
:1034880095FCB24022449244024941018280411194
:1034980022C426C22E84AA84130600028145173549
:1034A80000201305A50306C6EFE09FD0973700203C
:1034B800A3879702A3838192EF902025854719C19E
:1034C80081474945B2402244173700202308F700B6
:1034D800924441018280814781CD19C98547631B88
:1034E800F50083C7550093E707FCA382F5008547DD
:1034F8003E85828089476317F50083C7550093F797
:10350800F703E5B70D478547E314E5FE03C7550004
:103518001377F70313670704A382E500D1BF814738
:103528008DC105C103C755009306000C8547137765
:10353800070C6308D700930600048D476303D70080
:1035480089473E858280411122C4005D06C626C295
:103558001DC8AA84085009C597100020E780402993
:10356800485009C597100020E7808028085409C5ED
:1035780097100020E780C027228597100020E78059
:10358800202723AC0402B2402244924441018280A5
:1035980009ED9737002083C787F4173500201305F6
:1035A80065F581CB13854188828017350020130586
:1035B80065F4828017350020034565F282809737CD
:1035C80000209387A7F1C847828097370020938708
:1035D800E7F0884B828097370020938727F0DC4BF1
:1035E8008843828097370020938747EFD84B1C4346
:1035F80085071CC317350020034575EE9307F00FA8
:103608006305F50091656FE0BFC68280011122CC89
:1036180006CE2E8432C6EF50D07B9147B245631F49
:10362800F5009387018A9C438DC303A30700630EAB
:10363800030022856244F2400561028393878189F1
:103648009C4381C703A34700DDB7F24062440545A8
:1036580005618280011122CC2A840355450006CEDB
:1036680026CA4AC84EC6EF50B0572DC52A8983448A
:1036780005008349C500C13D4A85EF60304B0355BD
:103688004400EF50907083C7C18AA9CB6398970410
:1036980083C5D18A2685053619E12386018A035513
:1036A8004400EF5010739147631FF500035744001F
:1036B8009737002083D7E7E26317F700FD571737DE
:1036C80000202310F7E2F2406244D2444249B24952
:1036D8000561828081499304F00F75B79307F00F55
:1036E800E38FF4FA8346640003564400034524003C
:1036F8004E87A685953665B779715EC6AA8B2E85E5
:1037080052CC56CA5AC806D622D426D24AD04ECE51
:10371800AE8A328B368AEF50B04C6DC1045D2A896F
:10372800F1CC9C50614599C3130540039C5481C753
:1037380051054205418163050A0071054205418131
:10374800DC5081C7590542054181EFE0CFEF2A845B
:1037580055C561468145EFE0BFA59739002083C96B
:10376800A9D76394090083490900930700FD230042
:10377800F400A947A30074012301F40023036401A2
:103788008C50231254011305840191C908C4714651
:10379800930A440397000020E780A07356858C5451
:1037A80091C948C45146930A450197000020E78013
:1037B80040725685630C0A0008C87146D285930A80
:1037C800C50197000020E780C0705685CC5099C588
:1037D80048C8594697000020E780A06FA2854E850B
:1037E800EFE0CFF02254B2509254F249624AD24AE2
:1037F800424BB24B4A8502594561B1B3B25022548B
:1038080092540259F249624AD24A424BB24B45613C
:10381800828001114EC6AA892E854AC806CE22CCBE
:1038280026CA2E89EF50D03B31C59734002083C477
:10383800A4CA99E0834405001945EFE0CFE02A8443
:1038480015C981451946EFE0BF96930700FD23008F
:10385800F400B947A30034012301F4002312240122
:10386800A2856244F2404249B2492685D2440561A4
:103878006FE0CFE7F2406244D2444249B249056161
:10388800828039715ECEAA8B2E8526DA4ED652D426
:1038980056D25AD006DE22DC4AD8AE84328BB68A9B
:1038A8003A8ABE8942C6EF50B03331C92A894145A8
:1038B800EFE06FD92A8421C541468145EFE05F8F4B
:1038C80017350020034545C119E103450900930751
:1038D80000FD2300F400BD472301F400B247A30014
:1038E80074012312940023046401A30454012305E2
:1038F8004401A30534015CC4A285EFE02FDFF25038
:103908006254D2544259B259225A925A025BF24B2B
:1039180021618280797126D2AA8439454AD04ECE57
:1039280006D622D42EC6B2893689EFE0CFD121C17E
:10393800B2459307000D2310F500B1472A842312DE
:10394800B5002301F500CE8519051946970000201A
:10395800E780205823062401A2852254B250025938
:10396800F24913F5F40F925445616FE02FD8B25025
:10397800225492540259F249456182801737002037
:103988000347F7B59307F00F630DF706411126C2F9
:10399800AA84394522C406C64AC0EFE0CFCA2A84A1
:1039A80039C9930700FD2300F500A3009500230102
:1039B8000500973500209385E5B30D051946970056
:1039C8000020E780005117390020130929B18357D7
:1039D8008900A28517350020034575B02315F4002A
:1039E800834719002306F4002244B2409244024956
:1039F80041016FE0AFCFB2402244924402494101F5
:103A080082808280011156C2AA8A314526CA4AC8D4
:103A18004EC652C406CE22CCAE84328AB6893A89C2
:103A2800EFE06FC229C92A842685EF50701B1DCD8F
:103A380003450500930700FD2300F4009D47A300FC
:103A480054012301F4002312940023134401231486
:103A5800340123152401A2856244F240D24442492C
:103A6800B249224A924A05616FE04FC817350020D3
:103A78000345F5A6C1B7F2406244D2444249B2496F
:103A8800224A924A05618280397162CC2A8C594552
:103A980026DA4AD84ED652D456D25AD05ECE06DE50
:103AA80022DCAE8432C636C4BA8B3E8BC28A468AC2
:103AB8008359010403494104EFE0EFB835C53246A4
:103AC800930700FDA2462300F5009547A301C50012
:103AD800A30085012301F5002A8419461105A9C20E
:103AE800B68597000020E780C03E23066401230ABC
:103AF80024012315740123175401231844012319A1
:103B08003401A2856254F2504259B259225A925A4B
:103B1800025BF24B624C2685D25421616FE00FBDE7
:103B28008145EFE0EFE8D1B7F2506254D2544259E0
:103B3800B259225A925A025BF24B624C216182803E
:103B48009737002083C7A7998DCB4111AA851946BD
:103B58001385418806C697000020E7808037938543
:103B680041881735002003458597EFF0DF96B2406E
:103B78001385418841016F80D0390145828017370C
:103B880000200347D7959307F00F6305F708411105
:103B980026C2AA84294522C406C6EFE0CFAA2A84F1
:103BA80029C1930700FD2300F500A1472301F50073
:103BB800A3009500973700209387479283C7270073
:103BC800938541881105A30FF5FE1946970000203B
:103BD800E7802030A2851735002003455590EFE097
:103BE800EFB0173700200347878F8D47631FF70013
:103BF8009387C1899C4391CB03A387006307030084
:103C08002244B240924441010283B2402244924489
:103C180041018280173700200347678C8D47631A5C
:103C2800F7009387C1899C4389C703A38700E31DD5
:103C380003FC8280797122D406D626D24AD04ECE91
:103C480052CC094445C92A89035505002E8A514496
:103C5800EF500079AA8459CD83C77192FD1793F765
:103C6800F70F054749446377F7080347C500A1479D
:103C78006314F70063100A089C5C4544A5EF91653E
:103C8800938545711305C00297100020E780A0AC0A
:103C980088DCAA894D4439CD1306C0028145EFE07E
:103CA8002FD1835709009386490036852391F9005F
:103CB80071469305490036C697000020E7806021C9
:103CC80089472380F90003C5C400B246035609009A
:103CD800611583C5419213351500EF8040012A8490
:103CE80063060A00D2852685EF60700F01C4268519
:103CF800EFF07F852285B250225492540259F2493E
:103D0800624A4561828083C77192FD1793F7F70F66
:103D180005476378F708894751C6011122CC26CA9E
:103D28004AC84EC652C406CEAA89368AB2842E899B
:103D3800EF50006B2A84D14729C9485509C5971007
:103D48000020E780E0AAF1452685EFE0CFC848D4F7
:103D5800CD4705CD8346C40021478147639FE600D0
:103D6800630D0A000347A5010356050193062501C3
:103D7800AA854E85EF50907EAA8703474400630FBB
:103D88000900136767002302E400F2406244D2444A
:103D98004249B249224A3E8505618280136747003D
:103DA800DDB7C9473E858280E14763EBA7009727C7
:103DB80000209387676F06053E95035505008280AE
:103DC80041657D158280011122CC2A842E8526CA60
:103DD80006CEAE84EF50C0600DCDB7470F00938775
:103DE800F723094563E2870281450A854146EFE0EA
:103DF8002FBCA685231081000A85418023018100FC
:103E0800A3010100EF701051F2406244D2440561F1
:103E180082804945D5BFA382A19282806F70F065E8
:103E2800797152CC2A8A328522D426D24AD04ECEF3
:103E380056CA5AC85EC606D662C4AE8BB28A368BDC
:103E4800BA843E89C2894684EF50805915C92A8CA4
:103E580063140A0213774B008347450015CF93E795
:103E680027012302FC008DEC631C0902639A0902F6
:103E780005E8ED9B2302FC00832B8C03639F0B0654
:103E8800B250225492540259F249624AD24A424BE1
:103E9800B24B224C45618280F59B93E70701D1B76D
:103EA80093E747002302FC0001CC1C484146A28549
:103EB8002324FC0213058C0197000020E780600191
:103EC80063910B02D5D80325CC0209C597100020B1
:103ED800E7800092F1452685EFE0EFAF2326AC029C
:103EE80061BFE30B09F80325CC0209C59710002030
:103EF800E7800090F1454A85C5B79DC483A70B02AA
:103F080099EB916593853571714597100020E7808D
:103F1800808423A0AB0203A50B0219C57146A685B0
:103F280097000020E780E0FA6388090283A74B0224
:103F380099EB916593852571594597100020E78085
:103F4800808123A2AB0203A54B0219C55946CE8531
:103F580097000020E780E0F71DC483A78B0299EB48
:103F6800916593851571514597000020E780A07EE3
:103F780023A4AB0203A58B0219C55146A28597005D
:103F88000020E78000F52254B2509254F249B24B17
:103F9800224CCA865A860259424BD6855285D24A45
:103FA800624A45616FF04FF5011126CA52C406CE28
:103FB80022CC4AC84EC62A8AAE84EF50604225C534
:103FC800AA893945EFD03FE82A8431CD1729002046
:103FD800034989506314090003C909009307000DB8
:103FE8002310F400AD472301F400938569001305FD
:103FF8003400194697000020E780A0ED93F71400DD
:10400800858085882306F400A306940023154401BF
:10401800A2856244F240D244B249224A4A854249C2
:1040280005616FD0BFECF2406244D2444249B249C4
:10403800224A056182809387C188884301CD411156
:1040480006C697000020E780A07AB24023A6018820
:10405800410182808280011106CE22CC26CA4AC83C
:104068002EC6EF50E03739CDB24517290020034955
:10407800A946AA840CD563140900034905004145E3
:10408800EFD07FDC2A841DCD9307000D2310F500A7
:10409800A5472301F50083C75400938564001105E3
:1040A800A30FF5FE194697000020E78080E29C5494
:1040B800A285F2405CC46244D2444A854249056103
:1040C8006FD0DFE2F2406244D24442490561828007
:1040D800797122D406D62A842EC6EF50603001CDDD
:1040E800B2452285230EB1006C08EF60C04BB25078
:1040F8002254456182805145DDBF6F504043C167FE
:104108001387E7FF6394E502938781899C4391EBCA
:10411800494582804945B2402244924402494101BE
:10412800828003A30700E30503FE0283411122C432
:1041380026C24AC006C6FD172A892E84B284639512
:10414800F502938781899C4391CB9C4381CB8297CD
:1041580011E52386218BA386918A75BFA6854A859A
:10416800EFF06F854DF9F5B72E85EF5060275DD1DB
:10417800834705000D45E39027FB22852244B24082
:104188000249A685924441016F80A0566147636247
:10419800A7044111416722C406C626C27D172A8496
:1041A80009456383E502C547AE846315F4002E858F
:1041B800EF80A05B93171400172400201304C42E6B
:1041C800A297239097000145B240224492444101AE
:1041D800828009458280011106CE2AC6EFE0DFFF02
:1041E800EF104002EF00C074EFD0704D32459727B2
:1041F80000209387A72E130700F02391E70023825E
:1042080007007D5793874192A380E7002380A7008A
:10421800F240954505616F30503C5D7193970501FB
:10422800CAC086C6A2C4A6C24EDE52DC56DA5AD826
:104238005ED662D466D26AD0C1872E8963DD074A0A
:1042480003C54192EFD01FC48964416A856A797BAE
:104258002A84938BD4007D1AA50A691B15E0216571
:104268003345A900B640264496440649F259625A95
:10427800D25A425BB25B225C925C025D61618280D1
:10428800834704001307200A639DE70003552400B1
:10429800172C0020034CBC242286D285EFF00FB7E0
:1042A8003DAA1307100903CC51926397E716834779
:1042B80014001547639EE7002285EFF0AFB9228509
:1042C800EFD0BFB503C54192EFD0DFBB2A8479B7E1
:1042D80039476399E71603554400631B55050C4499
:1042E80083C90500639D0900850591C919461725ED
:1042F80000201305252097000020E78080BD1727A0
:1043080000200347A71D85476318F710638A090033
:10431800972700202384071C4E85EFF02FE645B72A
:10432800894717270020230BF71AEF80403E41BF2B
:1043380093872400631AF50683298400638E090C89
:1043480083C709008DE383C7290003C71900A207A3
:10435800D98F172700202317F71883C73900172785
:104368000020A30DF71617270020034727178947B2
:104378006314F70A83C7090081CB97270020238F8E
:10438800071403C5090051BF8D479725002083C531
:10439800F514172500200355E51417270020230FCF
:1043A800F712EF309026F1BF938754006318F50099
:1043B8001C4403C50700EFF08FFC11B7B307650174
:1043C800C207C1831147636FF7009387C1899C4374
:1043D800E38707EE9C43E38407EE22858297E31088
:1043E80005EE1DA89387B400631FF50093874189E4
:1043F8009C43E38607EC9C43E38307ECA285138583
:10440800B4008297E9BF9387C4006310F5021C4487
:1044180083C70700E38507EA9307F00FE301FCEA87
:10442800A2856285EFD09FAC71BD9387E400E31548
:10443800F5FE938781899C43E38307E8DC43A285E3
:10444800E9F3B5BD3D476397E70403554400E3022C
:1044580075FF93879401E30EF5FC93873401E31D00
:10446800F5FA9727002083D7C707639E47019387EC
:1044780081899C43E38507E4DC43E38207E4A28562
:1044880013853401BDBF9387018A9C43E38907E202
:104498009C43E5B71307E003E390E7F8834724005C
:1044A80005476396E70E83476400138DC188F1E3DF
:1044B80083270D00D5CB03CC0700A1490345740021
:1044C800930C8400E685EFF08F8583474401A303AE
:1044D800A400835804010358E400035744002A86C3
:1044E800034534003EC283572401E686E2853EC078
:1044F800CE87EFF06FD98347340095E7DD478358BF
:1045080004010358E40083467400835544003EC206
:1045180083572401668705463EC06285CE87EF50E3
:10452800E01CA301A40083270D0081C71145EFF00B
:104538009FB003C5C18AE30405D883C5D18AEFE0DB
:104548009FC7E30E05D68346340093071003638A9A
:10455800F600035644004E8783C5C18A3685EFE0CE
:10456800BFCF2386018AA1BB172C0020034C3CF740
:10457800A9B79387C1899C43172C0020034C3CF6AC
:1045880091498DDFDC439DDB0145829705BF2947B3
:10459800639DE70A83476400938CC188C9EB83A7AE
:1045A8000C00C9C303CC0700A14903457400130DCF
:1045B8008400937725001376150089E7EA85EFE0F4
:1045C8001FF62A8683470402A303C4008358C40144
:1045D8000358A40103574400034534003EC28357DF
:1045E800E401EA86E2853EC0CE87EFF0EFC9834753
:1045F800340095E7DD478358C4010358A401834676
:104608007400835544003EC28357E4016A87054617
:104618003EC06285CE87EF50600DA301A40083A73A
:104628000C0021B7172C0020034C7CEBB5BF9387F7
:10463800C1899C43172C0020034C7CEA9149B5D7CB
:10464800DC43A5D7014582978DB70947639DE700ED
:10465800938741899C43E38407C6DC43E38107C60B
:1046680022858297A9B92D476399E70093874189E5
:104678009C43E38607C49C47D5B70D476397E7007B
:1046880022868D450355440011B91947E396E7D8AA
:104698009305610113051031EFD0700D2C08130537
:1046A8002031EFD0D00C03566400835781010355A5
:1046B800440063E8C700835684000357610163F729
:1046C800E60093050002EF804009D5BE6374E6005A
:1046D8002313E40063F4D7002314F4000357C40041
:1046E8008356A4000356840083556400014881471B
:1046F800EF806006E9B693F7150081CF938741896B
:104708009C4389C7DC4399C3014582971345190027
:1047180091BE93F7250081CF9387C1899C4389C7B0
:10472800DC4399C3054582971345290025BE93F7B5
:1047380045000145E38807B2938701899C4391CFDF
:10474800854717270020230DF7D89387C1899C43F5
:1047580089C7DC4399C3054582979727002093872B
:10476800E7D7C8472C08EF7000242808EFF04FBDA2
:104778009727002083D767D591CB1306006433862B
:10478800C702914503C54192EFD0FFC013454900C8
:10479800D1BC411122C42A84554506C6EFF0CFE0AA
:1047A800B335A00022852244B24041016F70B07732
:1047B800797122D406D68D472E84631FF50003D75E
:1047C800A50083D6850003D665000345340083D54C
:1047D8004500EFF02FA309A889671387D700631056
:1047E800E50403C5250019E58547B25022543E85E6
:1047F800456182809387C1889443FDD603C63600FD
:1048080083C50600814802C202C0014881470147AA
:104818009106EFF06FA70545EFF0FF81F1B7138719
:10482800E700E303E5FC13873701631AE50003C5D6
:1048380025005DD9014781460146814559BFE507F5
:10484800E304F5FA41677D178147E310E5FA03C7EA
:104858005500C947E31AF7F883D6E50003D6C50023
:104868000355840083D5A500EF70B07051C15D4534
:10487800EFF08FD33335A000231CA10083454400FB
:10488800035524003008EF40302883578101A9FFE1
:104898006C0813051031EFD0806D9305E101130505
:1048A8002031EFD0C06C8357C10103578400637473
:1048B800F7002314F4008357E1010357A40063F4BD
:1048C800E7002315F400835584008357A40063F49C
:1048D800B7002315B4000357E4008356C4000356F9
:1048E800A4000355240001488147EF70D064EDBD52
:1048F8008547231CF10059B7C1671387E7FF639DFC
:10490800E5009387C1889C4395C383C707000D477B
:10491800639CA7006F707061FD1749476396F500A7
:104928009387C1889C43FDF73A8582804947EDBF4C
:10493800238C018A23A0018C23AE018A97270020AB
:104948009387C7BB170700001307874798C3170744
:1049580000001307A74AD8C3170700001307E75A30
:1049680098C79387018B17070000130727F998C387
:1049780017070000130707E4D8C38280797122D48F
:1049880006D626D24AD04ECE52CC56CA5AC803476B
:10499800050085472A84630AF704034685009306C1
:1049A80095009305F1000545EFE0FF9B814719C18C
:1049B800834705008346040011476380E604138794
:1049C800C18B18438D46034717006308D70295C764
:1049D8000DC719ED0145B250225492540259F249BB
:1049E800624AD24A424B4561828081470145D9B724
:1049F80085466318D7028D8BF1DF03451400130A2F
:104A08002400D285EFE0BFB1A300A4001389018C74
:104A180083270900AA8A81499304F00F99EB054579
:104A28005DBF8946E318D7FA858BF9B7850993F9ED
:104A3800F90F83C7818B63FBF90203250900139BD8
:104A480049005A9583470500E38297FE834715007E
:104A5800E39E57FD1946D2850905EFD08FFB79D51E
:104A68008324090003470400DA9485EC8346040094
:104A78009147E381F6F683270900A9DF03C6818BF6
:104A880001479305F00FE307E6F4BE84C10703C5A9
:104A980007FF630CB50A05071377F70FEDB788C44E
:104AA800E5A09147631AF706C84405C58347840003
:104AB800034605006304F606034704009147631B99
:104AC800F706C84419C597000020E78060D223A6DE
:104AD80004000345840091659385E57105059700F9
:104AE8000020E78040C705C5034704009147631CC1
:104AF800F704C8C483478400930594000505A30FF1
:104B0800F5FE0346840097F0FF1FE780803C0345CD
:104B180084003335A000C1B5884441BF9305940093
:104B28000505EFD00FEF8547E318F5F85545EFF089
:104B3800AFA7BDA8884451DD97000020E78040CB8F
:104B480023A4040079B788C475B72380D4008347A9
:104B58001400D28513852400A380F400194697F029
:104B6800FF1FE78000370345840091659385F57141
:104B7800050597000020E78000BE05C5034704002F
:104B88009147E31EF7F0C8C4834784009305940057
:104B98000505A30FF5FE0346840097F0FF1FE78085
:104BA800403383478400E39C07E6034504007D15F2
:104BB800133515000DB5011122CC1384018C1C404E
:104BC80006CE26CA4AC84EC652C499CF2E8AAA848F
:104BD8000149084063129902630C0A0497000020F7
:104BE800E78000C123A0018CF2406244D2444249CC
:104BF800B249224A0561828093194900B3073501F9
:104C0800884709C997000020E78080BE1C40CE97DE
:104C180023A407001C40CE97C84709C99700002065
:104C2800E78000BD1C40BE9923A60900050955B7B9
:104C380045DD139644008145EFD08FD71440814756
:104C48007D5613F7F70FE37197FA139747003697D6
:104C58002300C7008507F5B7011152C4138AC18B19
:104C680083270A0006CE22CC26CA4AC84EC656C298
:104C78005AC0C9CF2A89014419ED9387018C9443FE
:104C880099CA03C6818B2A8481479305F00F13F7CD
:104C9800F70F6367C708131534002105EFD0AF9AE3
:104CA800AA8401E92145EFD00F9AAA8421C50144BD
:104CB8004D49930700FD2380F4008547A380240114
:104CC8002381F400A38184005DC41389840023A296
:104CD80024018149938A018C130BF00F83C7818BC0
:104CE80063F3F90031E883270A00A68503C50700A6
:104CF800EFD0CF9F814503C5818B753D03250A0001
:104D080097000020E780C0AE23AE018AF2406244DB
:104D1800D2444249B249224A924A024B05618280F2
:104D2800139747003697034707006305B700050444
:104D38001374F40F8507A1BF83A70A009395490050
:104D4800BE9583C70500638467032300F90083C702
:104D58001500130529007D14A300F90019468905DB
:104D68001374F40F97F0FF1FE780A0162109850937
:104D780093F9F90FA5B723A20400B5B7411122C4CE
:104D880006C62A8405E10945EFF00F822A8611C577
:104D9800854503C54192EFD00FE00545EFF07F9FB1
:104DA8002A8401C9854503C54192EFD04FF5228574
:104DB8006535B240224405454101828089671387E1
:104DC800B700631AE5009387C18B9C439DC39C453C
:104DD80003C5070065B71387C7008147631CE50053
:104DE8009C4503C50700854711C59387C18B9C4324
:104DF800F5F381473E858280797106D622D426D282
:104E08004AD04ECE52CC56CA5AC85EC679C98347D4
:104E18003500AA8985C7404115C05945EFE0DFF83C
:104E2800931A850193DA8A410149138AC18B130BBE
:104E3800000DB54B83C73900636DF900B250225499
:104E480092540259F249624AD24A424BB24B4561E6
:104E580082808307840263CD570783270A00ADCB7E
:104E68002285EFF0BFB12DC5034584005105EFC081
:104E78009FFDAA8431CD2310650123017501834765
:104E88000400194693052400A301F5008307840252
:104E980015052303F50083471400A30FF5FE97F0CB
:104EA800FF1FE7800003034684002386C4001DC655
:104EB8001385440188C89305940097F0FF1FE78085
:104EC800400183270A00A68503C50700EFD00F829B
:104ED8000509130494021379F90FA9BF23A8040044
:104EE800CDB79387C18B9C43B1DBBD332254B250FD
:104EF80092540259F249624AD24A424BB24B014596
:104F080045616FF01F89797106D622D426D24AD01E
:104F18004ECE52CC56CA5AC85EC671C183473500B8
:104F2800AA8985C7444195C05945EFE0FFE7931A20
:104F3800850193DA8A410149138AC18B130B00FD5D
:104F4800C14B83C73900636DF900B25022549254A3
:104F58000259F249624AD24A424BB24B45618280B9
:104F68008387F40063C8570783270A00A5C75145FC
:104F7800EFC07FED2A8439CD23006501A300050029
:104F88002301750183C70400194693852400A301F2
:104F9800F5008387F4001505A306F50083C7140000
:104FA800A30FF5FE97F0FF1FE780A0F283C78400E8
:104FB800938594001305C400A305F400194697F0DF
:104FC800FF1FE78000F183270A00A28503C50700B9
:104FD800EFC0DFF10509C1041379F90F9DB7938775
:104FE800C18B9C43BDD3EFF03FC72254B2509254BB
:104FF8000259F249624AD24A424BB24B01454561D5
:105008006FF02FF983C77192A18B1385018B91E300
:1050180001456FE04FAA411122C485452A8403C582
:10502800818B06C6EFF03FB983C77192A98BA5CBD8
:10503800171500201305854C238C818AEFE04FA7B4
:105048001384018C1C4091C74D45B2402244410154
:10505800828003C5818B19E10145C5BF91659385A0
:10506800B571120597F0FF1FE780E06E23A0A18CB1
:1050780061DD03C6818B12068145EFD06F93104026
:1050880083C6818B8147FD5513F7F70FE376D7FC6D
:105098001397470032972300B7008507F5B70145F6
:1050A800238C018AEFE0CFA045BF9387018988430D
:1050B80001CD411106C697F0FF1FE7806073B2402B
:1050C80023A80188410182808280011122CC06CE6A
:1050D8008D472E846316F50603C73500E94703D5C7
:1050E80045006318F7009717002083D7873F63852B
:1050F800A706EF40E02E09C5835764002317F50083
:105108000357A40083568400035664008355440063
:1051180003453400EFE01F8F035744009717002022
:1051280083D7273C6308F7008547F24062443E85F1
:1051380005618280FD57171700202314F73AEDB751
:105148008967CD07631DF50083C72500314763854F
:10515800E7004547E39AE7FCEFE06F9CF1B741674A
:105168007D178147E313E5FC83C655004947E39E55
:10517800E6FA83C5450003552400300023140100D6
:10518800EF40601355B7797122D4138401891C400C
:1051980006D626D24AD00545A5C30D45EFE0DFC0A7
:1051A800AA841145EFE05FC02A899305F101130530
:1051B800F041EFB070740347F1019717002083C7DF
:1051C8000732B336F00011C389061C4036C603C542
:1051D800370093854700EFE00FB01040B2462A87AA
:1051E8008348B6000348A6009307460003462600F6
:1051F800CA852685EF702052B25022549254025923
:1052080045618280FD572386F1802392018C23A675
:10521800018C23A8018C23AA018C9717002093875F
:10522800A72E170700001307A70798C31707000042
:105238001307A734D8C317070000130707F598C743
:10524800970700009387A7E823A4F18C8280411177
:1052580026C2938401899C4006C622C49DCB2A8419
:105268000D45EFC05FBEAA8519CD930700FD230049
:10527800F5008D47A30085002301F5009C4003C578
:105288000700EFC0BFC611C42244B2409244410196
:1052980029BDB2402244924441018280797126D2CC
:1052A80083544500896706D622D44AD04ECE52CCC4
:1052B80013876700639DE402938701899C43014437
:1052C80081CF1845034507000DE10547A380E70096
:1052D8000545EF70004505442285B250225492548A
:1052E8000259F249624A456182809537EDB71387C2
:1052F80097006365970403C7C1809307F00FE30C19
:10530800F7FC1C45114503C40700EFC0DFB3AA85AD
:1053180079D1930700FD2300F50089472301F500A3
:10532800F977E117BE9493B41400A3008500A30194
:10533800950003C5C180EFC07FBB71BFA9070144B9
:10534800E39CF4F813890189832709004A8AC9D79D
:10535800184503C41700854783490700630DF40205
:105368009717002083C7C717BDF70D45EFC0BFAD1E
:10537800AA8505C1930700FD2300F5009147A30006
:1053880035012301F5008327090003C50700EFC095
:10539800FFB5213B89B79387C18C9C4391EF0145A9
:1053A800EFE09FA02A8611C6894503C54192EFC048
:1053B8009FFE83270A00A9A003C60700938617004B
:1053C8009305F1000545EFD01FFA71D98347050011
:1053D800858BF1D70545EFE03F9D9307B003AA847D
:1053E80063FDA7025D6613060670894503C54192F1
:1053F800938444FCEFD0CF8D2392918C83270900AE
:105408000947A380E7009717002083C7670D99CB4A
:10541800971700202386070CC1B5130600643306CE
:10542800C50251B74E85253545BD938701899C43F3
:10543800011122CC06CE26CA4AC8454499E783C73B
:10544800719213F7570009EB49442285F2406244F0
:10545800D2444249056182801387C18C1843414474
:105468006DD70347070075D3858BAE842A89D9C7C2
:1054780083C704000547F91793F7F70FE366F7FCAE
:10548800916593857571314597F0FF1FE780A02CD2
:1054980023A8A1884D4455D923002501A300050060
:1054A8002946A685090597F0FF1FE78080A2930586
:1054B80071001305F041EFB0304483477100B9E73C
:1054C800171700200347A7018D476311F704EFE082
:1054D8000F8F2C00EF60204D2800EFE06FE6454568
:1054E800EFE09F8C014435D1130600643306C502F2
:1054F800914503C54192EFC01FEA81BFEFE0FFBFAE
:105508002A84EF40A005E375A4F69DBFEFF0BFC75E
:105518002A8405DDEFF07FB90DBF411126C29384BF
:1055280001899C4006C622C4A1C383C707000D4455
:10553800639DA702894503C54192EFC05FFC914571
:1055480003C541922392018CEFC07FFB971700207F
:10555800A38807F89C400145A38087002244B240F5
:10556800924441016F70E01B49442285B2402244B5
:10557800924441018280411106C685476311F506B0
:1055880083D7418CA1C717170020034767F51DEF84
:105598001307B0036367F702894503C54192EFC05B
:1055A8001FF69307006403D6418C3306F60289453B
:1055B80003C54192EFC03FDE2392018CB240410106
:1055C8008280938747FC2392F18CCDBF9387018912
:1055D8009C43EDD7B24003C5070041013DBF938707
:1055E80001899C43E1DF83C77192918BE1DB894597
:1055F80003C54192EFC0BFF0B2402392018C410134
:105608006FF0BFAA83C77192958BCDC79387C18C62
:1056180099E19387418D9C43D1CFFD4763EEC7083D
:1056280011C2D9CA411122C426C206C64AC023865D
:10563800A180B6843284A1C11389C18C03250900D5
:105648007D4681450505EFC0BFB603250900A6853F
:105658002286050597F0FF1FE780A08783250900AC
:105668002285238085002244B24092440249850560
:1056780041016F70800A1389418D032509007D4619
:1056880081450505EFC0DFB203250900A6852286FE
:10569800050597F0FF1FE780C08383250900228551
:1056A800238085002244B240924402498505410185
:1056B8006F70E006494582800945828083C77192F0
:1056C800918B99CF41111385818C06C6EFD07FBF8E
:1056D800B240FD57171700202315F7E041018280DB
:1056E80001456FD01FBE9387C18C8843411122C4E6
:1056F80006C626C23E8419C597F0FF1FE780400FF3
:1057080023A6018C9387418D884319C597F0FF1F05
:10571800E780000E23AA018C9384419283C734004A
:10572800958BA5CF17150020130505DEEFD01FB9FF
:1057380083C73400958B99E74D45B2402244924483
:10574800410182809164938564711305000297F08A
:10575800FF1FE780400023A6A18C79DD1306000215
:105768008145EFC0FFA4938554711305000297F09B
:10577800FF1FE78040FE23AAA18C01C9130600027F
:105788008145EFC0FFA201454DBF084097F0FF1FBC
:10579800E780000623A6018C45B70145EFD01FB26C
:1057A800DDB70145828083C69192814763E5D700C2
:1057B80001473A8582802E87910503D6C5FFE30A03
:1057C800A6FE8507E5B70DCD834725000547890760
:1057D80093F7F70F6376F702411122C406C62A84AD
:1057E80083550500034535000147F9465D46EFD06E
:1057F8007035F9572311F400B240224441018280E8
:10580800828003C791928147FD5663E3E700828057
:105818002310D5002301050085071105FDB70145B3
:1058280082809385B1819307000285462380F50025
:10583800FD57238DF1802387F180A386F180239C77
:10584800D180239C018C23A0018E23A8018E23A242
:10585800018E13860181972701009387E7815CC237
:10586800238D018C97F7FF1F93878704094723002F
:10587800E6002380E7002388E7002380E7022388E7
:10588800E702171701001307677ED8DB0D47238C43
:10589800E7021387C18D18432384D700D0C7238C10
:1058A800D700171501001305A57D1716010013066B
:1058B800A67B971601009386267DC8C3239507000B
:1058C800D0CB239D0700CCCFD4D3238407022395C4
:1058D800070223A60702239D0702D8DF97F7FF1FB9
:1058E80093870701170700001307E70B23A007009A
:1058F800D8C323A407008280411106C66D3511C59F
:1059080003452500B240410182800145E5BF4111B0
:1059180022C426C24AC006C6AA842E8932846135AA
:1059280009E94165CA857D15BD3DC54711C52310E7
:105938009500230185008147B240224492440249E0
:105948003E854101828039E38948354763911605D0
:10595800011106CE22CC26CA0347160003460600CC
:1059680093C7F7FF2207598EF18F32C69DE3C445CE
:105978002A84A685513732460147630EA600228540
:105988006244F240A685D244056151B72D473A8555
:10599800828013070008F2406244D2443A850561C8
:1059A800828083C8050009486394080303A845005A
:1059B8008347180003480800A207B3E70701C20796
:1059C8000D68C18713082890639407018947A5BF0C
:1059D8000545828003C7E1809307F00F630AF70447
:1059E80041114AC02A89294522C426C206C63284E2
:1059F800AE84EFC04FC51DC59307100B2310F500EB
:105A080023020500231485002244231125012313B2
:105A18009500B24092440249AA8503C5E18041013C
:105A28006FC0CFCCB24022449244024941018280E7
:105A3800828041119387C18D26C2AE848C4322C4D3
:105A480006C62A84553D098909C922852244B240DF
:105A5800A685924441016FD0103CB2402244924442
:105A6800054541018280411122C426C24AC006C6AA
:105A7800AA841304450013090504835704008DC341
:105A8800084409C597F0FF1FE78080D62285314674
:105A98008145EFC0EFF13104231A04FEE31F24FD12
:105AA800B2402244FD572390F40002499244410138
:105AB80082809387818E984303C6919281476315AC
:105AC800F600814636858280BA8613070704835517
